{
  "contractName": "Parabellum_In_General_V3_0_1",
  "abi": [
    {
      "constant": true,
      "inputs": [],
      "name": "name",
      "outputs": [
        {
          "name": "",
          "type": "string"
        }
      ],
      "payable": false,
      "stateMutability": "view",
      "type": "function"
    },
    {
      "constant": true,
      "inputs": [],
      "name": "goodwill",
      "outputs": [
        {
          "name": "",
          "type": "uint16"
        }
      ],
      "payable": false,
      "stateMutability": "view",
      "type": "function"
    },
    {
      "constant": false,
      "inputs": [],
      "name": "renounceOwnership",
      "outputs": [],
      "payable": false,
      "stateMutability": "nonpayable",
      "type": "function"
    },
    {
      "constant": true,
      "inputs": [],
      "name": "stopped",
      "outputs": [
        {
          "name": "",
          "type": "bool"
        }
      ],
      "payable": false,
      "stateMutability": "view",
      "type": "function"
    },
    {
      "constant": true,
      "inputs": [],
      "name": "owner",
      "outputs": [
        {
          "name": "",
          "type": "address"
        }
      ],
      "payable": false,
      "stateMutability": "view",
      "type": "function"
    },
    {
      "constant": true,
      "inputs": [],
      "name": "isOwner",
      "outputs": [
        {
          "name": "",
          "type": "bool"
        }
      ],
      "payable": false,
      "stateMutability": "view",
      "type": "function"
    },
    {
      "constant": true,
      "inputs": [],
      "name": "symbol",
      "outputs": [
        {
          "name": "",
          "type": "string"
        }
      ],
      "payable": false,
      "stateMutability": "view",
      "type": "function"
    },
    {
      "constant": true,
      "inputs": [],
      "name": "_owner",
      "outputs": [
        {
          "name": "",
          "type": "address"
        }
      ],
      "payable": false,
      "stateMutability": "view",
      "type": "function"
    },
    {
      "constant": false,
      "inputs": [
        {
          "name": "newOwner",
          "type": "address"
        }
      ],
      "name": "transferOwnership",
      "outputs": [],
      "payable": false,
      "stateMutability": "nonpayable",
      "type": "function"
    },
    {
      "inputs": [
        {
          "name": "_goodwill",
          "type": "uint16"
        },
        {
          "name": "_name",
          "type": "string"
        },
        {
          "name": "_symbol",
          "type": "string"
        }
      ],
      "payable": false,
      "stateMutability": "nonpayable",
      "type": "constructor"
    },
    {
      "anonymous": false,
      "inputs": [
        {
          "indexed": true,
          "name": "previousOwner",
          "type": "address"
        },
        {
          "indexed": true,
          "name": "newOwner",
          "type": "address"
        }
      ],
      "name": "OwnershipTransferred",
      "type": "event"
    },
    {
      "constant": true,
      "inputs": [],
      "name": "getName",
      "outputs": [
        {
          "name": "",
          "type": "string"
        }
      ],
      "payable": false,
      "stateMutability": "view",
      "type": "function"
    },
    {
      "constant": true,
      "inputs": [],
      "name": "getSymbol",
      "outputs": [
        {
          "name": "",
          "type": "string"
        }
      ],
      "payable": false,
      "stateMutability": "view",
      "type": "function"
    },
    {
      "constant": false,
      "inputs": [
        {
          "name": "_FromTokenContractAddress",
          "type": "address"
        },
        {
          "name": "_pairAddress",
          "type": "address"
        },
        {
          "name": "_amount",
          "type": "uint256"
        },
        {
          "name": "_minPoolTokens",
          "type": "uint256"
        },
        {
          "name": "_allowanceTarget",
          "type": "address"
        },
        {
          "name": "_swapTarget",
          "type": "address"
        },
        {
          "name": "swapData",
          "type": "bytes"
        }
      ],
      "name": "ZapIn",
      "outputs": [
        {
          "name": "",
          "type": "uint256"
        }
      ],
      "payable": true,
      "stateMutability": "payable",
      "type": "function"
    },
    {
      "constant": false,
      "inputs": [
        {
          "name": "_new_goodwill",
          "type": "uint16"
        }
      ],
      "name": "set_new_goodwill",
      "outputs": [],
      "payable": false,
      "stateMutability": "nonpayable",
      "type": "function"
    },
    {
      "constant": false,
      "inputs": [
        {
          "name": "_TokenAddress",
          "type": "address"
        }
      ],
      "name": "inCaseTokengetsStuck",
      "outputs": [],
      "payable": false,
      "stateMutability": "nonpayable",
      "type": "function"
    },
    {
      "constant": false,
      "inputs": [],
      "name": "toggleContractActive",
      "outputs": [],
      "payable": false,
      "stateMutability": "nonpayable",
      "type": "function"
    },
    {
      "constant": false,
      "inputs": [],
      "name": "withdraw",
      "outputs": [],
      "payable": false,
      "stateMutability": "nonpayable",
      "type": "function"
    }
  ],
  "bytecode": "0x60806040526003805460ff191690553480156200001b57600080fd5b50604051620024cf380380620024cf833981018060405260608110156200004157600080fd5b8151602083018051919392830192916401000000008111156200006357600080fd5b820160208101848111156200007757600080fd5b81516401000000008111828201871017156200009257600080fd5b50509291906020018051640100000000811115620000af57600080fd5b82016020810184811115620000c357600080fd5b8151640100000000811182820187101715620000de57600080fd5b50506000805460ff1916600117815590935091506200010590506200018c602090811b901c565b60008054610100600160a81b0319166101006001600160a01b038416908102919091178255604051929350917f8be0079c531659141344cd1fd0a4f28419497f9722a3daafe3b4186f6b6457e0908290a3506003805462ffff00191661010061ffff86160217905581516200018290600190602085019062000191565b5050505062000233565b335b90565b828054600181600116156101000203166002900490600052602060002090601f016020900481019282601f10620001d457805160ff191683800117855562000204565b8280016001018555821562000204579182015b8281111562000204578251825591602001919060010190620001e7565b506200021292915062000216565b5090565b6200018e91905b808211156200021257600081556001016200021d565b61228c80620002436000396000f3fe6080604052600436106100f35760003560e01c806375f12b211161008a578063b10e1dbc11610059578063b10e1dbc146102d0578063b2bdfa7b146102fe578063bf6411b214610313578063f2fde38b146103ca576100f3565b806375f12b211461024c5780638da5cb5b146102755780638f32d59b146102a657806395d89b41146102bb576100f3565b80633ccfd60b116100c65780633ccfd60b146101c3578063551196d5146101d85780635de0398e1461020b578063715018a614610237576100f3565b806306fdde03146100f85780631385d24c14610182578063150704011461019957806317d7de7c146101ae575b600080fd5b34801561010457600080fd5b5061010d6103fd565b6040805160208082528351818301528351919283929083019185019080838360005b8381101561014757818101518382015260200161012f565b50505050905090810190601f1680156101745780820380516001836020036101000a031916815260200191505b509250505060405180910390f35b34801561018e57600080fd5b5061019761048a565b005b3480156101a557600080fd5b5061010d6104e8565b3480156101ba57600080fd5b5061010d61057b565b3480156101cf57600080fd5b506101976105db565b3480156101e457600080fd5b50610197600480360360208110156101fb57600080fd5b50356001600160a01b0316610680565b34801561021757600080fd5b5061022061076b565b6040805161ffff9092168252519081900360200190f35b34801561024357600080fd5b5061019761077a565b34801561025857600080fd5b50610261610813565b604080519115158252519081900360200190f35b34801561028157600080fd5b5061028a61081c565b604080516001600160a01b039092168252519081900360200190f35b3480156102b257600080fd5b50610261610830565b3480156102c757600080fd5b5061010d610859565b3480156102dc57600080fd5b50610197600480360360208110156102f357600080fd5b503561ffff166108b1565b34801561030a57600080fd5b5061028a610976565b6103b8600480360360e081101561032957600080fd5b6001600160a01b0382358116926020810135821692604082013592606083013592608081013582169260a08201359092169181019060e0810160c082013564010000000081111561037957600080fd5b82018360208201111561038b57600080fd5b803590602001918460018302840111640100000000831117156103ad57600080fd5b50909250905061098a565b60408051918252519081900360200190f35b3480156103d657600080fd5b50610197600480360360208110156103ed57600080fd5b50356001600160a01b0316610c80565b60018054604080516020600284861615610100026000190190941693909304601f810184900484028201840190925281815292918301828280156104825780601f1061045757610100808354040283529160200191610482565b820191906000526020600020905b81548152906001019060200180831161046557829003601f168201915b505050505081565b610492610830565b6104d45760408051600160e51b62461bcd02815260206004820181905260248201526000805160206121e1833981519152604482015290519081900360640190fd5b6003805460ff19811660ff90911615179055565b60028054604080516020601f60001961010060018716150201909416859004938401819004810282018101909252828152606093909290918301828280156105715780601f1061054657610100808354040283529160200191610571565b820191906000526020600020905b81548152906001019060200180831161055457829003601f168201915b5050505050905090565b60018054604080516020601f600260001961010087891615020190951694909404938401819004810282018101909252828152606093909290918301828280156105715780601f1061054657610100808354040283529160200191610571565b6105e3610830565b6106255760408051600160e51b62461bcd02815260206004820181905260248201526000805160206121e1833981519152604482015290519081900360640190fd5b3031600061064261063461081c565b6001600160a01b0316610cd6565b6040519091506001600160a01b0382169083156108fc029084906000818181858888f1935050505015801561067b573d6000803e3d6000fd5b505050565b610688610830565b6106ca5760408051600160e51b62461bcd02815260206004820181905260248201526000805160206121e1833981519152604482015290519081900360640190fd5b60408051600160e01b6370a0823102815230600482015290516000916001600160a01b038416916370a0823191602480820192602092909190829003018186803b15801561071757600080fd5b505afa15801561072b573d6000803e3d6000fd5b505050506040513d602081101561074157600080fd5b5051905061076761075061081c565b6001600160a01b038416908363ffffffff610cdd16565b5050565b600354610100900461ffff1681565b610782610830565b6107c45760408051600160e51b62461bcd02815260206004820181905260248201526000805160206121e1833981519152604482015290519081900360640190fd5b600080546040516101009091046001600160a01b0316907f8be0079c531659141344cd1fd0a4f28419497f9722a3daafe3b4186f6b6457e0908390a360008054610100600160a81b0319169055565b60035460ff1681565b60005461010090046001600160a01b031690565b6000805461010090046001600160a01b031661084a610d32565b6001600160a01b031614905090565b6002805460408051602060018416156101000260001901909316849004601f810184900484028201840190925281815292918301828280156104825780601f1061045757610100808354040283529160200191610482565b6108b9610830565b6108fb5760408051600160e51b62461bcd02815260206004820181905260248201526000805160206121e1833981519152604482015290519081900360640190fd5b6127108161ffff16106109585760408051600160e51b62461bcd02815260206004820152601a60248201527f476f6f6457696c6c2056616c7565206e6f7420616c6c6f776564000000000000604482015290519081900360640190fd5b6003805461ffff9092166101000262ffff0019909216919091179055565b60005461010090046001600160a01b031681565b6000805460ff166109e55760408051600160e51b62461bcd02815260206004820152601f60248201527f5265656e7472616e637947756172643a207265656e7472616e742063616c6c00604482015290519081900360640190fd5b6000805460ff1916905560035460ff1615610a4a5760408051600160e51b62461bcd02815260206004820152601260248201527f54656d706f726172696c79205061757365640000000000000000000000000000604482015290519081900360640190fd5b60006001600160a01b038a16610ab95760003411610ab25760408051600160e51b62461bcd02815260206004820152601360248201527f4572726f723a20455448206e6f742073656e7400000000000000000000000000604482015290519081900360640190fd5b5034610b85565b3415610b0f5760408051600160e51b62461bcd02815260206004820152600f60248201527f4572726f723a204554482073656e740000000000000000000000000000000000604482015290519081900360640190fd5b60008811610b675760408051600160e51b62461bcd02815260206004820152601960248201527f4572726f723a20496e76616c69642045524320616d6f756e7400000000000000604482015290519081900360640190fd5b610b826001600160a01b038b1633308b63ffffffff610d3616565b50865b6000610bcb8b8b848a8a8a8a8080601f016020809104026020016040519081016040528093929190818152602001838380828437600092019190915250610d9992505050565b905087811015610c255760408051600160e51b62461bcd02815260206004820152601260248201527f4552523a204869676820536c6970706167650000000000000000000000000000604482015290519081900360640190fd5b6000610c318b83610e36565b9050610c5833610c418484610e9f565b6001600160a01b038e16919063ffffffff610cdd16565b610c628282610e9f565b93505050506000805460ff1916600117905598975050505050505050565b610c88610830565b610cca5760408051600160e51b62461bcd02815260206004820181905260248201526000805160206121e1833981519152604482015290519081900360640190fd5b610cd381610ee8565b50565b805b919050565b604080516001600160a01b038416602482015260448082018490528251808303909101815260649091019091526020810180516001600160e01b0316600160e01b63a9059cbb0217905261067b908490610f96565b3390565b604080516001600160a01b0385811660248301528416604482015260648082018490528251808303909101815260849091019091526020810180516001600160e01b0316600160e01b6323b872dd02179052610d93908590610f96565b50505050565b6000806000806000610daa8a611157565b91509150816001600160a01b03168b6001600160a01b031614158015610de25750806001600160a01b03168b6001600160a01b031614155b15610dff57610df58b8b8b8b8b8b611240565b9094509250610e06565b8a92508893505b600080610e158585858961161a565b91509150610e2584848484611803565b9d9c50505050505050505050505050565b600354600090610e5c90610e54908490610100900461ffff16611a2c565b612710611a88565b905080610e6b57506000610e99565b610e996001600160a01b03841673e737b6afec2320f616297e59445b60a11e3ef75f8363ffffffff610cdd16565b92915050565b6000610ee183836040518060400160405280601e81526020017f536166654d6174683a207375627472616374696f6e206f766572666c6f770000815250611aca565b9392505050565b6001600160a01b038116610f3057604051600160e51b62461bcd02815260040180806020018281038252602681526020018061219a6026913960400191505060405180910390fd5b600080546040516001600160a01b038085169361010090930416917f8be0079c531659141344cd1fd0a4f28419497f9722a3daafe3b4186f6b6457e091a3600080546001600160a01b0390921661010002610100600160a81b0319909216919091179055565b610fa8826001600160a01b0316611b64565b610ffc5760408051600160e51b62461bcd02815260206004820152601f60248201527f5361666545524332303a2063616c6c20746f206e6f6e2d636f6e747261637400604482015290519081900360640190fd5b60006060836001600160a01b0316836040518082805190602001908083835b6020831061103a5780518252601f19909201916020918201910161101b565b6001836020036101000a0380198251168184511680821785525050505050509050019150506000604051808303816000865af19150503d806000811461109c576040519150601f19603f3d011682016040523d82523d6000602084013e6110a1565b606091505b5091509150816110fb5760408051600160e51b62461bcd02815260206004820181905260248201527f5361666545524332303a206c6f772d6c6576656c2063616c6c206661696c6564604482015290519081900360640190fd5b805115610d935780806020019051602081101561111757600080fd5b5051610d9357604051600160e51b62461bcd02815260040180806020018281038252602a815260200180612201602a913960400191505060405180910390fd5b6000806000839050806001600160a01b0316630dfe16816040518163ffffffff1660e01b815260040160206040518083038186803b15801561119857600080fd5b505afa1580156111ac573d6000803e3d6000fd5b505050506040513d60208110156111c257600080fd5b505160408051600160e01b63d21220a702815290519194506001600160a01b0383169163d21220a791600480820192602092909190829003018186803b15801561120b57600080fd5b505afa15801561121f573d6000803e3d6000fd5b505050506040513d602081101561123557600080fd5b505192949293505050565b600080806001600160a01b038916611259575085611291565b886112756001600160a01b03821688600063ffffffff611ba016565b61128f6001600160a01b038216888a63ffffffff611ba016565b505b60008061129d8a611157565b60408051600160e01b6370a082310281523060048201529051929450909250839183916000916001600160a01b038516916370a08231916024808301926020929190829003018186803b1580156112f357600080fd5b505afa158015611307573d6000803e3d6000fd5b505050506040513d602081101561131d57600080fd5b505160408051600160e01b6370a0823102815230600482015290519192506000916001600160a01b038516916370a08231916024808301926020929190829003018186803b15801561136e57600080fd5b505afa158015611382573d6000803e3d6000fd5b505050506040513d602081101561139857600080fd5b50516040518b519192506000916001600160a01b038e16918a918e9190819060208401908083835b602083106113df5780518252601f1990920191602091820191016113c0565b6001836020036101000a03801982511681845116808217855250505050505090500191505060006040518083038185875af1925050503d8060008114611441576040519150601f19603f3d011682016040523d82523d6000602084013e611446565b606091505b505090508061149f5760408051600160e51b62461bcd02815260206004820152601760248201527f4572726f72205377617070696e6720546f6b656e732031000000000000000000604482015290519081900360640190fd5b600061153384876001600160a01b03166370a08231306040518263ffffffff1660e01b815260040180826001600160a01b03166001600160a01b0316815260200191505060206040518083038186803b1580156114fb57600080fd5b505afa15801561150f573d6000803e3d6000fd5b505050506040513d602081101561152557600080fd5b50519063ffffffff610e9f16565b9050600061159184876001600160a01b03166370a08231306040518263ffffffff1660e01b815260040180826001600160a01b03166001600160a01b0316815260200191505060206040518083038186803b1580156114fb57600080fd5b9050808211156115a657819b50889a506115ad565b809b50879a505b60008c116116055760408051600160e51b62461bcd02815260206004820152601f60248201527f5377617070656420746f20496e76616c696420496e7465726d65646961746500604482015290519081900360640190fd5b50505050505050505050965096945050505050565b60408051600160e01b63e6a439050281526001600160a01b03858116600483015284166024820152905160009182918291735c69bee701ef814a2b6a3edd4b1652cb9cc5aa6f9163e6a4390591604480820192602092909190829003018186803b15801561168757600080fd5b505afa15801561169b573d6000803e3d6000fd5b505050506040513d60208110156116b157600080fd5b505160408051600160e21b630240bc6b028152905191925060009182916001600160a01b03851691630902f1ac91600480820192606092909190829003018186803b1580156116ff57600080fd5b505afa158015611713573d6000803e3d6000fd5b505050506040513d606081101561172957600080fd5b5080516020909101516dffffffffffffffffffffffffffff91821693501690506001600160a01b0389811690891614156117ac5760006117698388611cbc565b9050600081116117875761178487600263ffffffff611a8816565b90505b6117928a8983611d30565b94506117a4878263ffffffff610e9f16565b9550506117f7565b60006117b88288611cbc565b9050600081116117d6576117d387600263ffffffff611a8816565b90505b6117e18a8a83611d30565b95506117f3878263ffffffff610e9f16565b9450505b50505094509492505050565b60006118336001600160a01b038616737a250d5630b4cf539739df2c5dacb4c659f2488d8363ffffffff611ba016565b6118626001600160a01b038516737a250d5630b4cf539739df2c5dacb4c659f2488d600063ffffffff611ba016565b6118906001600160a01b038616737a250d5630b4cf539739df2c5dacb4c659f2488d8563ffffffff611ba016565b6118be6001600160a01b038516737a250d5630b4cf539739df2c5dacb4c659f2488d8463ffffffff611ba016565b60408051600160e81b62e8e3370281526001600160a01b03878116600483015286166024820152604481018590526064810184905260016084820181905260a48201523060c4820152600160fc1b600f0260e4820152905160009182918291737a250d5630b4cf539739df2c5dacb4c659f2488d9163e8e33700916101048082019260609290919082900301818787803b15801561195b57600080fd5b505af115801561196f573d6000803e3d6000fd5b505050506040513d606081101561198557600080fd5b5080516020820151604090920151909450909250905060006119ad878563ffffffff610e9f16565b11156119de576119de336119c7888663ffffffff610e9f16565b6001600160a01b038b16919063ffffffff610cdd16565b60006119f0868463ffffffff610e9f16565b1115611a2157611a2133611a0a878563ffffffff610e9f16565b6001600160a01b038a16919063ffffffff610cdd16565b979650505050505050565b600082611a3b57506000610e99565b82820282848281611a4857fe5b0414610ee157604051600160e51b62461bcd0281526004018080602001828103825260218152602001806121c06021913960400191505060405180910390fd5b6000610ee183836040518060400160405280601a81526020017f536166654d6174683a206469766973696f6e206279207a65726f0000000000008152506120e0565b60008184841115611b5c57604051600160e51b62461bcd0281526004018080602001828103825283818151815260200191508051906020019080838360005b83811015611b21578181015183820152602001611b09565b50505050905090810190601f168015611b4e5780820380516001836020036101000a031916815260200191505b509250505060405180910390fd5b505050900390565b6000813f7fc5d2460186f7233c927e7db2dcc703c0e500b653ca82273b7bfad8045d85a470818114801590611b9857508115155b949350505050565b801580611c29575060408051600160e11b636eb1769f0281523060048201526001600160a01b03848116602483015291519185169163dd62ed3e91604480820192602092909190829003018186803b158015611bfb57600080fd5b505afa158015611c0f573d6000803e3d6000fd5b505050506040513d6020811015611c2557600080fd5b5051155b611c6757604051600160e51b62461bcd02815260040180806020018281038252603681526020018061222b6036913960400191505060405180910390fd5b604080516001600160a01b038416602482015260448082018490528251808303909101815260649091019091526020810180516001600160e01b0316600160e01b63095ea7b30217905261067b908490610f96565b60006107ca611d21611cd6856107cd63ffffffff611a2c16565b611d15611d10611cef88623cda2963ffffffff611a2c16565b611d0288623cda2063ffffffff611a2c16565b89910163ffffffff611a2c16565b612148565b9063ffffffff610e9f16565b81611d2857fe5b049392505050565b6000826001600160a01b0316846001600160a01b03161415611d53575080610ee1565b611d826001600160a01b038516737a250d5630b4cf539739df2c5dacb4c659f2488d600063ffffffff611ba016565b611db06001600160a01b038516737a250d5630b4cf539739df2c5dacb4c659f2488d8463ffffffff611ba016565b60408051600160e01b63e6a439050281526001600160a01b038681166004830152851660248201529051600091735c69bee701ef814a2b6a3edd4b1652cb9cc5aa6f9163e6a4390591604480820192602092909190829003018186803b158015611e1957600080fd5b505afa158015611e2d573d6000803e3d6000fd5b505050506040513d6020811015611e4357600080fd5b505190506001600160a01b038116611ea55760408051600160e51b62461bcd02815260206004820152601160248201527f4e6f205377617020417661696c61626c65000000000000000000000000000000604482015290519081900360640190fd5b60408051600280825260608083018452926020830190803883390190505090508581600081518110611ed357fe5b60200260200101906001600160a01b031690816001600160a01b0316815250508481600181518110611f0157fe5b6001600160a01b03909216602092830291909101820152604051600160e01b6338ed1739028152600481018681526001602483018190523060648401819052600160fc1b600f026084850181905260a060448601908152875160a48701528751737a250d5630b4cf539739df2c5dacb4c659f2488d976338ed1739978d978b9695949093909260c490920191878101910280838360005b83811015611fb0578181015183820152602001611f98565b505050509050019650505050505050600060405180830381600087803b158015611fd957600080fd5b505af1158015611fed573d6000803e3d6000fd5b505050506040513d6000823e601f3d908101601f19168201604052602081101561201657600080fd5b81019080805164010000000081111561202e57600080fd5b8201602081018481111561204157600080fd5b815185602082028301116401000000008211171561205e57600080fd5b505092919050505060018251038151811061207557fe5b60200260200101519250600083116120d75760408051600160e51b62461bcd02815260206004820152601760248201527f4572726f72205377617070696e6720546f6b656e732032000000000000000000604482015290519081900360640190fd5b50509392505050565b6000818361213257604051600160e51b62461bcd028152602060048201818152835160248401528351909283926044909101919085019080838360008315611b21578181015183820152602001611b09565b50600083858161213e57fe5b0495945050505050565b6000600382111561218b575080600160028204015b818110156121855780915060028182858161217457fe5b04018161217d57fe5b04905061215d565b50610cd8565b8115610cd85750600191905056fe4f776e61626c653a206e6577206f776e657220697320746865207a65726f2061646472657373536166654d6174683a206d756c7469706c69636174696f6e206f766572666c6f774f776e61626c653a2063616c6c6572206973206e6f7420746865206f776e65725361666545524332303a204552433230206f7065726174696f6e20646964206e6f7420737563636565645361666545524332303a20617070726f76652066726f6d206e6f6e2d7a65726f20746f206e6f6e2d7a65726f20616c6c6f77616e6365a165627a7a72305820aa20564870ececea9d04ec5673145a4aaeed4c9ae9006724ffc465f34ecb98180029",
  "source": "/**\r\n *Submitted for verification at Etherscan.io on 2021-01\r\n*/\r\n\r\n///@author Parabellum Development Team\r\n// SPDX-License-Identifier: GPLv2\r\n\r\npragma solidity 0.5.7;\r\n\r\n/**\r\n * @dev Interface of the ERC20 standard as defined in the EIP. Does not include\r\n * the optional functions; to access them see {ERC20Detailed}.\r\n */\r\ninterface IERC20 {\r\n    /**\r\n     * @dev Returns the amount of tokens in existence.\r\n     */\r\n    function totalSupply() external view returns (uint256);\r\n\r\n    /**\r\n     * @dev Returns the amount of tokens owned by `account`.\r\n     */\r\n    function balanceOf(address account) external view returns (uint256);\r\n\r\n    /**\r\n     * @dev Moves `amount` tokens from the caller's account to `recipient`.\r\n     *\r\n     * Returns a boolean value indicating whether the operation succeeded.\r\n     *\r\n     * Emits a {Transfer} event.\r\n     */\r\n    function transfer(address recipient, uint256 amount)\r\n        external\r\n        returns (bool);\r\n\r\n    /**\r\n     * @dev Returns the remaining number of tokens that `spender` will be\r\n     * allowed to spend on behalf of `owner` through {transferFrom}. This is\r\n     * zero by default.\r\n     *\r\n     * This value changes when {approve} or {transferFrom} are called.\r\n     */\r\n    function allowance(address owner, address spender)\r\n        external\r\n        view\r\n        returns (uint256);\r\n\r\n    /**\r\n     * @dev Sets `amount` as the allowance of `spender` over the caller's tokens.\r\n     *\r\n     * Returns a boolean value indicating whether the operation succeeded.\r\n     *\r\n     * IMPORTANT: Beware that changing an allowance with this method brings the risk\r\n     * that someone may use both the old and the new allowance by unfortunate\r\n     * transaction ordering. One possible solution to mitigate this race\r\n     * condition is to first reduce the spender's allowance to 0 and set the\r\n     * desired value afterwards:\r\n     * https://github.com/ethereum/EIPs/issues/20#issuecomment-263524729\r\n     *\r\n     * Emits an {Approval} event.\r\n     */\r\n    function approve(address spender, uint256 amount) external returns (bool);\r\n\r\n    /**\r\n     * @dev Moves `amount` tokens from `sender` to `recipient` using the\r\n     * allowance mechanism. `amount` is then deducted from the caller's\r\n     * allowance.\r\n     *\r\n     * Returns a boolean value indicating whether the operation succeeded.\r\n     *\r\n     * Emits a {Transfer} event.\r\n     */\r\n    function transferFrom(\r\n        address sender,\r\n        address recipient,\r\n        uint256 amount\r\n    ) external returns (bool);\r\n\r\n    /**\r\n     * @dev Emitted when `value` tokens are moved from one account (`from`) to\r\n     * another (`to`).\r\n     *\r\n     * Note that `value` may be zero.\r\n     */\r\n    event Transfer(address indexed from, address indexed to, uint256 value);\r\n\r\n    /**\r\n     * @dev Emitted when the allowance of a `spender` for an `owner` is set by\r\n     * a call to {approve}. `value` is the new allowance.\r\n     */\r\n    event Approval(\r\n        address indexed owner,\r\n        address indexed spender,\r\n        uint256 value\r\n    );\r\n}\r\n\r\n/**\r\n * @dev Wrappers over Solidity's arithmetic operations with added overflow\r\n * checks.\r\n *\r\n * Arithmetic operations in Solidity wrap on overflow. This can easily result\r\n * in bugs, because programmers usually assume that an overflow raises an\r\n * error, which is the standard behavior in high level programming languages.\r\n * `SafeMath` restores this intuition by reverting the transaction when an\r\n * operation overflows.\r\n *\r\n * Using this library instead of the unchecked operations eliminates an entire\r\n * class of bugs, so it's recommended to use it always.\r\n */\r\nlibrary SafeMath {\r\n    /**\r\n     * @dev Returns the addition of two unsigned integers, reverting on\r\n     * overflow.\r\n     *\r\n     * Counterpart to Solidity's `+` operator.\r\n     *\r\n     * Requirements:\r\n     * - Addition cannot overflow.\r\n     */\r\n    function add(uint256 a, uint256 b) internal pure returns (uint256) {\r\n        uint256 c = a + b;\r\n        require(c >= a, \"SafeMath: addition overflow\");\r\n\r\n        return c;\r\n    }\r\n\r\n    /**\r\n     * @dev Returns the subtraction of two unsigned integers, reverting on\r\n     * overflow (when the result is negative).\r\n     *\r\n     * Counterpart to Solidity's `-` operator.\r\n     *\r\n     * Requirements:\r\n     * - Subtraction cannot overflow.\r\n     */\r\n    function sub(uint256 a, uint256 b) internal pure returns (uint256) {\r\n        return sub(a, b, \"SafeMath: subtraction overflow\");\r\n    }\r\n\r\n    /**\r\n     * @dev Returns the subtraction of two unsigned integers, reverting with custom message on\r\n     * overflow (when the result is negative).\r\n     *\r\n     * Counterpart to Solidity's `-` operator.\r\n     *\r\n     * Requirements:\r\n     * - Subtraction cannot overflow.\r\n     *\r\n     * _Available since v2.4.0._\r\n     */\r\n    function sub(\r\n        uint256 a,\r\n        uint256 b,\r\n        string memory errorMessage\r\n    ) internal pure returns (uint256) {\r\n        require(b <= a, errorMessage);\r\n        uint256 c = a - b;\r\n\r\n        return c;\r\n    }\r\n\r\n    /**\r\n     * @dev Returns the multiplication of two unsigned integers, reverting on\r\n     * overflow.\r\n     *\r\n     * Counterpart to Solidity's `*` operator.\r\n     *\r\n     * Requirements:\r\n     * - Multiplication cannot overflow.\r\n     */\r\n    function mul(uint256 a, uint256 b) internal pure returns (uint256) {\r\n        // Gas optimization: this is cheaper than requiring 'a' not being zero, but the\r\n        // benefit is lost if 'b' is also tested.\r\n        // See: https://github.com/OpenZeppelin/openzeppelin-contracts/pull/522\r\n        if (a == 0) {\r\n            return 0;\r\n        }\r\n\r\n        uint256 c = a * b;\r\n        require(c / a == b, \"SafeMath: multiplication overflow\");\r\n\r\n        return c;\r\n    }\r\n\r\n    /**\r\n     * @dev Returns the integer division of two unsigned integers. Reverts on\r\n     * division by zero. The result is rounded towards zero.\r\n     *\r\n     * Counterpart to Solidity's `/` operator. Note: this function uses a\r\n     * `revert` opcode (which leaves remaining gas untouched) while Solidity\r\n     * uses an invalid opcode to revert (consuming all remaining gas).\r\n     *\r\n     * Requirements:\r\n     * - The divisor cannot be zero.\r\n     */\r\n    function div(uint256 a, uint256 b) internal pure returns (uint256) {\r\n        return div(a, b, \"SafeMath: division by zero\");\r\n    }\r\n\r\n    /**\r\n     * @dev Returns the integer division of two unsigned integers. Reverts with custom message on\r\n     * division by zero. The result is rounded towards zero.\r\n     *\r\n     * Counterpart to Solidity's `/` operator. Note: this function uses a\r\n     * `revert` opcode (which leaves remaining gas untouched) while Solidity\r\n     * uses an invalid opcode to revert (consuming all remaining gas).\r\n     *\r\n     * Requirements:\r\n     * - The divisor cannot be zero.\r\n     *\r\n     * _Available since v2.4.0._\r\n     */\r\n    function div(\r\n        uint256 a,\r\n        uint256 b,\r\n        string memory errorMessage\r\n    ) internal pure returns (uint256) {\r\n        // Solidity only automatically asserts when dividing by 0\r\n        require(b > 0, errorMessage);\r\n        uint256 c = a / b;\r\n        // assert(a == b * c + a % b); // There is no case in which this doesn't hold\r\n\r\n        return c;\r\n    }\r\n\r\n    /**\r\n     * @dev Returns the remainder of dividing two unsigned integers. (unsigned integer modulo),\r\n     * Reverts when dividing by zero.\r\n     *\r\n     * Counterpart to Solidity's `%` operator. This function uses a `revert`\r\n     * opcode (which leaves remaining gas untouched) while Solidity uses an\r\n     * invalid opcode to revert (consuming all remaining gas).\r\n     *\r\n     * Requirements:\r\n     * - The divisor cannot be zero.\r\n     */\r\n    function mod(uint256 a, uint256 b) internal pure returns (uint256) {\r\n        return mod(a, b, \"SafeMath: modulo by zero\");\r\n    }\r\n\r\n    /**\r\n     * @dev Returns the remainder of dividing two unsigned integers. (unsigned integer modulo),\r\n     * Reverts with custom message when dividing by zero.\r\n     *\r\n     * Counterpart to Solidity's `%` operator. This function uses a `revert`\r\n     * opcode (which leaves remaining gas untouched) while Solidity uses an\r\n     * invalid opcode to revert (consuming all remaining gas).\r\n     *\r\n     * Requirements:\r\n     * - The divisor cannot be zero.\r\n     *\r\n     * _Available since v2.4.0._\r\n     */\r\n    function mod(\r\n        uint256 a,\r\n        uint256 b,\r\n        string memory errorMessage\r\n    ) internal pure returns (uint256) {\r\n        require(b != 0, errorMessage);\r\n        return a % b;\r\n    }\r\n}\r\n\r\n/**\r\n * @dev Collection of functions related to the address type\r\n */\r\nlibrary Address {\r\n    /**\r\n     * @dev Returns true if `account` is a contract.\r\n     *\r\n     * [IMPORTANT]\r\n     * ====\r\n     * It is unsafe to assume that an address for which this function returns\r\n     * false is an externally-owned account (EOA) and not a contract.\r\n     *\r\n     * Among others, `isContract` will return false for the following\r\n     * types of addresses:\r\n     *\r\n     *  - an externally-owned account\r\n     *  - a contract in construction\r\n     *  - an address where a contract will be created\r\n     *  - an address where a contract lived, but was destroyed\r\n     * ====\r\n     */\r\n    function isContract(address account) internal view returns (bool) {\r\n        // According to EIP-1052, 0x0 is the value returned for not-yet created accounts\r\n        // and 0xc5d2460186f7233c927e7db2dcc703c0e500b653ca82273b7bfad8045d85a470 is returned\r\n        // for accounts without code, i.e. `keccak256('')`\r\n        bytes32 codehash;\r\n\r\n\r\n            bytes32 accountHash\r\n         = 0xc5d2460186f7233c927e7db2dcc703c0e500b653ca82273b7bfad8045d85a470;\r\n        // solhint-disable-next-line no-inline-assembly\r\n        assembly {\r\n            codehash := extcodehash(account)\r\n        }\r\n        return (codehash != accountHash && codehash != 0x0);\r\n    }\r\n\r\n    /**\r\n     * @dev Converts an `address` into `address payable`. Note that this is\r\n     * simply a type cast: the actual underlying value is not changed.\r\n     *\r\n     * _Available since v2.4.0._\r\n     */\r\n    function toPayable(address account)\r\n        internal\r\n        pure\r\n        returns (address payable)\r\n    {\r\n        return address(uint160(account));\r\n    }\r\n\r\n    /**\r\n     * @dev Replacement for Solidity's `transfer`: sends `amount` wei to\r\n     * `recipient`, forwarding all available gas and reverting on errors.\r\n     *\r\n     * https://eips.ethereum.org/EIPS/eip-1884[EIP1884] increases the gas cost\r\n     * of certain opcodes, possibly making contracts go over the 2300 gas limit\r\n     * imposed by `transfer`, making them unable to receive funds via\r\n     * `transfer`. {sendValue} removes this limitation.\r\n     *\r\n     * https://diligence.consensys.net/posts/2019/09/stop-using-soliditys-transfer-now/[Learn more].\r\n     *\r\n     * IMPORTANT: because control is transferred to `recipient`, care must be\r\n     * taken to not create reentrancy vulnerabilities. Consider using\r\n     * {ReentrancyGuard} or the\r\n     * https://solidity.readthedocs.io/en/v0.5.11/security-considerations.html#use-the-checks-effects-interactions-pattern[checks-effects-interactions pattern].\r\n     *\r\n     * _Available since v2.4.0._\r\n     */\r\n    function sendValue(address payable recipient, uint256 amount) internal {\r\n        require(\r\n            address(this).balance >= amount,\r\n            \"Address: insufficient balance\"\r\n        );\r\n\r\n        // solhint-disable-next-line avoid-call-value\r\n        (bool success, ) = recipient.call.value(amount)(\"\");\r\n        require(\r\n            success,\r\n            \"Address: unable to send value, recipient may have reverted\"\r\n        );\r\n    }\r\n}\r\n\r\n/**\r\n * @title SafeERC20\r\n * @dev Wrappers around ERC20 operations that throw on failure (when the token\r\n * contract returns false). Tokens that return no value (and instead revert or\r\n * throw on failure) are also supported, non-reverting calls are assumed to be\r\n * successful.\r\n * To use this library you can add a `using SafeERC20 for ERC20;` statement to your contract,\r\n * which allows you to call the safe operations as `token.safeTransfer(...)`, etc.\r\n */\r\nlibrary SafeERC20 {\r\n    using SafeMath for uint256;\r\n    using Address for address;\r\n\r\n    function safeTransfer(\r\n        IERC20 token,\r\n        address to,\r\n        uint256 value\r\n    ) internal {\r\n        callOptionalReturn(\r\n            token,\r\n            abi.encodeWithSelector(token.transfer.selector, to, value)\r\n        );\r\n    }\r\n\r\n    function safeTransferFrom(\r\n        IERC20 token,\r\n        address from,\r\n        address to,\r\n        uint256 value\r\n    ) internal {\r\n        callOptionalReturn(\r\n            token,\r\n            abi.encodeWithSelector(token.transferFrom.selector, from, to, value)\r\n        );\r\n    }\r\n\r\n    function safeApprove(\r\n        IERC20 token,\r\n        address spender,\r\n        uint256 value\r\n    ) internal {\r\n        // safeApprove should only be called when setting an initial allowance,\r\n        // or when resetting it to zero. To increase and decrease it, use\r\n        // 'safeIncreaseAllowance' and 'safeDecreaseAllowance'\r\n        // solhint-disable-next-line max-line-length\r\n        require(\r\n            (value == 0) || (token.allowance(address(this), spender) == 0),\r\n            \"SafeERC20: approve from non-zero to non-zero allowance\"\r\n        );\r\n        callOptionalReturn(\r\n            token,\r\n            abi.encodeWithSelector(token.approve.selector, spender, value)\r\n        );\r\n    }\r\n\r\n    function safeIncreaseAllowance(\r\n        IERC20 token,\r\n        address spender,\r\n        uint256 value\r\n    ) internal {\r\n        uint256 newAllowance = token.allowance(address(this), spender).add(\r\n            value\r\n        );\r\n        callOptionalReturn(\r\n            token,\r\n            abi.encodeWithSelector(\r\n                token.approve.selector,\r\n                spender,\r\n                newAllowance\r\n            )\r\n        );\r\n    }\r\n\r\n    function safeDecreaseAllowance(\r\n        IERC20 token,\r\n        address spender,\r\n        uint256 value\r\n    ) internal {\r\n        uint256 newAllowance = token.allowance(address(this), spender).sub(\r\n            value,\r\n            \"SafeERC20: decreased allowance below zero\"\r\n        );\r\n        callOptionalReturn(\r\n            token,\r\n            abi.encodeWithSelector(\r\n                token.approve.selector,\r\n                spender,\r\n                newAllowance\r\n            )\r\n        );\r\n    }\r\n\r\n    /**\r\n     * @dev Imitates a Solidity high-level call (i.e. a regular function call to a contract), relaxing the requirement\r\n     * on the return value: the return value is optional (but if data is returned, it must not be false).\r\n     * @param token The token targeted by the call.\r\n     * @param data The call data (encoded using abi.encode or one of its variants).\r\n     */\r\n    function callOptionalReturn(IERC20 token, bytes memory data) private {\r\n        // We need to perform a low level call here, to bypass Solidity's return data size checking mechanism, since\r\n        // we're implementing it ourselves.\r\n\r\n        // A Solidity high level call has three parts:\r\n        //  1. The target address is checked to verify it contains contract code\r\n        //  2. The call itself is made, and success asserted\r\n        //  3. The return value is decoded, which in turn checks the size of the returned data.\r\n        // solhint-disable-next-line max-line-length\r\n        require(address(token).isContract(), \"SafeERC20: call to non-contract\");\r\n\r\n        // solhint-disable-next-line avoid-low-level-calls\r\n        (bool success, bytes memory returndata) = address(token).call(data);\r\n        require(success, \"SafeERC20: low-level call failed\");\r\n\r\n        if (returndata.length > 0) {\r\n            // Return data is optional\r\n            // solhint-disable-next-line max-line-length\r\n            require(\r\n                abi.decode(returndata, (bool)),\r\n                \"SafeERC20: ERC20 operation did not succeed\"\r\n            );\r\n        }\r\n    }\r\n}\r\n\r\n/**\r\n * @dev Contract module that helps prevent reentrant calls to a function.\r\n *\r\n * Inheriting from `ReentrancyGuard` will make the {nonReentrant} modifier\r\n * available, which can be applied to functions to make sure there are no nested\r\n * (reentrant) calls to them.\r\n *\r\n * Note that because there is a single `nonReentrant` guard, functions marked as\r\n * `nonReentrant` may not call one another. This can be worked around by making\r\n * those functions `private`, and then adding `external` `nonReentrant` entry\r\n * points to them.\r\n *\r\n * _Since v2.5.0:_ this module is now much more gas efficient, given net gas\r\n * metering changes introduced in the Istanbul hardfork.\r\n */\r\ncontract ReentrancyGuard {\r\n    bool private _notEntered;\r\n\r\n    constructor() internal {\r\n        // Storing an initial non-zero value makes deployment a bit more\r\n        // expensive, but in exchange the refund on every call to nonReentrant\r\n        // will be lower in amount. Since refunds are capped to a percetange of\r\n        // the total transaction's gas, it is best to keep them low in cases\r\n        // like this one, to increase the likelihood of the full refund coming\r\n        // into effect.\r\n        _notEntered = true;\r\n    }\r\n\r\n    /**\r\n     * @dev Prevents a contract from calling itself, directly or indirectly.\r\n     * Calling a `nonReentrant` function from another `nonReentrant`\r\n     * function is not supported. It is possible to prevent this from happening\r\n     * by making the `nonReentrant` function external, and make it call a\r\n     * `private` function that does the actual work.\r\n     */\r\n    modifier nonReentrant() {\r\n        // On the first call to nonReentrant, _notEntered will be true\r\n        require(_notEntered, \"ReentrancyGuard: reentrant call\");\r\n\r\n        // Any calls to nonReentrant after this point will fail\r\n        _notEntered = false;\r\n\r\n        _;\r\n\r\n        // By storing the original value once again, a refund is triggered (see\r\n        // https://eips.ethereum.org/EIPS/eip-2200)\r\n        _notEntered = true;\r\n    }\r\n}\r\n\r\n/*\r\n * @dev Provides information about the current execution context, including the\r\n * sender of the transaction and its data. While these are generally available\r\n * via msg.sender and msg.data, they should not be accessed in such a direct\r\n * manner, since when dealing with GSN meta-transactions the account sending and\r\n * paying for execution may not be the actual sender (as far as an application\r\n * is concerned).\r\n *\r\n * This contract is only required for intermediate, library-like contracts.\r\n */\r\ncontract Context {\r\n    // Empty internal constructor, to prevent people from mistakenly deploying\r\n    // an instance of this contract, which should be used via inheritance.\r\n    constructor() internal {}\r\n\r\n    // solhint-disable-previous-line no-empty-blocks\r\n\r\n    function _msgSender() internal view returns (address payable) {\r\n        return msg.sender;\r\n    }\r\n\r\n    function _msgData() internal view returns (bytes memory) {\r\n        this; // silence state mutability warning without generating bytecode - see https://github.com/ethereum/solidity/issues/2691\r\n        return msg.data;\r\n    }\r\n}\r\n\r\n/**\r\n * @dev Contract module which provides a basic access control mechanism, where\r\n * there is an account (an owner) that can be granted exclusive access to\r\n * specific functions.\r\n *\r\n * This module is used through inheritance. It will make available the modifier\r\n * `onlyOwner`, which can be applied to your functions to restrict their use to\r\n * the owner.\r\n */\r\ncontract Ownable is Context {\r\n    address payable public _owner;\r\n\r\n    event OwnershipTransferred(\r\n        address indexed previousOwner,\r\n        address indexed newOwner\r\n    );\r\n\r\n    /**\r\n     * @dev Initializes the contract setting the deployer as the initial owner.\r\n     */\r\n    constructor() internal {\r\n        address payable msgSender = _msgSender();\r\n        _owner = msgSender;\r\n        emit OwnershipTransferred(address(0), msgSender);\r\n    }\r\n\r\n    /**\r\n     * @dev Returns the address of the current owner.\r\n     */\r\n    function owner() public view returns (address) {\r\n        return _owner;\r\n    }\r\n\r\n    /**\r\n     * @dev Throws if called by any account other than the owner.\r\n     */\r\n    modifier onlyOwner() {\r\n        require(isOwner(), \"Ownable: caller is not the owner\");\r\n        _;\r\n    }\r\n\r\n    /**\r\n     * @dev Returns true if the caller is the current owner.\r\n     */\r\n    function isOwner() public view returns (bool) {\r\n        return _msgSender() == _owner;\r\n    }\r\n\r\n    /**\r\n     * @dev Leaves the contract without owner. It will not be possible to call\r\n     * `onlyOwner` functions anymore. Can only be called by the current owner.\r\n     *\r\n     * NOTE: Renouncing ownership will leave the contract without an owner,\r\n     * thereby removing any functionality that is only available to the owner.\r\n     */\r\n    function renounceOwnership() public onlyOwner {\r\n        emit OwnershipTransferred(_owner, address(0));\r\n        _owner = address(0);\r\n    }\r\n\r\n    /**\r\n     * @dev Transfers ownership of the contract to a new account (`newOwner`).\r\n     * Can only be called by the current owner.\r\n     */\r\n    function transferOwnership(address payable newOwner) public onlyOwner {\r\n        _transferOwnership(newOwner);\r\n    }\r\n\r\n    /**\r\n     * @dev Transfers ownership of the contract to a new account (`newOwner`).\r\n     */\r\n    function _transferOwnership(address payable newOwner) internal {\r\n        require(\r\n            newOwner != address(0),\r\n            \"Ownable: new owner is the zero address\"\r\n        );\r\n        emit OwnershipTransferred(_owner, newOwner);\r\n        _owner = newOwner;\r\n    }\r\n}\r\n\r\n// import \"@uniswap/lib/contracts/libraries/Babylonian.sol\";\r\nlibrary Babylonian {\r\n    function sqrt(uint256 y) internal pure returns (uint256 z) {\r\n        if (y > 3) {\r\n            z = y;\r\n            uint256 x = y / 2 + 1;\r\n            while (x < z) {\r\n                z = x;\r\n                x = (y / x + x) / 2;\r\n            }\r\n        } else if (y != 0) {\r\n            z = 1;\r\n        }\r\n        // else z = 0\r\n    }\r\n}\r\n\r\ninterface IWETH {\r\n    function deposit() external payable;\r\n\r\n    function transfer(address to, uint256 value) external returns (bool);\r\n\r\n    function withdraw(uint256) external;\r\n}\r\n\r\ninterface IUniswapV2Factory {\r\n    function getPair(address tokenA, address tokenB)\r\n        external\r\n        view\r\n        returns (address);\r\n}\r\n\r\ninterface IUniswapV2Router02 {\r\n    function factory() external pure returns (address);\r\n\r\n    function WETH() external pure returns (address);\r\n\r\n    function addLiquidity(\r\n        address tokenA,\r\n        address tokenB,\r\n        uint256 amountADesired,\r\n        uint256 amountBDesired,\r\n        uint256 amountAMin,\r\n        uint256 amountBMin,\r\n        address to,\r\n        uint256 deadline\r\n    )\r\n        external\r\n        returns (\r\n            uint256 amountA,\r\n            uint256 amountB,\r\n            uint256 liquidity\r\n        );\r\n\r\n    function addLiquidityETH(\r\n        address token,\r\n        uint256 amountTokenDesired,\r\n        uint256 amountTokenMin,\r\n        uint256 amountETHMin,\r\n        address to,\r\n        uint256 deadline\r\n    )\r\n        external\r\n        payable\r\n        returns (\r\n            uint256 amountToken,\r\n            uint256 amountETH,\r\n            uint256 liquidity\r\n        );\r\n\r\n    function removeLiquidity(\r\n        address tokenA,\r\n        address tokenB,\r\n        uint256 liquidity,\r\n        uint256 amountAMin,\r\n        uint256 amountBMin,\r\n        address to,\r\n        uint256 deadline\r\n    ) external returns (uint256 amountA, uint256 amountB);\r\n\r\n    function removeLiquidityETH(\r\n        address token,\r\n        uint256 liquidity,\r\n        uint256 amountTokenMin,\r\n        uint256 amountETHMin,\r\n        address to,\r\n        uint256 deadline\r\n    ) external returns (uint256 amountToken, uint256 amountETH);\r\n\r\n    function removeLiquidityWithPermit(\r\n        address tokenA,\r\n        address tokenB,\r\n        uint256 liquidity,\r\n        uint256 amountAMin,\r\n        uint256 amountBMin,\r\n        address to,\r\n        uint256 deadline,\r\n        bool approveMax,\r\n        uint8 v,\r\n        bytes32 r,\r\n        bytes32 s\r\n    ) external returns (uint256 amountA, uint256 amountB);\r\n\r\n    function removeLiquidityETHWithPermit(\r\n        address token,\r\n        uint256 liquidity,\r\n        uint256 amountTokenMin,\r\n        uint256 amountETHMin,\r\n        address to,\r\n        uint256 deadline,\r\n        bool approveMax,\r\n        uint8 v,\r\n        bytes32 r,\r\n        bytes32 s\r\n    ) external returns (uint256 amountToken, uint256 amountETH);\r\n\r\n    function swapExactTokensForTokens(\r\n        uint256 amountIn,\r\n        uint256 amountOutMin,\r\n        address[] calldata path,\r\n        address to,\r\n        uint256 deadline\r\n    ) external returns (uint256[] memory amounts);\r\n\r\n    function swapTokensForExactTokens(\r\n        uint256 amountOut,\r\n        uint256 amountInMax,\r\n        address[] calldata path,\r\n        address to,\r\n        uint256 deadline\r\n    ) external returns (uint256[] memory amounts);\r\n\r\n    function swapExactETHForTokens(\r\n        uint256 amountOutMin,\r\n        address[] calldata path,\r\n        address to,\r\n        uint256 deadline\r\n    ) external payable returns (uint256[] memory amounts);\r\n\r\n    function swapTokensForExactETH(\r\n        uint256 amountOut,\r\n        uint256 amountInMax,\r\n        address[] calldata path,\r\n        address to,\r\n        uint256 deadline\r\n    ) external returns (uint256[] memory amounts);\r\n\r\n    function swapExactTokensForETH(\r\n        uint256 amountIn,\r\n        uint256 amountOutMin,\r\n        address[] calldata path,\r\n        address to,\r\n        uint256 deadline\r\n    ) external returns (uint256[] memory amounts);\r\n\r\n    function swapETHForExactTokens(\r\n        uint256 amountOut,\r\n        address[] calldata path,\r\n        address to,\r\n        uint256 deadline\r\n    ) external payable returns (uint256[] memory amounts);\r\n\r\n    function removeLiquidityETHSupportingFeeOnTransferTokens(\r\n        address token,\r\n        uint256 liquidity,\r\n        uint256 amountTokenMin,\r\n        uint256 amountETHMin,\r\n        address to,\r\n        uint256 deadline\r\n    ) external returns (uint256 amountETH);\r\n\r\n    function removeLiquidityETHWithPermitSupportingFeeOnTransferTokens(\r\n        address token,\r\n        uint256 liquidity,\r\n        uint256 amountTokenMin,\r\n        uint256 amountETHMin,\r\n        address to,\r\n        uint256 deadline,\r\n        bool approveMax,\r\n        uint8 v,\r\n        bytes32 r,\r\n        bytes32 s\r\n    ) external returns (uint256 amountETH);\r\n\r\n    function swapExactTokensForTokensSupportingFeeOnTransferTokens(\r\n        uint256 amountIn,\r\n        uint256 amountOutMin,\r\n        address[] calldata path,\r\n        address to,\r\n        uint256 deadline\r\n    ) external;\r\n\r\n    function swapExactETHForTokensSupportingFeeOnTransferTokens(\r\n        uint256 amountOutMin,\r\n        address[] calldata path,\r\n        address to,\r\n        uint256 deadline\r\n    ) external payable;\r\n\r\n    function swapExactTokensForETHSupportingFeeOnTransferTokens(\r\n        uint256 amountIn,\r\n        uint256 amountOutMin,\r\n        address[] calldata path,\r\n        address to,\r\n        uint256 deadline\r\n    ) external;\r\n\r\n    function quote(\r\n        uint256 amountA,\r\n        uint256 reserveA,\r\n        uint256 reserveB\r\n    ) external pure returns (uint256 amountB);\r\n\r\n    function getAmountOut(\r\n        uint256 amountIn,\r\n        uint256 reserveIn,\r\n        uint256 reserveOut\r\n    ) external pure returns (uint256 amountOut);\r\n\r\n    function getAmountIn(\r\n        uint256 amountOut,\r\n        uint256 reserveIn,\r\n        uint256 reserveOut\r\n    ) external pure returns (uint256 amountIn);\r\n\r\n    function getAmountsOut(uint256 amountIn, address[] calldata path)\r\n        external\r\n        view\r\n        returns (uint256[] memory amounts);\r\n\r\n    function getAmountsIn(uint256 amountOut, address[] calldata path)\r\n        external\r\n        view\r\n        returns (uint256[] memory amounts);\r\n}\r\n\r\ninterface IUniswapV2Pair {\r\n    function token0() external pure returns (address);\r\n\r\n    function token1() external pure returns (address);\r\n\r\n    function getReserves()\r\n        external\r\n        view\r\n        returns (\r\n            uint112 _reserve0,\r\n            uint112 _reserve1,\r\n            uint32 _blockTimestampLast\r\n        );\r\n}\r\n\r\ncontract Parabellum_In_General_V3_0_1 is ReentrancyGuard, Ownable {\r\n    using SafeMath for uint256;\r\n    using Address for address;\r\n    using SafeERC20 for IERC20;\r\n\r\n    string public name;\r\n    string public symbol;\r\n\r\n    bool public stopped = false;\r\n    uint16 public goodwill;\r\n    address\r\n        private constant zgoodwillAddress = 0xE737b6AfEC2320f616297e59445b60a11e3eF75F;\r\n    \r\n\r\n    IUniswapV2Factory\r\n        private constant UniSwapV2FactoryAddress = IUniswapV2Factory(\r\n        0x5C69bEe701ef814a2B6a3EDD4B1652CB9cc5aA6f\r\n    );\r\n\r\n    IUniswapV2Router02 private constant uniswapRouter = IUniswapV2Router02(\r\n        0x7a250d5630B4cF539739dF2C5dAcb4c659F2488D\r\n    );\r\n\r\n    address\r\n        private constant wethTokenAddress = 0xC02aaA39b223FE8D0A0e5C4F27eAD9083C756Cc2;\r\n\r\n    uint256\r\n        private constant deadline = 0xf000000000000000000000000000000000000000000000000000000000000000;\r\n\r\n    constructor(uint16 _goodwill, string memory _name, string memory _symbol) public {\r\n        goodwill = _goodwill;\r\n        name = _name;\r\n        \r\n    }\r\n\r\n    function getName() public view returns(string memory) {\r\n        return name;\r\n    }\r\n\r\n    function getSymbol() public view returns(string memory) {\r\n        return symbol;\r\n    }\r\n\r\n    // circuit breaker modifiers\r\n    modifier stopInEmergency {\r\n        if (stopped) {\r\n            revert(\"Temporarily Paused\");\r\n        } else {\r\n            _;\r\n        }\r\n    }\r\n\r\n    \r\n\r\n    /**\r\n    @notice This function is used to invest in given Uniswap V2 pair through ETH/ERC20 Tokens\r\n    @param _FromTokenContractAddress The ERC20 token used for investment (address(0x00) if ether)\r\n    @param _pairAddress The Uniswap pair address\r\n    @param _amount The amount of fromToken to invest\r\n    @param _minPoolTokens Reverts if less tokens received than this\r\n    @param _allowanceTarget Spender for the first swap\r\n    @param _swapTarget Excecution target for the first swap\r\n    @param swapData DEX quote data\r\n    @return Amount of LP bought\r\n     */\r\n    function ZapIn(\r\n        address _FromTokenContractAddress,\r\n        address _pairAddress,\r\n        uint256 _amount,\r\n        uint256 _minPoolTokens,\r\n        address _allowanceTarget,\r\n        address _swapTarget,\r\n        bytes calldata swapData\r\n    ) external payable nonReentrant stopInEmergency returns (uint256) {\r\n        uint256 toInvest;\r\n        if (_FromTokenContractAddress == address(0)) {\r\n            require(msg.value > 0, \"Error: ETH not sent\");\r\n            toInvest = msg.value;\r\n        } else {\r\n            require(msg.value == 0, \"Error: ETH sent\");\r\n            require(_amount > 0, \"Error: Invalid ERC amount\");\r\n            IERC20(_FromTokenContractAddress).safeTransferFrom(\r\n                msg.sender,\r\n                address(this),\r\n                _amount\r\n            );\r\n            toInvest = _amount;\r\n        }\r\n\r\n        uint256 LPBought = _performZapIn(\r\n            _FromTokenContractAddress,\r\n            _pairAddress,\r\n            toInvest,\r\n            _allowanceTarget,\r\n            _swapTarget,\r\n            swapData\r\n        );\r\n        require(LPBought >= _minPoolTokens, \"ERR: High Slippage\");\r\n\r\n        //transfer goodwill\r\n        uint256 goodwillPortion = _transferGoodwill(_pairAddress, LPBought);\r\n\r\n        IERC20(_pairAddress).safeTransfer(\r\n            msg.sender,\r\n            SafeMath.sub(LPBought, goodwillPortion)\r\n        );\r\n        return SafeMath.sub(LPBought, goodwillPortion);\r\n    }\r\n\r\n    function _getPairTokens(address _pairAddress)\r\n        internal\r\n        pure\r\n        returns (address token0, address token1)\r\n    {\r\n        IUniswapV2Pair uniPair = IUniswapV2Pair(_pairAddress);\r\n        token0 = uniPair.token0();\r\n        token1 = uniPair.token1();\r\n    }\r\n\r\n    function _performZapIn(\r\n        address _FromTokenContractAddress,\r\n        address _pairAddress,\r\n        uint256 _amount,\r\n        address _allowanceTarget,\r\n        address _swapTarget,\r\n        bytes memory swapData\r\n    ) internal returns (uint256) {\r\n        uint256 intermediateAmt;\r\n        address intermediateToken;\r\n        (address _ToUniswapToken0, address _ToUniswapToken1) = _getPairTokens(\r\n            _pairAddress\r\n        );\r\n\r\n        if (\r\n            _FromTokenContractAddress != _ToUniswapToken0 &&\r\n            _FromTokenContractAddress != _ToUniswapToken1\r\n        ) {\r\n            // swap to intermediate\r\n            (intermediateAmt, intermediateToken) = _fillQuote(\r\n                _FromTokenContractAddress,\r\n                _pairAddress,\r\n                _amount,\r\n                _allowanceTarget,\r\n                _swapTarget,\r\n                swapData\r\n            );\r\n        } else {\r\n            intermediateToken = _FromTokenContractAddress;\r\n            intermediateAmt = _amount;\r\n        }\r\n        // divide intermediate into appropriate amount to add liquidity\r\n        (uint256 token0Bought, uint256 token1Bought) = _swapIntermediate(\r\n            intermediateToken,\r\n            _ToUniswapToken0,\r\n            _ToUniswapToken1,\r\n            intermediateAmt\r\n        );\r\n\r\n        return\r\n            _uniDeposit(\r\n                _ToUniswapToken0,\r\n                _ToUniswapToken1,\r\n                token0Bought,\r\n                token1Bought\r\n            );\r\n    }\r\n\r\n    function _uniDeposit(\r\n        address _ToUnipoolToken0,\r\n        address _ToUnipoolToken1,\r\n        uint256 token0Bought,\r\n        uint256 token1Bought\r\n    ) internal returns (uint256) {\r\n        IERC20(_ToUnipoolToken0).safeApprove(address(uniswapRouter), 0);\r\n        IERC20(_ToUnipoolToken1).safeApprove(address(uniswapRouter), 0);\r\n\r\n        IERC20(_ToUnipoolToken0).safeApprove(\r\n            address(uniswapRouter),\r\n            token0Bought\r\n        );\r\n        IERC20(_ToUnipoolToken1).safeApprove(\r\n            address(uniswapRouter),\r\n            token1Bought\r\n        );\r\n\r\n        (uint256 amountA, uint256 amountB, uint256 LP) = uniswapRouter\r\n            .addLiquidity(\r\n            _ToUnipoolToken0,\r\n            _ToUnipoolToken1,\r\n            token0Bought,\r\n            token1Bought,\r\n            1,\r\n            1,\r\n            address(this),\r\n            deadline\r\n        );\r\n\r\n        //Returning Residue in token0, if any.\r\n        if (token0Bought.sub(amountA) > 0) {\r\n            IERC20(_ToUnipoolToken0).safeTransfer(\r\n                msg.sender,\r\n                token0Bought.sub(amountA)\r\n            );\r\n        }\r\n\r\n        //Returning Residue in token1, if any\r\n        if (token1Bought.sub(amountB) > 0) {\r\n            IERC20(_ToUnipoolToken1).safeTransfer(\r\n                msg.sender,\r\n                token1Bought.sub(amountB)\r\n            );\r\n        }\r\n\r\n        return LP;\r\n    }\r\n\r\n    function _fillQuote(\r\n        address _fromTokenAddress,\r\n        address _pairAddress,\r\n        uint256 _amount,\r\n        address _allowanceTarget,\r\n        address _swapTarget,\r\n        bytes memory swapCallData\r\n    ) internal returns (uint256 amountBought, address intermediateToken) {\r\n        uint256 valueToSend;\r\n        if (_fromTokenAddress == address(0)) {\r\n            valueToSend = _amount;\r\n        } else {\r\n            IERC20 fromToken = IERC20(_fromTokenAddress);\r\n            fromToken.safeApprove(address(_allowanceTarget), 0);\r\n            fromToken.safeApprove(address(_allowanceTarget), _amount);\r\n        }\r\n\r\n        (address _token0, address _token1) = _getPairTokens(_pairAddress);\r\n        IERC20 token0 = IERC20(_token0);\r\n        IERC20 token1 = IERC20(_token1);\r\n        uint256 initialBalance0 = token0.balanceOf(address(this));\r\n        uint256 initialBalance1 = token1.balanceOf(address(this));\r\n\r\n        (bool success, ) = _swapTarget.call.value(valueToSend)(swapCallData);\r\n        require(success, \"Error Swapping Tokens 1\");\r\n\r\n        uint256 finalBalance0 = token0.balanceOf(address(this)).sub(\r\n            initialBalance0\r\n        );\r\n        uint256 finalBalance1 = token1.balanceOf(address(this)).sub(\r\n            initialBalance1\r\n        );\r\n\r\n        if (finalBalance0 > finalBalance1) {\r\n            amountBought = finalBalance0;\r\n            intermediateToken = _token0;\r\n        } else {\r\n            amountBought = finalBalance1;\r\n            intermediateToken = _token1;\r\n        }\r\n\r\n        require(amountBought > 0, \"Swapped to Invalid Intermediate\");\r\n    }\r\n\r\n    function _swapIntermediate(\r\n        address _toContractAddress,\r\n        address _ToUnipoolToken0,\r\n        address _ToUnipoolToken1,\r\n        uint256 _amount\r\n    ) internal returns (uint256 token0Bought, uint256 token1Bought) {\r\n        IUniswapV2Pair pair = IUniswapV2Pair(\r\n            UniSwapV2FactoryAddress.getPair(_ToUnipoolToken0, _ToUnipoolToken1)\r\n        );\r\n        (uint256 res0, uint256 res1, ) = pair.getReserves();\r\n        if (_toContractAddress == _ToUnipoolToken0) {\r\n            uint256 amountToSwap = calculateSwapInAmount(res0, _amount);\r\n            //if no reserve or a new pair is created\r\n            if (amountToSwap <= 0) amountToSwap = _amount.div(2);\r\n            token1Bought = _token2Token(\r\n                _toContractAddress,\r\n                _ToUnipoolToken1,\r\n                amountToSwap\r\n            );\r\n            token0Bought = _amount.sub(amountToSwap);\r\n        } else {\r\n            uint256 amountToSwap = calculateSwapInAmount(res1, _amount);\r\n            //if no reserve or a new pair is created\r\n            if (amountToSwap <= 0) amountToSwap = _amount.div(2);\r\n            token0Bought = _token2Token(\r\n                _toContractAddress,\r\n                _ToUnipoolToken0,\r\n                amountToSwap\r\n            );\r\n            token1Bought = _amount.sub(amountToSwap);\r\n        }\r\n    }\r\n\r\n    function calculateSwapInAmount(uint256 reserveIn, uint256 userIn)\r\n        internal\r\n        pure\r\n        returns (uint256)\r\n    {\r\n        return\r\n            Babylonian\r\n                .sqrt(\r\n                reserveIn.mul(userIn.mul(3988000) + reserveIn.mul(3988009))\r\n            )\r\n                .sub(reserveIn.mul(1997)) / 1994;\r\n    }\r\n\r\n    /**\r\n    @notice This function is used to swap ERC20 <> ERC20\r\n    @param _FromTokenContractAddress The token address to swap from.\r\n    @param _ToTokenContractAddress The token address to swap to. \r\n    @param tokens2Trade The amount of tokens to swap\r\n    @return tokenBought The quantity of tokens bought\r\n    */\r\n    function _token2Token(\r\n        address _FromTokenContractAddress,\r\n        address _ToTokenContractAddress,\r\n        uint256 tokens2Trade\r\n    ) internal returns (uint256 tokenBought) {\r\n        if (_FromTokenContractAddress == _ToTokenContractAddress) {\r\n            return tokens2Trade;\r\n        }\r\n        IERC20(_FromTokenContractAddress).safeApprove(\r\n            address(uniswapRouter),\r\n            0\r\n        );\r\n        IERC20(_FromTokenContractAddress).safeApprove(\r\n            address(uniswapRouter),\r\n            tokens2Trade\r\n        );\r\n\r\n        address pair = UniSwapV2FactoryAddress.getPair(\r\n            _FromTokenContractAddress,\r\n            _ToTokenContractAddress\r\n        );\r\n        require(pair != address(0), \"No Swap Available\");\r\n        address[] memory path = new address[](2);\r\n        path[0] = _FromTokenContractAddress;\r\n        path[1] = _ToTokenContractAddress;\r\n\r\n        tokenBought = uniswapRouter.swapExactTokensForTokens(\r\n            tokens2Trade,\r\n            1,\r\n            path,\r\n            address(this),\r\n            deadline\r\n        )[path.length - 1];\r\n\r\n        require(tokenBought > 0, \"Error Swapping Tokens 2\");\r\n    }\r\n\r\n    /**\r\n    @notice This function is used to calculate and transfer goodwill\r\n    @param _tokenContractAddress Token in which goodwill is deducted\r\n    @param tokens2Trade The total amount of tokens to be zapped in\r\n    @return The quantity of goodwill deducted\r\n     */\r\n    function _transferGoodwill(\r\n        address _tokenContractAddress,\r\n        uint256 tokens2Trade\r\n    ) internal returns (uint256 goodwillPortion) {\r\n        goodwillPortion = SafeMath.div(\r\n            SafeMath.mul(tokens2Trade, goodwill),\r\n            10000\r\n        );\r\n\r\n        if (goodwillPortion == 0) {\r\n            return 0;\r\n        }\r\n\r\n        IERC20(_tokenContractAddress).safeTransfer(\r\n            zgoodwillAddress,\r\n            goodwillPortion\r\n        );\r\n    }\r\n\r\n    function set_new_goodwill(uint16 _new_goodwill) public onlyOwner {\r\n        require(\r\n            _new_goodwill >= 0 && _new_goodwill < 10000,\r\n            \"GoodWill Value not allowed\"\r\n        );\r\n        goodwill = _new_goodwill;\r\n    }\r\n\r\n    function inCaseTokengetsStuck(IERC20 _TokenAddress) public onlyOwner {\r\n        uint256 qty = _TokenAddress.balanceOf(address(this));\r\n        _TokenAddress.safeTransfer(owner(), qty);\r\n    }\r\n\r\n    // - to Pause the contract\r\n    function toggleContractActive() public onlyOwner {\r\n        stopped = !stopped;\r\n    }\r\n\r\n    // - to withdraw any ETH balance sitting in the contract\r\n    function withdraw() public onlyOwner {\r\n        uint256 contractBalance = address(this).balance;\r\n        address payable _to = owner().toPayable();\r\n        _to.transfer(contractBalance);\r\n    }\r\n}",
  "sourcePath": "C:/Users/jay.sanchez/ParabellumLiquidity/contracts/Parabellum_In_General_V3_0_1.sol",
  "compiler": {
    "name": "solc",
    "version": "0.5.7+commit.6da8b019.Emscripten.clang"
  },
  "schemaVersion": "3.3.3",
  "updatedAt": "2021-02-01T23:42:15.962Z",
  "devdoc": {
    "methods": {
      "ZapIn(address,address,uint256,uint256,address,address,bytes)": {
        "params": {
          "_FromTokenContractAddress": "The ERC20 token used for investment (address(0x00) if ether)\r",
          "_allowanceTarget": "Spender for the first swap\r",
          "_amount": "The amount of fromToken to invest\r",
          "_minPoolTokens": "Reverts if less tokens received than this\r",
          "_pairAddress": "The Uniswap pair address\r",
          "_swapTarget": "Excecution target for the first swap\r",
          "swapData": "DEX quote data\r"
        },
        "return": "Amount of LP bought\r"
      },
      "isOwner()": {
        "details": "Returns true if the caller is the current owner.\r"
      },
      "owner()": {
        "details": "Returns the address of the current owner.\r"
      },
      "renounceOwnership()": {
        "details": "Leaves the contract without owner. It will not be possible to call\r `onlyOwner` functions anymore. Can only be called by the current owner.\r      * NOTE: Renouncing ownership will leave the contract without an owner,\r thereby removing any functionality that is only available to the owner.\r"
      },
      "transferOwnership(address)": {
        "details": "Transfers ownership of the contract to a new account (`newOwner`).\r Can only be called by the current owner.\r"
      }
    }
  },
  "userdoc": {
    "methods": {
      "ZapIn(address,address,uint256,uint256,address,address,bytes)": {
        "notice": "This function is used to invest in given Uniswap V2 pair through ETH/ERC20 Tokens\r"
      }
    }
  }
}