{
  "contractName": "Parabellum_Uniswap_In_V1",
  "abi": [
    {
      "inputs": [
        {
          "internalType": "uint16",
          "name": "_goodwill",
          "type": "uint16"
        }
      ],
      "payable": false,
      "stateMutability": "nonpayable",
      "type": "constructor"
    },
    {
      "anonymous": false,
      "inputs": [
        {
          "indexed": true,
          "internalType": "address",
          "name": "previousOwner",
          "type": "address"
        },
        {
          "indexed": true,
          "internalType": "address",
          "name": "newOwner",
          "type": "address"
        }
      ],
      "name": "OwnershipTransferred",
      "type": "event"
    },
    {
      "constant": true,
      "inputs": [],
      "name": "_owner",
      "outputs": [
        {
          "internalType": "address payable",
          "name": "",
          "type": "address"
        }
      ],
      "payable": false,
      "stateMutability": "view",
      "type": "function"
    },
    {
      "constant": true,
      "inputs": [],
      "name": "goodwill",
      "outputs": [
        {
          "internalType": "uint16",
          "name": "",
          "type": "uint16"
        }
      ],
      "payable": false,
      "stateMutability": "view",
      "type": "function"
    },
    {
      "constant": true,
      "inputs": [],
      "name": "isOwner",
      "outputs": [
        {
          "internalType": "bool",
          "name": "",
          "type": "bool"
        }
      ],
      "payable": false,
      "stateMutability": "view",
      "type": "function"
    },
    {
      "constant": true,
      "inputs": [],
      "name": "owner",
      "outputs": [
        {
          "internalType": "address",
          "name": "",
          "type": "address"
        }
      ],
      "payable": false,
      "stateMutability": "view",
      "type": "function"
    },
    {
      "constant": false,
      "inputs": [],
      "name": "renounceOwnership",
      "outputs": [],
      "payable": false,
      "stateMutability": "nonpayable",
      "type": "function"
    },
    {
      "constant": true,
      "inputs": [],
      "name": "stopped",
      "outputs": [
        {
          "internalType": "bool",
          "name": "",
          "type": "bool"
        }
      ],
      "payable": false,
      "stateMutability": "view",
      "type": "function"
    },
    {
      "constant": false,
      "inputs": [
        {
          "internalType": "address payable",
          "name": "newOwner",
          "type": "address"
        }
      ],
      "name": "transferOwnership",
      "outputs": [],
      "payable": false,
      "stateMutability": "nonpayable",
      "type": "function"
    },
    {
      "constant": false,
      "inputs": [
        {
          "internalType": "address",
          "name": "_FromTokenContractAddress",
          "type": "address"
        },
        {
          "internalType": "address",
          "name": "_pairAddress",
          "type": "address"
        },
        {
          "internalType": "uint256",
          "name": "_amount",
          "type": "uint256"
        },
        {
          "internalType": "uint256",
          "name": "_minPoolTokens",
          "type": "uint256"
        },
        {
          "internalType": "address",
          "name": "_allowanceTarget",
          "type": "address"
        },
        {
          "internalType": "address",
          "name": "_swapTarget",
          "type": "address"
        },
        {
          "internalType": "bytes",
          "name": "swapData",
          "type": "bytes"
        }
      ],
      "name": "ZapIn",
      "outputs": [
        {
          "internalType": "uint256",
          "name": "",
          "type": "uint256"
        }
      ],
      "payable": true,
      "stateMutability": "payable",
      "type": "function"
    },
    {
      "constant": false,
      "inputs": [
        {
          "internalType": "uint16",
          "name": "_new_goodwill",
          "type": "uint16"
        }
      ],
      "name": "set_new_goodwill",
      "outputs": [],
      "payable": false,
      "stateMutability": "nonpayable",
      "type": "function"
    },
    {
      "constant": false,
      "inputs": [
        {
          "internalType": "contract IERC20",
          "name": "_TokenAddress",
          "type": "address"
        }
      ],
      "name": "inCaseTokengetsStuck",
      "outputs": [],
      "payable": false,
      "stateMutability": "nonpayable",
      "type": "function"
    },
    {
      "constant": false,
      "inputs": [],
      "name": "toggleContractActive",
      "outputs": [],
      "payable": false,
      "stateMutability": "nonpayable",
      "type": "function"
    },
    {
      "constant": false,
      "inputs": [],
      "name": "withdraw",
      "outputs": [],
      "payable": false,
      "stateMutability": "nonpayable",
      "type": "function"
    }
  ],
  "bytecode": "0x608060405260008060156101000a81548160ff0219169083151502179055503480156200002b57600080fd5b506040516200309438038062003094833981810160405260208110156200005157600080fd5b810190808051906020019092919050505060016000806101000a81548160ff02191690831515021790555060006200008e6200015160201b60201c565b905080600060016101000a81548173ffffffffffffffffffffffffffffffffffffffff021916908373ffffffffffffffffffffffffffffffffffffffff1602179055508073ffffffffffffffffffffffffffffffffffffffff16600073ffffffffffffffffffffffffffffffffffffffff167f8be0079c531659141344cd1fd0a4f28419497f9722a3daafe3b4186f6b6457e060405160405180910390a35080600060166101000a81548161ffff021916908361ffff1602179055505062000159565b600033905090565b612f2b80620001696000396000f3fe6080604052600436106100a75760003560e01c80638da5cb5b116100645780638da5cb5b146101a45780638f32d59b146101fb578063b10e1dbc1461022a578063b2bdfa7b14610269578063bf6411b2146102c0578063f2fde38b146103e1576100a7565b80631385d24c146100ac5780633ccfd60b146100c3578063551196d5146100da5780635de0398e1461012b578063715018a61461015e57806375f12b2114610175575b600080fd5b3480156100b857600080fd5b506100c1610432565b005b3480156100cf57600080fd5b506100d86104d8565b005b3480156100e657600080fd5b50610129600480360360208110156100fd57600080fd5b81019080803573ffffffffffffffffffffffffffffffffffffffff1690602001909291905050506105cc565b005b34801561013757600080fd5b50610140610738565b604051808261ffff1661ffff16815260200191505060405180910390f35b34801561016a57600080fd5b5061017361074c565b005b34801561018157600080fd5b5061018a610886565b604051808215151515815260200191505060405180910390f35b3480156101b057600080fd5b506101b9610899565b604051808273ffffffffffffffffffffffffffffffffffffffff1673ffffffffffffffffffffffffffffffffffffffff16815260200191505060405180910390f35b34801561020757600080fd5b506102106108c2565b604051808215151515815260200191505060405180910390f35b34801561023657600080fd5b506102676004803603602081101561024d57600080fd5b81019080803561ffff169060200190929190505050610920565b005b34801561027557600080fd5b5061027e610a46565b604051808273ffffffffffffffffffffffffffffffffffffffff1673ffffffffffffffffffffffffffffffffffffffff16815260200191505060405180910390f35b6103cb600480360360e08110156102d657600080fd5b81019080803573ffffffffffffffffffffffffffffffffffffffff169060200190929190803573ffffffffffffffffffffffffffffffffffffffff1690602001909291908035906020019092919080359060200190929190803573ffffffffffffffffffffffffffffffffffffffff169060200190929190803573ffffffffffffffffffffffffffffffffffffffff1690602001909291908035906020019064010000000081111561038757600080fd5b82018360208201111561039957600080fd5b803590602001918460018302840111640100000000831117156103bb57600080fd5b9091929391929390505050610a6c565b6040518082815260200191505060405180910390f35b3480156103ed57600080fd5b506104306004803603602081101561040457600080fd5b81019080803573ffffffffffffffffffffffffffffffffffffffff169060200190929190505050610ea0565b005b61043a6108c2565b6104ac576040517f08c379a00000000000000000000000000000000000000000000000000000000081526004018080602001828103825260208152602001807f4f776e61626c653a2063616c6c6572206973206e6f7420746865206f776e657281525060200191505060405180910390fd5b600060159054906101000a900460ff1615600060156101000a81548160ff021916908315150217905550565b6104e06108c2565b610552576040517f08c379a00000000000000000000000000000000000000000000000000000000081526004018080602001828103825260208152602001807f4f776e61626c653a2063616c6c6572206973206e6f7420746865206f776e657281525060200191505060405180910390fd5b6000479050600061057f610564610899565b73ffffffffffffffffffffffffffffffffffffffff16610f26565b90508073ffffffffffffffffffffffffffffffffffffffff166108fc839081150290604051600060405180830381858888f193505050501580156105c7573d6000803e3d6000fd5b505050565b6105d46108c2565b610646576040517f08c379a00000000000000000000000000000000000000000000000000000000081526004018080602001828103825260208152602001807f4f776e61626c653a2063616c6c6572206973206e6f7420746865206f776e657281525060200191505060405180910390fd5b60008173ffffffffffffffffffffffffffffffffffffffff166370a08231306040518263ffffffff1660e01b8152600401808273ffffffffffffffffffffffffffffffffffffffff1673ffffffffffffffffffffffffffffffffffffffff16815260200191505060206040518083038186803b1580156106c557600080fd5b505afa1580156106d9573d6000803e3d6000fd5b505050506040513d60208110156106ef57600080fd5b8101908080519060200190929190505050905061073461070d610899565b828473ffffffffffffffffffffffffffffffffffffffff16610f309092919063ffffffff16565b5050565b600060169054906101000a900461ffff1681565b6107546108c2565b6107c6576040517f08c379a00000000000000000000000000000000000000000000000000000000081526004018080602001828103825260208152602001807f4f776e61626c653a2063616c6c6572206973206e6f7420746865206f776e657281525060200191505060405180910390fd5b600073ffffffffffffffffffffffffffffffffffffffff16600060019054906101000a900473ffffffffffffffffffffffffffffffffffffffff1673ffffffffffffffffffffffffffffffffffffffff167f8be0079c531659141344cd1fd0a4f28419497f9722a3daafe3b4186f6b6457e060405160405180910390a360008060016101000a81548173ffffffffffffffffffffffffffffffffffffffff021916908373ffffffffffffffffffffffffffffffffffffffff160217905550565b600060159054906101000a900460ff1681565b60008060019054906101000a900473ffffffffffffffffffffffffffffffffffffffff16905090565b60008060019054906101000a900473ffffffffffffffffffffffffffffffffffffffff1673ffffffffffffffffffffffffffffffffffffffff16610904611001565b73ffffffffffffffffffffffffffffffffffffffff1614905090565b6109286108c2565b61099a576040517f08c379a00000000000000000000000000000000000000000000000000000000081526004018080602001828103825260208152602001807f4f776e61626c653a2063616c6c6572206973206e6f7420746865206f776e657281525060200191505060405180910390fd5b60008161ffff16101580156109b457506127108161ffff16105b610a26576040517f08c379a000000000000000000000000000000000000000000000000000000000815260040180806020018281038252601a8152602001807f476f6f6457696c6c2056616c7565206e6f7420616c6c6f77656400000000000081525060200191505060405180910390fd5b80600060166101000a81548161ffff021916908361ffff16021790555050565b600060019054906101000a900473ffffffffffffffffffffffffffffffffffffffff1681565b60008060009054906101000a900460ff16610aef576040517f08c379a000000000000000000000000000000000000000000000000000000000815260040180806020018281038252601f8152602001807f5265656e7472616e637947756172643a207265656e7472616e742063616c6c0081525060200191505060405180910390fd5b60008060006101000a81548160ff021916908315150217905550600060159054906101000a900460ff1615610b8c576040517f08c379a00000000000000000000000000000000000000000000000000000000081526004018080602001828103825260128152602001807f54656d706f726172696c7920506175736564000000000000000000000000000081525060200191505060405180910390fd5b60008073ffffffffffffffffffffffffffffffffffffffff168a73ffffffffffffffffffffffffffffffffffffffff161415610c405760003411610c38576040517f08c379a00000000000000000000000000000000000000000000000000000000081526004018080602001828103825260138152602001807f4572726f723a20455448206e6f742073656e740000000000000000000000000081525060200191505060405180910390fd5b349050610d5d565b60003414610cb6576040517f08c379a000000000000000000000000000000000000000000000000000000000815260040180806020018281038252600f8152602001807f4572726f723a204554482073656e74000000000000000000000000000000000081525060200191505060405180910390fd5b60008811610d2c576040517f08c379a00000000000000000000000000000000000000000000000000000000081526004018080602001828103825260198152602001807f4572726f723a20496e76616c69642045524320616d6f756e740000000000000081525060200191505060405180910390fd5b610d5933308a8d73ffffffffffffffffffffffffffffffffffffffff16611009909392919063ffffffff16565b8790505b6000610db18b8b848a8a8a8a8080601f016020809104026020016040519081016040528093929190818152602001838380828437600081840152601f19601f8201169050808301925050505050505061110f565b905087811015610e29576040517f08c379a00000000000000000000000000000000000000000000000000000000081526004018080602001828103825260128152602001807f4552523a204869676820536c697070616765000000000000000000000000000081525060200191505060405180910390fd5b6000610e358b836111e4565b9050610e6b33610e458484611269565b8d73ffffffffffffffffffffffffffffffffffffffff16610f309092919063ffffffff16565b610e758282611269565b935050505060016000806101000a81548160ff02191690831515021790555098975050505050505050565b610ea86108c2565b610f1a576040517f08c379a00000000000000000000000000000000000000000000000000000000081526004018080602001828103825260208152602001807f4f776e61626c653a2063616c6c6572206973206e6f7420746865206f776e657281525060200191505060405180910390fd5b610f23816112b3565b50565b6000819050919050565b610ffc838473ffffffffffffffffffffffffffffffffffffffff1663a9059cbb905060e01b8484604051602401808373ffffffffffffffffffffffffffffffffffffffff1673ffffffffffffffffffffffffffffffffffffffff16815260200182815260200192505050604051602081830303815290604052907bffffffffffffffffffffffffffffffffffffffffffffffffffffffff19166020820180517bffffffffffffffffffffffffffffffffffffffffffffffffffffffff83818316178352505050506113f9565b505050565b600033905090565b611109848573ffffffffffffffffffffffffffffffffffffffff166323b872dd905060e01b858585604051602401808473ffffffffffffffffffffffffffffffffffffffff1673ffffffffffffffffffffffffffffffffffffffff1681526020018373ffffffffffffffffffffffffffffffffffffffff1673ffffffffffffffffffffffffffffffffffffffff1681526020018281526020019350505050604051602081830303815290604052907bffffffffffffffffffffffffffffffffffffffffffffffffffffffff19166020820180517bffffffffffffffffffffffffffffffffffffffffffffffffffffffff83818316178352505050506113f9565b50505050565b60008060008060006111208a611644565b915091508173ffffffffffffffffffffffffffffffffffffffff168b73ffffffffffffffffffffffffffffffffffffffff161415801561118c57508073ffffffffffffffffffffffffffffffffffffffff168b73ffffffffffffffffffffffffffffffffffffffff1614155b156111ac5761119f8b8b8b8b8b8b611758565b80945081955050506111b3565b8a92508893505b6000806111c285858589611cf6565b915091506111d284848484611fa0565b96505050505050509695505050505050565b600061120f61120783600060169054906101000a900461ffff1661ffff166122fe565b612710612384565b905060008114156112235760009050611263565b61126273e737b6afec2320f616297e59445b60a11e3ef75f828573ffffffffffffffffffffffffffffffffffffffff16610f309092919063ffffffff16565b5b92915050565b60006112ab83836040518060400160405280601e81526020017f536166654d6174683a207375627472616374696f6e206f766572666c6f7700008152506123ce565b905092915050565b600073ffffffffffffffffffffffffffffffffffffffff168173ffffffffffffffffffffffffffffffffffffffff161415611339576040517f08c379a0000000000000000000000000000000000000000000000000000000008152600401808060200182810382526026815260200180612e506026913960400191505060405180910390fd5b8073ffffffffffffffffffffffffffffffffffffffff16600060019054906101000a900473ffffffffffffffffffffffffffffffffffffffff1673ffffffffffffffffffffffffffffffffffffffff167f8be0079c531659141344cd1fd0a4f28419497f9722a3daafe3b4186f6b6457e060405160405180910390a380600060016101000a81548173ffffffffffffffffffffffffffffffffffffffff021916908373ffffffffffffffffffffffffffffffffffffffff16021790555050565b6114188273ffffffffffffffffffffffffffffffffffffffff1661248e565b61148a576040517f08c379a000000000000000000000000000000000000000000000000000000000815260040180806020018281038252601f8152602001807f5361666545524332303a2063616c6c20746f206e6f6e2d636f6e74726163740081525060200191505060405180910390fd5b600060608373ffffffffffffffffffffffffffffffffffffffff16836040518082805190602001908083835b602083106114d957805182526020820191506020810190506020830392506114b6565b6001836020036101000a0380198251168184511680821785525050505050509050019150506000604051808303816000865af19150503d806000811461153b576040519150601f19603f3d011682016040523d82523d6000602084013e611540565b606091505b5091509150816115b8576040517f08c379a00000000000000000000000000000000000000000000000000000000081526004018080602001828103825260208152602001807f5361666545524332303a206c6f772d6c6576656c2063616c6c206661696c656481525060200191505060405180910390fd5b60008151111561163e578080602001905160208110156115d757600080fd5b810190808051906020019092919050505061163d576040517f08c379a000000000000000000000000000000000000000000000000000000000815260040180806020018281038252602a815260200180612e97602a913960400191505060405180910390fd5b5b50505050565b60008060008390508073ffffffffffffffffffffffffffffffffffffffff16630dfe16816040518163ffffffff1660e01b815260040160206040518083038186803b15801561169257600080fd5b505afa1580156116a6573d6000803e3d6000fd5b505050506040513d60208110156116bc57600080fd5b810190808051906020019092919050505092508073ffffffffffffffffffffffffffffffffffffffff1663d21220a76040518163ffffffff1660e01b815260040160206040518083038186803b15801561171557600080fd5b505afa158015611729573d6000803e3d6000fd5b505050506040513d602081101561173f57600080fd5b8101908080519060200190929190505050915050915091565b60008060008073ffffffffffffffffffffffffffffffffffffffff168973ffffffffffffffffffffffffffffffffffffffff161415611799578690506117f7565b60008990506117ca8760008373ffffffffffffffffffffffffffffffffffffffff166124d99092919063ffffffff16565b6117f587898373ffffffffffffffffffffffffffffffffffffffff166124d99092919063ffffffff16565b505b6000806118038a611644565b915091506000829050600082905060008273ffffffffffffffffffffffffffffffffffffffff166370a08231306040518263ffffffff1660e01b8152600401808273ffffffffffffffffffffffffffffffffffffffff1673ffffffffffffffffffffffffffffffffffffffff16815260200191505060206040518083038186803b15801561189057600080fd5b505afa1580156118a4573d6000803e3d6000fd5b505050506040513d60208110156118ba57600080fd5b8101908080519060200190929190505050905060008273ffffffffffffffffffffffffffffffffffffffff166370a08231306040518263ffffffff1660e01b8152600401808273ffffffffffffffffffffffffffffffffffffffff1673ffffffffffffffffffffffffffffffffffffffff16815260200191505060206040518083038186803b15801561194c57600080fd5b505afa158015611960573d6000803e3d6000fd5b505050506040513d602081101561197657600080fd5b8101908080519060200190929190505050905060008b73ffffffffffffffffffffffffffffffffffffffff16888c6040518082805190602001908083835b602083106119d757805182526020820191506020810190506020830392506119b4565b6001836020036101000a03801982511681845116808217855250505050505090500191505060006040518083038185875af1925050503d8060008114611a39576040519150601f19603f3d011682016040523d82523d6000602084013e611a3e565b606091505b5050905080611ab5576040517f08c379a00000000000000000000000000000000000000000000000000000000081526004018080602001828103825260178152602001807f4572726f72205377617070696e6720546f6b656e73203100000000000000000081525060200191505060405180910390fd5b6000611b81848773ffffffffffffffffffffffffffffffffffffffff166370a08231306040518263ffffffff1660e01b8152600401808273ffffffffffffffffffffffffffffffffffffffff1673ffffffffffffffffffffffffffffffffffffffff16815260200191505060206040518083038186803b158015611b3857600080fd5b505afa158015611b4c573d6000803e3d6000fd5b505050506040513d6020811015611b6257600080fd5b810190808051906020019092919050505061126990919063ffffffff16565b90506000611c4f848773ffffffffffffffffffffffffffffffffffffffff166370a08231306040518263ffffffff1660e01b8152600401808273ffffffffffffffffffffffffffffffffffffffff1673ffffffffffffffffffffffffffffffffffffffff16815260200191505060206040518083038186803b158015611c0657600080fd5b505afa158015611c1a573d6000803e3d6000fd5b505050506040513d6020811015611c3057600080fd5b810190808051906020019092919050505061126990919063ffffffff16565b905080821115611c6457819b50889a50611c6b565b809b50879a505b60008c11611ce1576040517f08c379a000000000000000000000000000000000000000000000000000000000815260040180806020018281038252601f8152602001807f5377617070656420746f20496e76616c696420496e7465726d6564696174650081525060200191505060405180910390fd5b50505050505050505050965096945050505050565b6000806000735c69bee701ef814a2b6a3edd4b1652cb9cc5aa6f73ffffffffffffffffffffffffffffffffffffffff1663e6a4390587876040518363ffffffff1660e01b8152600401808373ffffffffffffffffffffffffffffffffffffffff1673ffffffffffffffffffffffffffffffffffffffff1681526020018273ffffffffffffffffffffffffffffffffffffffff1673ffffffffffffffffffffffffffffffffffffffff1681526020019250505060206040518083038186803b158015611dc057600080fd5b505afa158015611dd4573d6000803e3d6000fd5b505050506040513d6020811015611dea57600080fd5b810190808051906020019092919050505090506000808273ffffffffffffffffffffffffffffffffffffffff16630902f1ac6040518163ffffffff1660e01b815260040160606040518083038186803b158015611e4657600080fd5b505afa158015611e5a573d6000803e3d6000fd5b505050506040513d6060811015611e7057600080fd5b81019080805190602001909291908051906020019092919080519060200190929190505050506dffffffffffffffffffffffffffff1691506dffffffffffffffffffffffffffff1691508773ffffffffffffffffffffffffffffffffffffffff168973ffffffffffffffffffffffffffffffffffffffff161415611f43576000611efa83886126f9565b905060008111611f1b57611f1860028861238490919063ffffffff16565b90505b611f268a898361277b565b9450611f3b818861126990919063ffffffff16565b955050611f94565b6000611f4f82886126f9565b905060008111611f7057611f6d60028861238490919063ffffffff16565b90505b611f7b8a8a8361277b565b9550611f90818861126990919063ffffffff16565b9450505b50505094509492505050565b6000611fe2737a250d5630b4cf539739df2c5dacb4c659f2488d60008773ffffffffffffffffffffffffffffffffffffffff166124d99092919063ffffffff16565b612022737a250d5630b4cf539739df2c5dacb4c659f2488d60008673ffffffffffffffffffffffffffffffffffffffff166124d99092919063ffffffff16565b612061737a250d5630b4cf539739df2c5dacb4c659f2488d848773ffffffffffffffffffffffffffffffffffffffff166124d99092919063ffffffff16565b6120a0737a250d5630b4cf539739df2c5dacb4c659f2488d838673ffffffffffffffffffffffffffffffffffffffff166124d99092919063ffffffff16565b6000806000737a250d5630b4cf539739df2c5dacb4c659f2488d73ffffffffffffffffffffffffffffffffffffffff1663e8e3370089898989600180307ff0000000000000000000000000000000000000000000000000000000000000006040518963ffffffff1660e01b8152600401808973ffffffffffffffffffffffffffffffffffffffff1673ffffffffffffffffffffffffffffffffffffffff1681526020018873ffffffffffffffffffffffffffffffffffffffff1673ffffffffffffffffffffffffffffffffffffffff1681526020018781526020018681526020018581526020018481526020018373ffffffffffffffffffffffffffffffffffffffff1673ffffffffffffffffffffffffffffffffffffffff16815260200182815260200198505050505050505050606060405180830381600087803b1580156121e957600080fd5b505af11580156121fd573d6000803e3d6000fd5b505050506040513d606081101561221357600080fd5b810190808051906020019092919080519060200190929190805190602001909291905050509250925092506000612253848861126990919063ffffffff16565b11156122975761229633612270858961126990919063ffffffff16565b8a73ffffffffffffffffffffffffffffffffffffffff16610f309092919063ffffffff16565b5b60006122ac838761126990919063ffffffff16565b11156122f0576122ef336122c9848861126990919063ffffffff16565b8973ffffffffffffffffffffffffffffffffffffffff16610f309092919063ffffffff16565b5b809350505050949350505050565b600080831415612311576000905061237e565b600082840290508284828161232257fe5b0414612379576040517f08c379a0000000000000000000000000000000000000000000000000000000008152600401808060200182810382526021815260200180612e766021913960400191505060405180910390fd5b809150505b92915050565b60006123c683836040518060400160405280601a81526020017f536166654d6174683a206469766973696f6e206279207a65726f000000000000815250612d27565b905092915050565b600083831115829061247b576040517f08c379a00000000000000000000000000000000000000000000000000000000081526004018080602001828103825283818151815260200191508051906020019080838360005b83811015612440578082015181840152602081019050612425565b50505050905090810190601f16801561246d5780820380516001836020036101000a031916815260200191505b509250505060405180910390fd5b5060008385039050809150509392505050565b60008060007fc5d2460186f7233c927e7db2dcc703c0e500b653ca82273b7bfad8045d85a47060001b9050833f91508082141580156124d057506000801b8214155b92505050919050565b60008114806125d3575060008373ffffffffffffffffffffffffffffffffffffffff1663dd62ed3e30856040518363ffffffff1660e01b8152600401808373ffffffffffffffffffffffffffffffffffffffff1673ffffffffffffffffffffffffffffffffffffffff1681526020018273ffffffffffffffffffffffffffffffffffffffff1673ffffffffffffffffffffffffffffffffffffffff1681526020019250505060206040518083038186803b15801561259657600080fd5b505afa1580156125aa573d6000803e3d6000fd5b505050506040513d60208110156125c057600080fd5b8101908080519060200190929190505050145b612628576040517f08c379a0000000000000000000000000000000000000000000000000000000008152600401808060200182810382526036815260200180612ec16036913960400191505060405180910390fd5b6126f4838473ffffffffffffffffffffffffffffffffffffffff1663095ea7b3905060e01b8484604051602401808373ffffffffffffffffffffffffffffffffffffffff1673ffffffffffffffffffffffffffffffffffffffff16815260200182815260200192505050604051602081830303815290604052907bffffffffffffffffffffffffffffffffffffffffffffffffffffffff19166020820180517bffffffffffffffffffffffffffffffffffffffffffffffffffffffff83818316178352505050506113f9565b505050565b60006107ca61276b6127166107cd866122fe90919063ffffffff16565b61275d612758612732623cda29896122fe90919063ffffffff16565b612748623cda20896122fe90919063ffffffff16565b01886122fe90919063ffffffff16565b612ded565b61126990919063ffffffff16565b8161277257fe5b04905092915050565b60008273ffffffffffffffffffffffffffffffffffffffff168473ffffffffffffffffffffffffffffffffffffffff1614156127b957819050612d20565b6127f9737a250d5630b4cf539739df2c5dacb4c659f2488d60008673ffffffffffffffffffffffffffffffffffffffff166124d99092919063ffffffff16565b612838737a250d5630b4cf539739df2c5dacb4c659f2488d838673ffffffffffffffffffffffffffffffffffffffff166124d99092919063ffffffff16565b6000735c69bee701ef814a2b6a3edd4b1652cb9cc5aa6f73ffffffffffffffffffffffffffffffffffffffff1663e6a4390586866040518363ffffffff1660e01b8152600401808373ffffffffffffffffffffffffffffffffffffffff1673ffffffffffffffffffffffffffffffffffffffff1681526020018273ffffffffffffffffffffffffffffffffffffffff1673ffffffffffffffffffffffffffffffffffffffff1681526020019250505060206040518083038186803b1580156128ff57600080fd5b505afa158015612913573d6000803e3d6000fd5b505050506040513d602081101561292957600080fd5b81019080805190602001909291905050509050600073ffffffffffffffffffffffffffffffffffffffff168173ffffffffffffffffffffffffffffffffffffffff1614156129df576040517f08c379a00000000000000000000000000000000000000000000000000000000081526004018080602001828103825260118152602001807f4e6f205377617020417661696c61626c6500000000000000000000000000000081525060200191505060405180910390fd5b60606002604051908082528060200260200182016040528015612a115781602001602082028038833980820191505090505b5090508581600081518110612a2257fe5b602002602001019073ffffffffffffffffffffffffffffffffffffffff16908173ffffffffffffffffffffffffffffffffffffffff16815250508481600181518110612a6a57fe5b602002602001019073ffffffffffffffffffffffffffffffffffffffff16908173ffffffffffffffffffffffffffffffffffffffff1681525050737a250d5630b4cf539739df2c5dacb4c659f2488d73ffffffffffffffffffffffffffffffffffffffff166338ed173985600184307ff0000000000000000000000000000000000000000000000000000000000000006040518663ffffffff1660e01b815260040180868152602001858152602001806020018473ffffffffffffffffffffffffffffffffffffffff1673ffffffffffffffffffffffffffffffffffffffff168152602001838152602001828103825285818151815260200191508051906020019060200280838360005b83811015612b90578082015181840152602081019050612b75565b505050509050019650505050505050600060405180830381600087803b158015612bb957600080fd5b505af1158015612bcd573d6000803e3d6000fd5b505050506040513d6000823e3d601f19601f820116820180604052506020811015612bf757600080fd5b8101908080516040519392919084640100000000821115612c1757600080fd5b83820191506020820185811115612c2d57600080fd5b8251866020820283011164010000000082111715612c4a57600080fd5b8083526020830192505050908051906020019060200280838360005b83811015612c81578082015181840152602081019050612c66565b50505050905001604052505050600182510381518110612c9d57fe5b6020026020010151925060008311612d1d576040517f08c379a00000000000000000000000000000000000000000000000000000000081526004018080602001828103825260178152602001807f4572726f72205377617070696e6720546f6b656e73203200000000000000000081525060200191505060405180910390fd5b50505b9392505050565b60008083118290612dd3576040517f08c379a00000000000000000000000000000000000000000000000000000000081526004018080602001828103825283818151815260200191508051906020019080838360005b83811015612d98578082015181840152602081019050612d7d565b50505050905090810190601f168015612dc55780820380516001836020036101000a031916815260200191505b509250505060405180910390fd5b506000838581612ddf57fe5b049050809150509392505050565b60006003821115612e3c578190506000600160028481612e0957fe5b040190505b81811015612e3657809150600281828581612e2557fe5b040181612e2e57fe5b049050612e0e565b50612e4a565b60008214612e4957600190505b5b91905056fe4f776e61626c653a206e6577206f776e657220697320746865207a65726f2061646472657373536166654d6174683a206d756c7469706c69636174696f6e206f766572666c6f775361666545524332303a204552433230206f7065726174696f6e20646964206e6f7420737563636565645361666545524332303a20617070726f76652066726f6d206e6f6e2d7a65726f20746f206e6f6e2d7a65726f20616c6c6f77616e6365a265627a7a72315820443fb285636d26854626d12e4b936c1610c5d4d071939f9e9a209c9c995224c664736f6c63430005110032",
  "source": "/*\r\n* Originally from UniswapV2_ZapIn_General_V3_0_1\r\n* Contract Address: 0xD3cF4e98e1e432B3d6Ae42AE406A78F2AC8293D0\r\n* This contract adds liquidity to Uniswap V2 pools using ETH or any ERC20 Token.\r\n*/\r\n\r\npragma solidity ^0.5.5;\r\n\r\n/**\r\n * @dev Interface of the ERC20 standard as defined in the EIP. Does not include\r\n * the optional functions; to access them see {ERC20Detailed}.\r\n */\r\ninterface IERC20 {\r\n    /**\r\n     * @dev Returns the amount of tokens in existence.\r\n     */\r\n    function totalSupply() external view returns (uint256);\r\n\r\n    /**\r\n     * @dev Returns the amount of tokens owned by `account`.\r\n     */\r\n    function balanceOf(address account) external view returns (uint256);\r\n\r\n    /**\r\n     * @dev Moves `amount` tokens from the caller's account to `recipient`.\r\n     *\r\n     * Returns a boolean value indicating whether the operation succeeded.\r\n     *\r\n     * Emits a {Transfer} event.\r\n     */\r\n    function transfer(address recipient, uint256 amount)\r\n        external\r\n        returns (bool);\r\n\r\n    /**\r\n     * @dev Returns the remaining number of tokens that `spender` will be\r\n     * allowed to spend on behalf of `owner` through {transferFrom}. This is\r\n     * zero by default.\r\n     *\r\n     * This value changes when {approve} or {transferFrom} are called.\r\n     */\r\n    function allowance(address owner, address spender)\r\n        external\r\n        view\r\n        returns (uint256);\r\n\r\n    /**\r\n     * @dev Sets `amount` as the allowance of `spender` over the caller's tokens.\r\n     *\r\n     * Returns a boolean value indicating whether the operation succeeded.\r\n     *\r\n     * IMPORTANT: Beware that changing an allowance with this method brings the risk\r\n     * that someone may use both the old and the new allowance by unfortunate\r\n     * transaction ordering. One possible solution to mitigate this race\r\n     * condition is to first reduce the spender's allowance to 0 and set the\r\n     * desired value afterwards:\r\n     * https://github.com/ethereum/EIPs/issues/20#issuecomment-263524729\r\n     *\r\n     * Emits an {Approval} event.\r\n     */\r\n    function approve(address spender, uint256 amount) external returns (bool);\r\n\r\n    /**\r\n     * @dev Moves `amount` tokens from `sender` to `recipient` using the\r\n     * allowance mechanism. `amount` is then deducted from the caller's\r\n     * allowance.\r\n     *\r\n     * Returns a boolean value indicating whether the operation succeeded.\r\n     *\r\n     * Emits a {Transfer} event.\r\n     */\r\n    function transferFrom(\r\n        address sender,\r\n        address recipient,\r\n        uint256 amount\r\n    ) external returns (bool);\r\n\r\n    /**\r\n     * @dev Emitted when `value` tokens are moved from one account (`from`) to\r\n     * another (`to`).\r\n     *\r\n     * Note that `value` may be zero.\r\n     */\r\n    event Transfer(address indexed from, address indexed to, uint256 value);\r\n\r\n    /**\r\n     * @dev Emitted when the allowance of a `spender` for an `owner` is set by\r\n     * a call to {approve}. `value` is the new allowance.\r\n     */\r\n    event Approval(\r\n        address indexed owner,\r\n        address indexed spender,\r\n        uint256 value\r\n    );\r\n}\r\n\r\n/**\r\n * @dev Wrappers over Solidity's arithmetic operations with added overflow\r\n * checks.\r\n *\r\n * Arithmetic operations in Solidity wrap on overflow. This can easily result\r\n * in bugs, because programmers usually assume that an overflow raises an\r\n * error, which is the standard behavior in high level programming languages.\r\n * `SafeMath` restores this intuition by reverting the transaction when an\r\n * operation overflows.\r\n *\r\n * Using this library instead of the unchecked operations eliminates an entire\r\n * class of bugs, so it's recommended to use it always.\r\n */\r\nlibrary SafeMath {\r\n    /**\r\n     * @dev Returns the addition of two unsigned integers, reverting on\r\n     * overflow.\r\n     *\r\n     * Counterpart to Solidity's `+` operator.\r\n     *\r\n     * Requirements:\r\n     * - Addition cannot overflow.\r\n     */\r\n    function add(uint256 a, uint256 b) internal pure returns (uint256) {\r\n        uint256 c = a + b;\r\n        require(c >= a, \"SafeMath: addition overflow\");\r\n\r\n        return c;\r\n    }\r\n\r\n    /**\r\n     * @dev Returns the subtraction of two unsigned integers, reverting on\r\n     * overflow (when the result is negative).\r\n     *\r\n     * Counterpart to Solidity's `-` operator.\r\n     *\r\n     * Requirements:\r\n     * - Subtraction cannot overflow.\r\n     */\r\n    function sub(uint256 a, uint256 b) internal pure returns (uint256) {\r\n        return sub(a, b, \"SafeMath: subtraction overflow\");\r\n    }\r\n\r\n    /**\r\n     * @dev Returns the subtraction of two unsigned integers, reverting with custom message on\r\n     * overflow (when the result is negative).\r\n     *\r\n     * Counterpart to Solidity's `-` operator.\r\n     *\r\n     * Requirements:\r\n     * - Subtraction cannot overflow.\r\n     *\r\n     * _Available since v2.4.0._\r\n     */\r\n    function sub(\r\n        uint256 a,\r\n        uint256 b,\r\n        string memory errorMessage\r\n    ) internal pure returns (uint256) {\r\n        require(b <= a, errorMessage);\r\n        uint256 c = a - b;\r\n\r\n        return c;\r\n    }\r\n\r\n    /**\r\n     * @dev Returns the multiplication of two unsigned integers, reverting on\r\n     * overflow.\r\n     *\r\n     * Counterpart to Solidity's `*` operator.\r\n     *\r\n     * Requirements:\r\n     * - Multiplication cannot overflow.\r\n     */\r\n    function mul(uint256 a, uint256 b) internal pure returns (uint256) {\r\n        // Gas optimization: this is cheaper than requiring 'a' not being zero, but the\r\n        // benefit is lost if 'b' is also tested.\r\n        // See: https://github.com/OpenZeppelin/openzeppelin-contracts/pull/522\r\n        if (a == 0) {\r\n            return 0;\r\n        }\r\n\r\n        uint256 c = a * b;\r\n        require(c / a == b, \"SafeMath: multiplication overflow\");\r\n\r\n        return c;\r\n    }\r\n\r\n    /**\r\n     * @dev Returns the integer division of two unsigned integers. Reverts on\r\n     * division by zero. The result is rounded towards zero.\r\n     *\r\n     * Counterpart to Solidity's `/` operator. Note: this function uses a\r\n     * `revert` opcode (which leaves remaining gas untouched) while Solidity\r\n     * uses an invalid opcode to revert (consuming all remaining gas).\r\n     *\r\n     * Requirements:\r\n     * - The divisor cannot be zero.\r\n     */\r\n    function div(uint256 a, uint256 b) internal pure returns (uint256) {\r\n        return div(a, b, \"SafeMath: division by zero\");\r\n    }\r\n\r\n    /**\r\n     * @dev Returns the integer division of two unsigned integers. Reverts with custom message on\r\n     * division by zero. The result is rounded towards zero.\r\n     *\r\n     * Counterpart to Solidity's `/` operator. Note: this function uses a\r\n     * `revert` opcode (which leaves remaining gas untouched) while Solidity\r\n     * uses an invalid opcode to revert (consuming all remaining gas).\r\n     *\r\n     * Requirements:\r\n     * - The divisor cannot be zero.\r\n     *\r\n     * _Available since v2.4.0._\r\n     */\r\n    function div(\r\n        uint256 a,\r\n        uint256 b,\r\n        string memory errorMessage\r\n    ) internal pure returns (uint256) {\r\n        // Solidity only automatically asserts when dividing by 0\r\n        require(b > 0, errorMessage);\r\n        uint256 c = a / b;\r\n        // assert(a == b * c + a % b); // There is no case in which this doesn't hold\r\n\r\n        return c;\r\n    }\r\n\r\n    /**\r\n     * @dev Returns the remainder of dividing two unsigned integers. (unsigned integer modulo),\r\n     * Reverts when dividing by zero.\r\n     *\r\n     * Counterpart to Solidity's `%` operator. This function uses a `revert`\r\n     * opcode (which leaves remaining gas untouched) while Solidity uses an\r\n     * invalid opcode to revert (consuming all remaining gas).\r\n     *\r\n     * Requirements:\r\n     * - The divisor cannot be zero.\r\n     */\r\n    function mod(uint256 a, uint256 b) internal pure returns (uint256) {\r\n        return mod(a, b, \"SafeMath: modulo by zero\");\r\n    }\r\n\r\n    /**\r\n     * @dev Returns the remainder of dividing two unsigned integers. (unsigned integer modulo),\r\n     * Reverts with custom message when dividing by zero.\r\n     *\r\n     * Counterpart to Solidity's `%` operator. This function uses a `revert`\r\n     * opcode (which leaves remaining gas untouched) while Solidity uses an\r\n     * invalid opcode to revert (consuming all remaining gas).\r\n     *\r\n     * Requirements:\r\n     * - The divisor cannot be zero.\r\n     *\r\n     * _Available since v2.4.0._\r\n     */\r\n    function mod(\r\n        uint256 a,\r\n        uint256 b,\r\n        string memory errorMessage\r\n    ) internal pure returns (uint256) {\r\n        require(b != 0, errorMessage);\r\n        return a % b;\r\n    }\r\n}\r\n\r\n/**\r\n * @dev Collection of functions related to the address type\r\n */\r\nlibrary Address {\r\n    /**\r\n     * @dev Returns true if `account` is a contract.\r\n     *\r\n     * [IMPORTANT]\r\n     * ====\r\n     * It is unsafe to assume that an address for which this function returns\r\n     * false is an externally-owned account (EOA) and not a contract.\r\n     *\r\n     * Among others, `isContract` will return false for the following\r\n     * types of addresses:\r\n     *\r\n     *  - an externally-owned account\r\n     *  - a contract in construction\r\n     *  - an address where a contract will be created\r\n     *  - an address where a contract lived, but was destroyed\r\n     * ====\r\n     */\r\n    function isContract(address account) internal view returns (bool) {\r\n        // According to EIP-1052, 0x0 is the value returned for not-yet created accounts\r\n        // and 0xc5d2460186f7233c927e7db2dcc703c0e500b653ca82273b7bfad8045d85a470 is returned\r\n        // for accounts without code, i.e. `keccak256('')`\r\n        bytes32 codehash;\r\n\r\n\r\n            bytes32 accountHash\r\n         = 0xc5d2460186f7233c927e7db2dcc703c0e500b653ca82273b7bfad8045d85a470;\r\n        // solhint-disable-next-line no-inline-assembly\r\n        assembly {\r\n            codehash := extcodehash(account)\r\n        }\r\n        return (codehash != accountHash && codehash != 0x0);\r\n    }\r\n\r\n    /**\r\n     * @dev Converts an `address` into `address payable`. Note that this is\r\n     * simply a type cast: the actual underlying value is not changed.\r\n     *\r\n     * _Available since v2.4.0._\r\n     */\r\n    function toPayable(address account)\r\n        internal\r\n        pure\r\n        returns (address payable)\r\n    {\r\n        return address(uint160(account));\r\n    }\r\n\r\n    /**\r\n     * @dev Replacement for Solidity's `transfer`: sends `amount` wei to\r\n     * `recipient`, forwarding all available gas and reverting on errors.\r\n     *\r\n     * https://eips.ethereum.org/EIPS/eip-1884[EIP1884] increases the gas cost\r\n     * of certain opcodes, possibly making contracts go over the 2300 gas limit\r\n     * imposed by `transfer`, making them unable to receive funds via\r\n     * `transfer`. {sendValue} removes this limitation.\r\n     *\r\n     * https://diligence.consensys.net/posts/2019/09/stop-using-soliditys-transfer-now/[Learn more].\r\n     *\r\n     * IMPORTANT: because control is transferred to `recipient`, care must be\r\n     * taken to not create reentrancy vulnerabilities. Consider using\r\n     * {ReentrancyGuard} or the\r\n     * https://solidity.readthedocs.io/en/v0.5.11/security-considerations.html#use-the-checks-effects-interactions-pattern[checks-effects-interactions pattern].\r\n     *\r\n     * _Available since v2.4.0._\r\n     */\r\n    function sendValue(address payable recipient, uint256 amount) internal {\r\n        require(\r\n            address(this).balance >= amount,\r\n            \"Address: insufficient balance\"\r\n        );\r\n\r\n        // solhint-disable-next-line avoid-call-value\r\n        (bool success, ) = recipient.call.value(amount)(\"\");\r\n        require(\r\n            success,\r\n            \"Address: unable to send value, recipient may have reverted\"\r\n        );\r\n    }\r\n}\r\n\r\n/**\r\n * @title SafeERC20\r\n * @dev Wrappers around ERC20 operations that throw on failure (when the token\r\n * contract returns false). Tokens that return no value (and instead revert or\r\n * throw on failure) are also supported, non-reverting calls are assumed to be\r\n * successful.\r\n * To use this library you can add a `using SafeERC20 for ERC20;` statement to your contract,\r\n * which allows you to call the safe operations as `token.safeTransfer(...)`, etc.\r\n */\r\nlibrary SafeERC20 {\r\n    using SafeMath for uint256;\r\n    using Address for address;\r\n\r\n    function safeTransfer(\r\n        IERC20 token,\r\n        address to,\r\n        uint256 value\r\n    ) internal {\r\n        callOptionalReturn(\r\n            token,\r\n            abi.encodeWithSelector(token.transfer.selector, to, value)\r\n        );\r\n    }\r\n\r\n    function safeTransferFrom(\r\n        IERC20 token,\r\n        address from,\r\n        address to,\r\n        uint256 value\r\n    ) internal {\r\n        callOptionalReturn(\r\n            token,\r\n            abi.encodeWithSelector(token.transferFrom.selector, from, to, value)\r\n        );\r\n    }\r\n\r\n    function safeApprove(\r\n        IERC20 token,\r\n        address spender,\r\n        uint256 value\r\n    ) internal {\r\n        // safeApprove should only be called when setting an initial allowance,\r\n        // or when resetting it to zero. To increase and decrease it, use\r\n        // 'safeIncreaseAllowance' and 'safeDecreaseAllowance'\r\n        // solhint-disable-next-line max-line-length\r\n        require(\r\n            (value == 0) || (token.allowance(address(this), spender) == 0),\r\n            \"SafeERC20: approve from non-zero to non-zero allowance\"\r\n        );\r\n        callOptionalReturn(\r\n            token,\r\n            abi.encodeWithSelector(token.approve.selector, spender, value)\r\n        );\r\n    }\r\n\r\n    function safeIncreaseAllowance(\r\n        IERC20 token,\r\n        address spender,\r\n        uint256 value\r\n    ) internal {\r\n        uint256 newAllowance = token.allowance(address(this), spender).add(\r\n            value\r\n        );\r\n        callOptionalReturn(\r\n            token,\r\n            abi.encodeWithSelector(\r\n                token.approve.selector,\r\n                spender,\r\n                newAllowance\r\n            )\r\n        );\r\n    }\r\n\r\n    function safeDecreaseAllowance(\r\n        IERC20 token,\r\n        address spender,\r\n        uint256 value\r\n    ) internal {\r\n        uint256 newAllowance = token.allowance(address(this), spender).sub(\r\n            value,\r\n            \"SafeERC20: decreased allowance below zero\"\r\n        );\r\n        callOptionalReturn(\r\n            token,\r\n            abi.encodeWithSelector(\r\n                token.approve.selector,\r\n                spender,\r\n                newAllowance\r\n            )\r\n        );\r\n    }\r\n\r\n    /**\r\n     * @dev Imitates a Solidity high-level call (i.e. a regular function call to a contract), relaxing the requirement\r\n     * on the return value: the return value is optional (but if data is returned, it must not be false).\r\n     * @param token The token targeted by the call.\r\n     * @param data The call data (encoded using abi.encode or one of its variants).\r\n     */\r\n    function callOptionalReturn(IERC20 token, bytes memory data) private {\r\n        // We need to perform a low level call here, to bypass Solidity's return data size checking mechanism, since\r\n        // we're implementing it ourselves.\r\n\r\n        // A Solidity high level call has three parts:\r\n        //  1. The target address is checked to verify it contains contract code\r\n        //  2. The call itself is made, and success asserted\r\n        //  3. The return value is decoded, which in turn checks the size of the returned data.\r\n        // solhint-disable-next-line max-line-length\r\n        require(address(token).isContract(), \"SafeERC20: call to non-contract\");\r\n\r\n        // solhint-disable-next-line avoid-low-level-calls\r\n        (bool success, bytes memory returndata) = address(token).call(data);\r\n        require(success, \"SafeERC20: low-level call failed\");\r\n\r\n        if (returndata.length > 0) {\r\n            // Return data is optional\r\n            // solhint-disable-next-line max-line-length\r\n            require(\r\n                abi.decode(returndata, (bool)),\r\n                \"SafeERC20: ERC20 operation did not succeed\"\r\n            );\r\n        }\r\n    }\r\n}\r\n\r\n/**\r\n * @dev Contract module that helps prevent reentrant calls to a function.\r\n *\r\n * Inheriting from `ReentrancyGuard` will make the {nonReentrant} modifier\r\n * available, which can be applied to functions to make sure there are no nested\r\n * (reentrant) calls to them.\r\n *\r\n * Note that because there is a single `nonReentrant` guard, functions marked as\r\n * `nonReentrant` may not call one another. This can be worked around by making\r\n * those functions `private`, and then adding `external` `nonReentrant` entry\r\n * points to them.\r\n *\r\n * _Since v2.5.0:_ this module is now much more gas efficient, given net gas\r\n * metering changes introduced in the Istanbul hardfork.\r\n */\r\ncontract ReentrancyGuard {\r\n    bool private _notEntered;\r\n\r\n    constructor() internal {\r\n        // Storing an initial non-zero value makes deployment a bit more\r\n        // expensive, but in exchange the refund on every call to nonReentrant\r\n        // will be lower in amount. Since refunds are capped to a percetange of\r\n        // the total transaction's gas, it is best to keep them low in cases\r\n        // like this one, to increase the likelihood of the full refund coming\r\n        // into effect.\r\n        _notEntered = true;\r\n    }\r\n\r\n    /**\r\n     * @dev Prevents a contract from calling itself, directly or indirectly.\r\n     * Calling a `nonReentrant` function from another `nonReentrant`\r\n     * function is not supported. It is possible to prevent this from happening\r\n     * by making the `nonReentrant` function external, and make it call a\r\n     * `private` function that does the actual work.\r\n     */\r\n    modifier nonReentrant() {\r\n        // On the first call to nonReentrant, _notEntered will be true\r\n        require(_notEntered, \"ReentrancyGuard: reentrant call\");\r\n\r\n        // Any calls to nonReentrant after this point will fail\r\n        _notEntered = false;\r\n\r\n        _;\r\n\r\n        // By storing the original value once again, a refund is triggered (see\r\n        // https://eips.ethereum.org/EIPS/eip-2200)\r\n        _notEntered = true;\r\n    }\r\n}\r\n\r\n/*\r\n * @dev Provides information about the current execution context, including the\r\n * sender of the transaction and its data. While these are generally available\r\n * via msg.sender and msg.data, they should not be accessed in such a direct\r\n * manner, since when dealing with GSN meta-transactions the account sending and\r\n * paying for execution may not be the actual sender (as far as an application\r\n * is concerned).\r\n *\r\n * This contract is only required for intermediate, library-like contracts.\r\n */\r\ncontract Context {\r\n    // Empty internal constructor, to prevent people from mistakenly deploying\r\n    // an instance of this contract, which should be used via inheritance.\r\n    constructor() internal {}\r\n\r\n    // solhint-disable-previous-line no-empty-blocks\r\n\r\n    function _msgSender() internal view returns (address payable) {\r\n        return msg.sender;\r\n    }\r\n\r\n    function _msgData() internal view returns (bytes memory) {\r\n        this; // silence state mutability warning without generating bytecode - see https://github.com/ethereum/solidity/issues/2691\r\n        return msg.data;\r\n    }\r\n}\r\n\r\n/**\r\n * @dev Contract module which provides a basic access control mechanism, where\r\n * there is an account (an owner) that can be granted exclusive access to\r\n * specific functions.\r\n *\r\n * This module is used through inheritance. It will make available the modifier\r\n * `onlyOwner`, which can be applied to your functions to restrict their use to\r\n * the owner.\r\n */\r\ncontract Ownable is Context {\r\n    address payable public _owner;\r\n\r\n    event OwnershipTransferred(\r\n        address indexed previousOwner,\r\n        address indexed newOwner\r\n    );\r\n\r\n    /**\r\n     * @dev Initializes the contract setting the deployer as the initial owner.\r\n     */\r\n    constructor() internal {\r\n        address payable msgSender = _msgSender();\r\n        _owner = msgSender;\r\n        emit OwnershipTransferred(address(0), msgSender);\r\n    }\r\n\r\n    /**\r\n     * @dev Returns the address of the current owner.\r\n     */\r\n    function owner() public view returns (address) {\r\n        return _owner;\r\n    }\r\n\r\n    /**\r\n     * @dev Throws if called by any account other than the owner.\r\n     */\r\n    modifier onlyOwner() {\r\n        require(isOwner(), \"Ownable: caller is not the owner\");\r\n        _;\r\n    }\r\n\r\n    /**\r\n     * @dev Returns true if the caller is the current owner.\r\n     */\r\n    function isOwner() public view returns (bool) {\r\n        return _msgSender() == _owner;\r\n    }\r\n\r\n    /**\r\n     * @dev Leaves the contract without owner. It will not be possible to call\r\n     * `onlyOwner` functions anymore. Can only be called by the current owner.\r\n     *\r\n     * NOTE: Renouncing ownership will leave the contract without an owner,\r\n     * thereby removing any functionality that is only available to the owner.\r\n     */\r\n    function renounceOwnership() public onlyOwner {\r\n        emit OwnershipTransferred(_owner, address(0));\r\n        _owner = address(0);\r\n    }\r\n\r\n    /**\r\n     * @dev Transfers ownership of the contract to a new account (`newOwner`).\r\n     * Can only be called by the current owner.\r\n     */\r\n    function transferOwnership(address payable newOwner) public onlyOwner {\r\n        _transferOwnership(newOwner);\r\n    }\r\n\r\n    /**\r\n     * @dev Transfers ownership of the contract to a new account (`newOwner`).\r\n     */\r\n    function _transferOwnership(address payable newOwner) internal {\r\n        require(\r\n            newOwner != address(0),\r\n            \"Ownable: new owner is the zero address\"\r\n        );\r\n        emit OwnershipTransferred(_owner, newOwner);\r\n        _owner = newOwner;\r\n    }\r\n}\r\n\r\n// import \"@uniswap/lib/contracts/libraries/Babylonian.sol\";\r\nlibrary Babylonian {\r\n    function sqrt(uint256 y) internal pure returns (uint256 z) {\r\n        if (y > 3) {\r\n            z = y;\r\n            uint256 x = y / 2 + 1;\r\n            while (x < z) {\r\n                z = x;\r\n                x = (y / x + x) / 2;\r\n            }\r\n        } else if (y != 0) {\r\n            z = 1;\r\n        }\r\n        // else z = 0\r\n    }\r\n}\r\n\r\ninterface IWETH {\r\n    function deposit() external payable;\r\n\r\n    function transfer(address to, uint256 value) external returns (bool);\r\n\r\n    function withdraw(uint256) external;\r\n}\r\n\r\ninterface IUniswapV2Factory {\r\n    function getPair(address tokenA, address tokenB)\r\n        external\r\n        view\r\n        returns (address);\r\n}\r\n\r\ninterface IUniswapV2Router02 {\r\n    function factory() external pure returns (address);\r\n\r\n    function WETH() external pure returns (address);\r\n\r\n    function addLiquidity(\r\n        address tokenA,\r\n        address tokenB,\r\n        uint256 amountADesired,\r\n        uint256 amountBDesired,\r\n        uint256 amountAMin,\r\n        uint256 amountBMin,\r\n        address to,\r\n        uint256 deadline\r\n    )\r\n        external\r\n        returns (\r\n            uint256 amountA,\r\n            uint256 amountB,\r\n            uint256 liquidity\r\n        );\r\n\r\n    function addLiquidityETH(\r\n        address token,\r\n        uint256 amountTokenDesired,\r\n        uint256 amountTokenMin,\r\n        uint256 amountETHMin,\r\n        address to,\r\n        uint256 deadline\r\n    )\r\n        external\r\n        payable\r\n        returns (\r\n            uint256 amountToken,\r\n            uint256 amountETH,\r\n            uint256 liquidity\r\n        );\r\n\r\n    function removeLiquidity(\r\n        address tokenA,\r\n        address tokenB,\r\n        uint256 liquidity,\r\n        uint256 amountAMin,\r\n        uint256 amountBMin,\r\n        address to,\r\n        uint256 deadline\r\n    ) external returns (uint256 amountA, uint256 amountB);\r\n\r\n    function removeLiquidityETH(\r\n        address token,\r\n        uint256 liquidity,\r\n        uint256 amountTokenMin,\r\n        uint256 amountETHMin,\r\n        address to,\r\n        uint256 deadline\r\n    ) external returns (uint256 amountToken, uint256 amountETH);\r\n\r\n    function removeLiquidityWithPermit(\r\n        address tokenA,\r\n        address tokenB,\r\n        uint256 liquidity,\r\n        uint256 amountAMin,\r\n        uint256 amountBMin,\r\n        address to,\r\n        uint256 deadline,\r\n        bool approveMax,\r\n        uint8 v,\r\n        bytes32 r,\r\n        bytes32 s\r\n    ) external returns (uint256 amountA, uint256 amountB);\r\n\r\n    function removeLiquidityETHWithPermit(\r\n        address token,\r\n        uint256 liquidity,\r\n        uint256 amountTokenMin,\r\n        uint256 amountETHMin,\r\n        address to,\r\n        uint256 deadline,\r\n        bool approveMax,\r\n        uint8 v,\r\n        bytes32 r,\r\n        bytes32 s\r\n    ) external returns (uint256 amountToken, uint256 amountETH);\r\n\r\n    function swapExactTokensForTokens(\r\n        uint256 amountIn,\r\n        uint256 amountOutMin,\r\n        address[] calldata path,\r\n        address to,\r\n        uint256 deadline\r\n    ) external returns (uint256[] memory amounts);\r\n\r\n    function swapTokensForExactTokens(\r\n        uint256 amountOut,\r\n        uint256 amountInMax,\r\n        address[] calldata path,\r\n        address to,\r\n        uint256 deadline\r\n    ) external returns (uint256[] memory amounts);\r\n\r\n    function swapExactETHForTokens(\r\n        uint256 amountOutMin,\r\n        address[] calldata path,\r\n        address to,\r\n        uint256 deadline\r\n    ) external payable returns (uint256[] memory amounts);\r\n\r\n    function swapTokensForExactETH(\r\n        uint256 amountOut,\r\n        uint256 amountInMax,\r\n        address[] calldata path,\r\n        address to,\r\n        uint256 deadline\r\n    ) external returns (uint256[] memory amounts);\r\n\r\n    function swapExactTokensForETH(\r\n        uint256 amountIn,\r\n        uint256 amountOutMin,\r\n        address[] calldata path,\r\n        address to,\r\n        uint256 deadline\r\n    ) external returns (uint256[] memory amounts);\r\n\r\n    function swapETHForExactTokens(\r\n        uint256 amountOut,\r\n        address[] calldata path,\r\n        address to,\r\n        uint256 deadline\r\n    ) external payable returns (uint256[] memory amounts);\r\n\r\n    function removeLiquidityETHSupportingFeeOnTransferTokens(\r\n        address token,\r\n        uint256 liquidity,\r\n        uint256 amountTokenMin,\r\n        uint256 amountETHMin,\r\n        address to,\r\n        uint256 deadline\r\n    ) external returns (uint256 amountETH);\r\n\r\n    function removeLiquidityETHWithPermitSupportingFeeOnTransferTokens(\r\n        address token,\r\n        uint256 liquidity,\r\n        uint256 amountTokenMin,\r\n        uint256 amountETHMin,\r\n        address to,\r\n        uint256 deadline,\r\n        bool approveMax,\r\n        uint8 v,\r\n        bytes32 r,\r\n        bytes32 s\r\n    ) external returns (uint256 amountETH);\r\n\r\n    function swapExactTokensForTokensSupportingFeeOnTransferTokens(\r\n        uint256 amountIn,\r\n        uint256 amountOutMin,\r\n        address[] calldata path,\r\n        address to,\r\n        uint256 deadline\r\n    ) external;\r\n\r\n    function swapExactETHForTokensSupportingFeeOnTransferTokens(\r\n        uint256 amountOutMin,\r\n        address[] calldata path,\r\n        address to,\r\n        uint256 deadline\r\n    ) external payable;\r\n\r\n    function swapExactTokensForETHSupportingFeeOnTransferTokens(\r\n        uint256 amountIn,\r\n        uint256 amountOutMin,\r\n        address[] calldata path,\r\n        address to,\r\n        uint256 deadline\r\n    ) external;\r\n\r\n    function quote(\r\n        uint256 amountA,\r\n        uint256 reserveA,\r\n        uint256 reserveB\r\n    ) external pure returns (uint256 amountB);\r\n\r\n    function getAmountOut(\r\n        uint256 amountIn,\r\n        uint256 reserveIn,\r\n        uint256 reserveOut\r\n    ) external pure returns (uint256 amountOut);\r\n\r\n    function getAmountIn(\r\n        uint256 amountOut,\r\n        uint256 reserveIn,\r\n        uint256 reserveOut\r\n    ) external pure returns (uint256 amountIn);\r\n\r\n    function getAmountsOut(uint256 amountIn, address[] calldata path)\r\n        external\r\n        view\r\n        returns (uint256[] memory amounts);\r\n\r\n    function getAmountsIn(uint256 amountOut, address[] calldata path)\r\n        external\r\n        view\r\n        returns (uint256[] memory amounts);\r\n}\r\n\r\ninterface IUniswapV2Pair {\r\n    function token0() external pure returns (address);\r\n\r\n    function token1() external pure returns (address);\r\n\r\n    function getReserves()\r\n        external\r\n        view\r\n        returns (\r\n            uint112 _reserve0,\r\n            uint112 _reserve1,\r\n            uint32 _blockTimestampLast\r\n        );\r\n}\r\n\r\ncontract Parabellum_Uniswap_In_V1 is ReentrancyGuard, Ownable {\r\n    using SafeMath for uint256;\r\n    using Address for address;\r\n    using SafeERC20 for IERC20;\r\n\r\n    bool public stopped = false;\r\n    uint16 public goodwill;\r\n    address\r\n        private constant zgoodwillAddress = 0xE737b6AfEC2320f616297e59445b60a11e3eF75F;\r\n\r\n    IUniswapV2Factory\r\n        private constant UniSwapV2FactoryAddress = IUniswapV2Factory(\r\n        0x5C69bEe701ef814a2B6a3EDD4B1652CB9cc5aA6f\r\n    );\r\n\r\n    IUniswapV2Router02 private constant uniswapRouter = IUniswapV2Router02(\r\n        0x7a250d5630B4cF539739dF2C5dAcb4c659F2488D\r\n    );\r\n\r\n    //wethTokenAddress is Wrapped Ether \r\n    address\r\n        private constant wethTokenAddress = 0xC02aaA39b223FE8D0A0e5C4F27eAD9083C756Cc2;\r\n\r\n    uint256\r\n        private constant deadline = 0xf000000000000000000000000000000000000000000000000000000000000000;\r\n\r\n    constructor(uint16 _goodwill) public {\r\n        goodwill = _goodwill;\r\n    }\r\n\r\n    // circuit breaker modifiers\r\n    modifier stopInEmergency {\r\n        if (stopped) {\r\n            revert(\"Temporarily Paused\");\r\n        } else {\r\n            _;\r\n        }\r\n    }\r\n\r\n    /**\r\n    @notice This function is used to invest in given Uniswap V2 pair through ETH/ERC20 Tokens\r\n    @param _FromTokenContractAddress The ERC20 token used for investment (address(0x00) if ether)\r\n    @param _pairAddress The Uniswap pair address\r\n    @param _amount The amount of fromToken to invest\r\n    @param _minPoolTokens Reverts if less tokens received than this\r\n    @param _allowanceTarget Spender for the first swap\r\n    @param _swapTarget Excecution target for the first swap\r\n    @param swapData DEX quote data\r\n    @return Amount of LP bought\r\n     */\r\n    function ZapIn(\r\n        address _FromTokenContractAddress,\r\n        address _pairAddress,\r\n        uint256 _amount,\r\n        uint256 _minPoolTokens,\r\n        address _allowanceTarget,\r\n        address _swapTarget,\r\n        bytes calldata swapData\r\n    ) external payable nonReentrant stopInEmergency returns (uint256) {\r\n        uint256 toInvest;\r\n        if (_FromTokenContractAddress == address(0)) {\r\n            require(msg.value > 0, \"Error: ETH not sent\");\r\n            toInvest = msg.value;\r\n        } else {\r\n            require(msg.value == 0, \"Error: ETH sent\");\r\n            require(_amount > 0, \"Error: Invalid ERC amount\");\r\n            IERC20(_FromTokenContractAddress).safeTransferFrom(\r\n                msg.sender,\r\n                address(this),\r\n                _amount\r\n            );\r\n            toInvest = _amount;\r\n        }\r\n\r\n        uint256 LPBought = _performZapIn(\r\n            _FromTokenContractAddress,\r\n            _pairAddress,\r\n            toInvest,\r\n            _allowanceTarget,\r\n            _swapTarget,\r\n            swapData\r\n        );\r\n        require(LPBought >= _minPoolTokens, \"ERR: High Slippage\");\r\n\r\n        //transfer goodwill\r\n        uint256 goodwillPortion = _transferGoodwill(_pairAddress, LPBought);\r\n\r\n        IERC20(_pairAddress).safeTransfer(\r\n            msg.sender,\r\n            SafeMath.sub(LPBought, goodwillPortion)\r\n        );\r\n        return SafeMath.sub(LPBought, goodwillPortion);\r\n    }\r\n\r\n    function _getPairTokens(address _pairAddress)\r\n        internal\r\n        pure\r\n        returns (address token0, address token1)\r\n    {\r\n        IUniswapV2Pair uniPair = IUniswapV2Pair(_pairAddress);\r\n        token0 = uniPair.token0();\r\n        token1 = uniPair.token1();\r\n    }\r\n\r\n    function _performZapIn(\r\n        address _FromTokenContractAddress,\r\n        address _pairAddress,\r\n        uint256 _amount,\r\n        address _allowanceTarget,\r\n        address _swapTarget,\r\n        bytes memory swapData\r\n    ) internal returns (uint256) {\r\n        uint256 intermediateAmt;\r\n        address intermediateToken;\r\n        (address _ToUniswapToken0, address _ToUniswapToken1) = _getPairTokens(\r\n            _pairAddress\r\n        );\r\n\r\n        if (\r\n            _FromTokenContractAddress != _ToUniswapToken0 &&\r\n            _FromTokenContractAddress != _ToUniswapToken1\r\n        ) {\r\n            // swap to intermediate\r\n            (intermediateAmt, intermediateToken) = _fillQuote(\r\n                _FromTokenContractAddress,\r\n                _pairAddress,\r\n                _amount,\r\n                _allowanceTarget,\r\n                _swapTarget,\r\n                swapData\r\n            );\r\n        } else {\r\n            intermediateToken = _FromTokenContractAddress;\r\n            intermediateAmt = _amount;\r\n        }\r\n        // divide intermediate into appropriate amount to add liquidity\r\n        (uint256 token0Bought, uint256 token1Bought) = _swapIntermediate(\r\n            intermediateToken,\r\n            _ToUniswapToken0,\r\n            _ToUniswapToken1,\r\n            intermediateAmt\r\n        );\r\n\r\n        return\r\n            _uniDeposit(\r\n                _ToUniswapToken0,\r\n                _ToUniswapToken1,\r\n                token0Bought,\r\n                token1Bought\r\n            );\r\n    }\r\n\r\n    function _uniDeposit(\r\n        address _ToUnipoolToken0,\r\n        address _ToUnipoolToken1,\r\n        uint256 token0Bought,\r\n        uint256 token1Bought\r\n    ) internal returns (uint256) {\r\n        IERC20(_ToUnipoolToken0).safeApprove(address(uniswapRouter), 0);\r\n        IERC20(_ToUnipoolToken1).safeApprove(address(uniswapRouter), 0);\r\n\r\n        IERC20(_ToUnipoolToken0).safeApprove(\r\n            address(uniswapRouter),\r\n            token0Bought\r\n        );\r\n        IERC20(_ToUnipoolToken1).safeApprove(\r\n            address(uniswapRouter),\r\n            token1Bought\r\n        );\r\n\r\n        (uint256 amountA, uint256 amountB, uint256 LP) = uniswapRouter\r\n            .addLiquidity(\r\n            _ToUnipoolToken0,\r\n            _ToUnipoolToken1,\r\n            token0Bought,\r\n            token1Bought,\r\n            1,\r\n            1,\r\n            address(this),\r\n            deadline\r\n        );\r\n\r\n        //Returning Residue in token0, if any.\r\n        if (token0Bought.sub(amountA) > 0) {\r\n            IERC20(_ToUnipoolToken0).safeTransfer(\r\n                msg.sender,\r\n                token0Bought.sub(amountA)\r\n            );\r\n        }\r\n\r\n        //Returning Residue in token1, if any\r\n        if (token1Bought.sub(amountB) > 0) {\r\n            IERC20(_ToUnipoolToken1).safeTransfer(\r\n                msg.sender,\r\n                token1Bought.sub(amountB)\r\n            );\r\n        }\r\n\r\n        return LP;\r\n    }\r\n\r\n    function _fillQuote(\r\n        address _fromTokenAddress,\r\n        address _pairAddress,\r\n        uint256 _amount,\r\n        address _allowanceTarget,\r\n        address _swapTarget,\r\n        bytes memory swapCallData\r\n    ) internal returns (uint256 amountBought, address intermediateToken) {\r\n        uint256 valueToSend;\r\n        if (_fromTokenAddress == address(0)) {\r\n            valueToSend = _amount;\r\n        } else {\r\n            IERC20 fromToken = IERC20(_fromTokenAddress);\r\n            fromToken.safeApprove(address(_allowanceTarget), 0);\r\n            fromToken.safeApprove(address(_allowanceTarget), _amount);\r\n        }\r\n\r\n        (address _token0, address _token1) = _getPairTokens(_pairAddress);\r\n        IERC20 token0 = IERC20(_token0);\r\n        IERC20 token1 = IERC20(_token1);\r\n        uint256 initialBalance0 = token0.balanceOf(address(this));\r\n        uint256 initialBalance1 = token1.balanceOf(address(this));\r\n\r\n        (bool success, ) = _swapTarget.call.value(valueToSend)(swapCallData);\r\n        require(success, \"Error Swapping Tokens 1\");\r\n\r\n        uint256 finalBalance0 = token0.balanceOf(address(this)).sub(\r\n            initialBalance0\r\n        );\r\n        uint256 finalBalance1 = token1.balanceOf(address(this)).sub(\r\n            initialBalance1\r\n        );\r\n\r\n        if (finalBalance0 > finalBalance1) {\r\n            amountBought = finalBalance0;\r\n            intermediateToken = _token0;\r\n        } else {\r\n            amountBought = finalBalance1;\r\n            intermediateToken = _token1;\r\n        }\r\n\r\n        require(amountBought > 0, \"Swapped to Invalid Intermediate\");\r\n    }\r\n\r\n    function _swapIntermediate(\r\n        address _toContractAddress,\r\n        address _ToUnipoolToken0,\r\n        address _ToUnipoolToken1,\r\n        uint256 _amount\r\n    ) internal returns (uint256 token0Bought, uint256 token1Bought) {\r\n        IUniswapV2Pair pair = IUniswapV2Pair(\r\n            UniSwapV2FactoryAddress.getPair(_ToUnipoolToken0, _ToUnipoolToken1)\r\n        );\r\n        (uint256 res0, uint256 res1, ) = pair.getReserves();\r\n        if (_toContractAddress == _ToUnipoolToken0) {\r\n            uint256 amountToSwap = calculateSwapInAmount(res0, _amount);\r\n            //if no reserve or a new pair is created\r\n            if (amountToSwap <= 0) amountToSwap = _amount.div(2);\r\n            token1Bought = _token2Token(\r\n                _toContractAddress,\r\n                _ToUnipoolToken1,\r\n                amountToSwap\r\n            );\r\n            token0Bought = _amount.sub(amountToSwap);\r\n        } else {\r\n            uint256 amountToSwap = calculateSwapInAmount(res1, _amount);\r\n            //if no reserve or a new pair is created\r\n            if (amountToSwap <= 0) amountToSwap = _amount.div(2);\r\n            token0Bought = _token2Token(\r\n                _toContractAddress,\r\n                _ToUnipoolToken0,\r\n                amountToSwap\r\n            );\r\n            token1Bought = _amount.sub(amountToSwap);\r\n        }\r\n    }\r\n\r\n    function calculateSwapInAmount(uint256 reserveIn, uint256 userIn)\r\n        internal\r\n        pure\r\n        returns (uint256)\r\n    {\r\n        return\r\n            Babylonian\r\n                .sqrt(\r\n                reserveIn.mul(userIn.mul(3988000) + reserveIn.mul(3988009))\r\n            )\r\n                .sub(reserveIn.mul(1997)) / 1994;\r\n    }\r\n\r\n    /**\r\n    @notice This function is used to swap ERC20 <> ERC20\r\n    @param _FromTokenContractAddress The token address to swap from.\r\n    @param _ToTokenContractAddress The token address to swap to. \r\n    @param tokens2Trade The amount of tokens to swap\r\n    @return tokenBought The quantity of tokens bought\r\n    */\r\n    function _token2Token(\r\n        address _FromTokenContractAddress,\r\n        address _ToTokenContractAddress,\r\n        uint256 tokens2Trade\r\n    ) internal returns (uint256 tokenBought) {\r\n        if (_FromTokenContractAddress == _ToTokenContractAddress) {\r\n            return tokens2Trade;\r\n        }\r\n        IERC20(_FromTokenContractAddress).safeApprove(\r\n            address(uniswapRouter),\r\n            0\r\n        );\r\n        IERC20(_FromTokenContractAddress).safeApprove(\r\n            address(uniswapRouter),\r\n            tokens2Trade\r\n        );\r\n\r\n        address pair = UniSwapV2FactoryAddress.getPair(\r\n            _FromTokenContractAddress,\r\n            _ToTokenContractAddress\r\n        );\r\n        require(pair != address(0), \"No Swap Available\");\r\n        address[] memory path = new address[](2);\r\n        path[0] = _FromTokenContractAddress;\r\n        path[1] = _ToTokenContractAddress;\r\n\r\n        tokenBought = uniswapRouter.swapExactTokensForTokens(\r\n            tokens2Trade,\r\n            1,\r\n            path,\r\n            address(this),\r\n            deadline\r\n        )[path.length - 1];\r\n\r\n        require(tokenBought > 0, \"Error Swapping Tokens 2\");\r\n    }\r\n\r\n    /**\r\n    @notice This function is used to calculate and transfer goodwill\r\n    @param _tokenContractAddress Token in which goodwill is deducted\r\n    @param tokens2Trade The total amount of tokens to be zapped in\r\n    @return The quantity of goodwill deducted\r\n     */\r\n    function _transferGoodwill(\r\n        address _tokenContractAddress,\r\n        uint256 tokens2Trade\r\n    ) internal returns (uint256 goodwillPortion) {\r\n        goodwillPortion = SafeMath.div(\r\n            SafeMath.mul(tokens2Trade, goodwill),\r\n            10000\r\n        );\r\n\r\n        if (goodwillPortion == 0) {\r\n            return 0;\r\n        }\r\n\r\n        IERC20(_tokenContractAddress).safeTransfer(\r\n            zgoodwillAddress,\r\n            goodwillPortion\r\n        );\r\n    }\r\n\r\n    function set_new_goodwill(uint16 _new_goodwill) public onlyOwner {\r\n        require(\r\n            _new_goodwill >= 0 && _new_goodwill < 10000,\r\n            \"GoodWill Value not allowed\"\r\n        );\r\n        goodwill = _new_goodwill;\r\n    }\r\n\r\n    function inCaseTokengetsStuck(IERC20 _TokenAddress) public onlyOwner {\r\n        uint256 qty = _TokenAddress.balanceOf(address(this));\r\n        _TokenAddress.safeTransfer(owner(), qty);\r\n    }\r\n\r\n    // - to Pause the contract\r\n    function toggleContractActive() public onlyOwner {\r\n        stopped = !stopped;\r\n    }\r\n\r\n    // - to withdraw any ETH balance sitting in the contract\r\n    function withdraw() public onlyOwner {\r\n        uint256 contractBalance = address(this).balance;\r\n        address payable _to = owner().toPayable();\r\n        _to.transfer(contractBalance);\r\n    }\r\n}",
  "sourcePath": "C:/Users/jaype/antebellum_projects/ParabellumLiquidity/contracts/Parabellum_Uniswap_In_V1.sol",
  "compiler": {
    "name": "solc",
    "version": "0.5.17+commit.d19bba13.Emscripten.clang"
  },
  "schemaVersion": "3.3.4",
  "updatedAt": "2021-04-07T14:31:36.792Z",
  "devdoc": {
    "methods": {
      "ZapIn(address,address,uint256,uint256,address,address,bytes)": {
        "params": {
          "_FromTokenContractAddress": "The ERC20 token used for investment (address(0x00) if ether)",
          "_allowanceTarget": "Spender for the first swap",
          "_amount": "The amount of fromToken to invest",
          "_minPoolTokens": "Reverts if less tokens received than this",
          "_pairAddress": "The Uniswap pair address",
          "_swapTarget": "Excecution target for the first swap",
          "swapData": "DEX quote data"
        },
        "return": "Amount of LP bought"
      },
      "isOwner()": {
        "details": "Returns true if the caller is the current owner."
      },
      "owner()": {
        "details": "Returns the address of the current owner."
      },
      "renounceOwnership()": {
        "details": "Leaves the contract without owner. It will not be possible to call `onlyOwner` functions anymore. Can only be called by the current owner.      * NOTE: Renouncing ownership will leave the contract without an owner, thereby removing any functionality that is only available to the owner."
      },
      "transferOwnership(address)": {
        "details": "Transfers ownership of the contract to a new account (`newOwner`). Can only be called by the current owner."
      }
    }
  },
  "userdoc": {
    "methods": {
      "ZapIn(address,address,uint256,uint256,address,address,bytes)": {
        "notice": "This function is used to invest in given Uniswap V2 pair through ETH/ERC20 Tokens"
      }
    }
  }
}