{
  "contractName": "Parabellum_In_General_V2_4_1",
  "abi": [
    {
      "constant": true,
      "inputs": [],
      "name": "goodwill",
      "outputs": [
        {
          "name": "",
          "type": "uint16"
        }
      ],
      "payable": false,
      "stateMutability": "view",
      "type": "function"
    },
    {
      "constant": false,
      "inputs": [],
      "name": "renounceOwnership",
      "outputs": [],
      "payable": false,
      "stateMutability": "nonpayable",
      "type": "function"
    },
    {
      "constant": true,
      "inputs": [],
      "name": "stopped",
      "outputs": [
        {
          "name": "",
          "type": "bool"
        }
      ],
      "payable": false,
      "stateMutability": "view",
      "type": "function"
    },
    {
      "constant": true,
      "inputs": [],
      "name": "owner",
      "outputs": [
        {
          "name": "",
          "type": "address"
        }
      ],
      "payable": false,
      "stateMutability": "view",
      "type": "function"
    },
    {
      "constant": true,
      "inputs": [],
      "name": "isOwner",
      "outputs": [
        {
          "name": "",
          "type": "bool"
        }
      ],
      "payable": false,
      "stateMutability": "view",
      "type": "function"
    },
    {
      "constant": true,
      "inputs": [],
      "name": "_owner",
      "outputs": [
        {
          "name": "",
          "type": "address"
        }
      ],
      "payable": false,
      "stateMutability": "view",
      "type": "function"
    },
    {
      "constant": false,
      "inputs": [
        {
          "name": "newOwner",
          "type": "address"
        }
      ],
      "name": "transferOwnership",
      "outputs": [],
      "payable": false,
      "stateMutability": "nonpayable",
      "type": "function"
    },
    {
      "inputs": [
        {
          "name": "_goodwill",
          "type": "uint16"
        }
      ],
      "payable": false,
      "stateMutability": "nonpayable",
      "type": "constructor"
    },
    {
      "payable": true,
      "stateMutability": "payable",
      "type": "fallback"
    },
    {
      "anonymous": false,
      "inputs": [
        {
          "indexed": true,
          "name": "previousOwner",
          "type": "address"
        },
        {
          "indexed": true,
          "name": "newOwner",
          "type": "address"
        }
      ],
      "name": "OwnershipTransferred",
      "type": "event"
    },
    {
      "constant": false,
      "inputs": [
        {
          "name": "_toWhomToIssue",
          "type": "address"
        },
        {
          "name": "_FromTokenContractAddress",
          "type": "address"
        },
        {
          "name": "_ToUnipoolToken0",
          "type": "address"
        },
        {
          "name": "_ToUnipoolToken1",
          "type": "address"
        },
        {
          "name": "_amount",
          "type": "uint256"
        },
        {
          "name": "_minPoolTokens",
          "type": "uint256"
        }
      ],
      "name": "ZapIn",
      "outputs": [
        {
          "name": "",
          "type": "uint256"
        }
      ],
      "payable": true,
      "stateMutability": "payable",
      "type": "function"
    },
    {
      "constant": true,
      "inputs": [
        {
          "name": "reserveIn",
          "type": "uint256"
        },
        {
          "name": "userIn",
          "type": "uint256"
        }
      ],
      "name": "calculateSwapInAmount",
      "outputs": [
        {
          "name": "",
          "type": "uint256"
        }
      ],
      "payable": false,
      "stateMutability": "pure",
      "type": "function"
    },
    {
      "constant": false,
      "inputs": [
        {
          "name": "_new_goodwill",
          "type": "uint16"
        }
      ],
      "name": "set_new_goodwill",
      "outputs": [],
      "payable": false,
      "stateMutability": "nonpayable",
      "type": "function"
    },
    {
      "constant": false,
      "inputs": [
        {
          "name": "_TokenAddress",
          "type": "address"
        }
      ],
      "name": "inCaseTokengetsStuck",
      "outputs": [],
      "payable": false,
      "stateMutability": "nonpayable",
      "type": "function"
    },
    {
      "constant": false,
      "inputs": [],
      "name": "toggleContractActive",
      "outputs": [],
      "payable": false,
      "stateMutability": "nonpayable",
      "type": "function"
    },
    {
      "constant": false,
      "inputs": [],
      "name": "withdraw",
      "outputs": [],
      "payable": false,
      "stateMutability": "nonpayable",
      "type": "function"
    }
  ],
  "bytecode": "0x608060405260008054600160a81b60ff02191690553480156200002157600080fd5b5060405160208062002ec0833981018060405260208110156200004357600080fd5b50516000805460ff1916600117815562000063620000f1602090811b901c565b60008054610100600160a81b0319166101006001600160a01b038416908102919091178255604051929350917f8be0079c531659141344cd1fd0a4f28419497f9722a3daafe3b4186f6b6457e0908290a3506000805461ffff90921676010000000000000000000000000000000000000000000002600160b01b61ffff0219909216919091179055620000f5565b3390565b612dbb80620001056000396000f3fe6080604052600436106100c25760003560e01c806375f12b211161007f5780638f32d59b116100595780638f32d59b146102a2578063b10e1dbc146102b7578063b2bdfa7b146102e5578063f2fde38b146102fa576100c2565b806375f12b21146102185780638d7e41a8146102415780638da5cb5b14610271576100c2565b80631385d24c1461011c5780631d572320146101315780633ccfd60b1461018f578063551196d5146101a45780635de0398e146101d7578063715018a614610203575b3332141561011a5760408051600160e51b62461bcd02815260206004820152601860248201527f446f206e6f742073656e6420455448206469726563746c790000000000000000604482015290519081900360640190fd5b005b34801561012857600080fd5b5061011a61032d565b61017d600480360360c081101561014757600080fd5b506001600160a01b0381358116916020810135821691604082013581169160608101359091169060808101359060a0013561039b565b60408051918252519081900360200190f35b34801561019b57600080fd5b5061011a6106f6565b3480156101b057600080fd5b5061011a600480360360208110156101c757600080fd5b50356001600160a01b031661079b565b3480156101e357600080fd5b506101ec610886565b6040805161ffff9092168252519081900360200190f35b34801561020f57600080fd5b5061011a610897565b34801561022457600080fd5b5061022d610930565b604080519115158252519081900360200190f35b34801561024d57600080fd5b5061017d6004803603604081101561026457600080fd5b5080359060200135610940565b34801561027d57600080fd5b506102866109b6565b604080516001600160a01b039092168252519081900360200190f35b3480156102ae57600080fd5b5061022d6109ca565b3480156102c357600080fd5b5061011a600480360360208110156102da57600080fd5b503561ffff166109f3565b3480156102f157600080fd5b50610286610abf565b34801561030657600080fd5b5061011a6004803603602081101561031d57600080fd5b50356001600160a01b0316610ad3565b6103356109ca565b6103775760408051600160e51b62461bcd0281526020600482018190526024820152600080516020612d46833981519152604482015290519081900360640190fd5b60008054600160a81b60ff02198116600160a81b9182900460ff1615909102179055565b6000805460ff166103f65760408051600160e51b62461bcd02815260206004820152601f60248201527f5265656e7472616e637947756172643a207265656e7472616e742063616c6c00604482015290519081900360640190fd5b6000805460ff191690819055600160a81b900460ff16156104615760408051600160e51b62461bcd02815260206004820152601260248201527f54656d706f726172696c79205061757365640000000000000000000000000000604482015290519081900360640190fd5b60006001600160a01b0387166104d057600034116104c95760408051600160e51b62461bcd02815260206004820152601360248201527f4572726f723a20455448206e6f742073656e7400000000000000000000000000604482015290519081900360640190fd5b503461059c565b34156105265760408051600160e51b62461bcd02815260206004820152600f60248201527f4572726f723a204554482073656e740000000000000000000000000000000000604482015290519081900360640190fd5b6000841161057e5760408051600160e51b62461bcd02815260206004820152601960248201527f4572726f723a20496e76616c69642045524320616d6f756e7400000000000000604482015290519081900360640190fd5b6105996001600160a01b03881633308763ffffffff610b2916565b50825b60006105ab8989898986610b8c565b9050838110156106055760408051600160e51b62461bcd02815260206004820152601260248201527f4552523a204869676820536c6970706167650000000000000000000000000000604482015290519081900360640190fd5b60408051600160e01b63e6a439050281526001600160a01b038981166004830152881660248201529051600091735c69bee701ef814a2b6a3edd4b1652cb9cc5aa6f9163e6a4390591604480820192602092909190829003018186803b15801561066e57600080fd5b505afa158015610682573d6000803e3d6000fd5b505050506040513d602081101561069857600080fd5b5051905060006106a88284610da0565b90506106cf8b6106b88584610e03565b6001600160a01b038516919063ffffffff610e4c16565b6106d98382610e03565b9450505050506000805460ff191660011790559695505050505050565b6106fe6109ca565b6107405760408051600160e51b62461bcd0281526020600482018190526024820152600080516020612d46833981519152604482015290519081900360640190fd5b3031600061075d61074f6109b6565b6001600160a01b0316610ea1565b6040519091506001600160a01b0382169083156108fc029084906000818181858888f19350505050158015610796573d6000803e3d6000fd5b505050565b6107a36109ca565b6107e55760408051600160e51b62461bcd0281526020600482018190526024820152600080516020612d46833981519152604482015290519081900360640190fd5b60408051600160e01b6370a0823102815230600482015290516000916001600160a01b038416916370a0823191602480820192602092909190829003018186803b15801561083257600080fd5b505afa158015610846573d6000803e3d6000fd5b505050506040513d602081101561085c57600080fd5b5051905061088261086b6109b6565b6001600160a01b038416908363ffffffff610e4c16565b5050565b600054600160b01b900461ffff1681565b61089f6109ca565b6108e15760408051600160e51b62461bcd0281526020600482018190526024820152600080516020612d46833981519152604482015290519081900360640190fd5b600080546040516101009091046001600160a01b0316907f8be0079c531659141344cd1fd0a4f28419497f9722a3daafe3b4186f6b6457e0908390a360008054610100600160a81b0319169055565b600054600160a81b900460ff1681565b60006107ca6109a561095a856107cd63ffffffff610ea816565b61099961099461097388623cda2963ffffffff610ea816565b61098688623cda2063ffffffff610ea816565b89910163ffffffff610ea816565b610f04565b9063ffffffff610e0316565b816109ac57fe5b0490505b92915050565b60005461010090046001600160a01b031690565b6000805461010090046001600160a01b03166109e4610f55565b6001600160a01b031614905090565b6109fb6109ca565b610a3d5760408051600160e51b62461bcd0281526020600482018190526024820152600080516020612d46833981519152604482015290519081900360640190fd5b6127108161ffff1610610a9a5760408051600160e51b62461bcd02815260206004820152601a60248201527f476f6f6457696c6c2056616c7565206e6f7420616c6c6f776564000000000000604482015290519081900360640190fd5b6000805461ffff909216600160b01b02600160b01b61ffff0219909216919091179055565b60005461010090046001600160a01b031681565b610adb6109ca565b610b1d5760408051600160e51b62461bcd0281526020600482018190526024820152600080516020612d46833981519152604482015290519081900360640190fd5b610b2681610f59565b50565b604080516001600160a01b0385811660248301528416604482015260648082018490528251808303909101815260849091019091526020810180516001600160e01b0316600160e01b6323b872dd02179052610b86908590611007565b50505050565b600080610b9b868487876111c8565b90506000610baa8783866113f2565b60408051600160e01b63e6a439050281526001600160a01b03898116600483015288166024820152905191925060009182918291735c69bee701ef814a2b6a3edd4b1652cb9cc5aa6f9163e6a43905916044808301926020929190829003018186803b158015610c1957600080fd5b505afa158015610c2d573d6000803e3d6000fd5b505050506040513d6020811015610c4357600080fd5b505160408051600160e21b630240bc6b028152905191925060009182916001600160a01b03851691630902f1ac91600480820192606092909190829003018186803b158015610c9157600080fd5b505afa158015610ca5573d6000803e3d6000fd5b505050506040513d6060811015610cbb57600080fd5b5080516020909101516001600160701b0391821693501690506001600160a01b03878116908c161415610d37576000610cf48388610940565b905060008111610d1257610d0f87600263ffffffff6123a616565b90505b610d1d888c836113f2565b9450610d2f878263ffffffff610e0316565b955050610d82565b6000610d438288610940565b905060008111610d6157610d5e87600263ffffffff6123a616565b90505b610d6c888d836113f2565b9550610d7e878263ffffffff610e0316565b9450505b610d8f8d8c8c88886123e8565b9d9c50505050505050505050505050565b60008054610dc690610dbe908490600160b01b900461ffff16610ea8565b6127106123a6565b905080610dd5575060006109b0565b6109b06001600160a01b03841673e737b6afec2320f616297e59445b60a11e3ef75f8363ffffffff610e4c16565b6000610e4583836040518060400160405280601e81526020017f536166654d6174683a207375627472616374696f6e206f766572666c6f7700008152506125a3565b9392505050565b604080516001600160a01b038416602482015260448082018490528251808303909101815260649091019091526020810180516001600160e01b0316600160e01b63a9059cbb02179052610796908490611007565b805b919050565b600082610eb7575060006109b0565b82820282848281610ec457fe5b0414610e4557604051600160e51b62461bcd028152600401808060200182810382526021815260200180612d256021913960400191505060405180910390fd5b60006003821115610f47575080600160028204015b81811015610f4157809150600281828581610f3057fe5b040181610f3957fe5b049050610f19565b50610ea3565b8115610ea357506001919050565b3390565b6001600160a01b038116610fa157604051600160e51b62461bcd028152600401808060200182810382526026815260200180612cdf6026913960400191505060405180910390fd5b600080546040516001600160a01b038085169361010090930416917f8be0079c531659141344cd1fd0a4f28419497f9722a3daafe3b4186f6b6457e091a3600080546001600160a01b0390921661010002610100600160a81b0319909216919091179055565b611019826001600160a01b031661263d565b61106d5760408051600160e51b62461bcd02815260206004820152601f60248201527f5361666545524332303a2063616c6c20746f206e6f6e2d636f6e747261637400604482015290519081900360640190fd5b60006060836001600160a01b0316836040518082805190602001908083835b602083106110ab5780518252601f19909201916020918201910161108c565b6001836020036101000a0380198251168184511680821785525050505050509050019150506000604051808303816000865af19150503d806000811461110d576040519150601f19603f3d011682016040523d82523d6000602084013e611112565b606091505b50915091508161116c5760408051600160e51b62461bcd02815260206004820181905260248201527f5361666545524332303a206c6f772d6c6576656c2063616c6c206661696c6564604482015290519081900360640190fd5b805115610b865780806020019051602081101561118857600080fd5b5051610b8657604051600160e51b62461bcd02815260040180806020018281038252602a815260200180612d66602a913960400191505060405180910390fd5b60006001600160a01b0385166111ea57600080516020612cbf83398151915294505b826001600160a01b0316856001600160a01b0316141561120b5750816113ea565b816001600160a01b0316856001600160a01b0316141561122c5750806113ea565b60408051600160e01b63e6a439050281526001600160a01b038581166004830152841660248201529051600091735c69bee701ef814a2b6a3edd4b1652cb9cc5aa6f9163e6a4390591604480820192602092909190829003018186803b15801561129557600080fd5b505afa1580156112a9573d6000803e3d6000fd5b505050506040513d60208110156112bf57600080fd5b505160408051600160e21b630240bc6b028152905191925060009182916001600160a01b03851691630902f1ac91600480820192606092909190829003018186803b15801561130d57600080fd5b505afa158015611321573d6000803e3d6000fd5b505050506040513d606081101561133757600080fd5b5080516020909101516001600160701b03918216935016905060008082841061136f5782848161136357fe5b0491506001905061137c565b83838161137857fe5b0491505b60006113898b8b8b612676565b905060006113988c8c8b612676565b905082156113c75781848202106113b857889750505050505050506113ea565b899750505050505050506113ea565b80848302106113df57899750505050505050506113ea565b889750505050505050505b949350505050565b6000826001600160a01b0316846001600160a01b03161415611415575080610e45565b6001600160a01b03841661168b576001600160a01b038316600080516020612cbf83398151915214156114ac57600080516020612cbf8339815191526001600160a01b031663d0e30db0836040518263ffffffff1660e01b81526004016000604051808303818588803b15801561148b57600080fd5b505af115801561149f573d6000803e3d6000fd5b5050505050819050610e45565b6040805160028082526060808301845292602083019080388339019050509050600080516020612cbf833981519152816000815181106114e857fe5b60200260200101906001600160a01b031690816001600160a01b031681525050838160018151811061151657fe5b6001600160a01b03909216602092830291909101820152604051600160e01b637ff36ab50281526001600482018181523060448401819052600160fc1b600f0260648501819052608060248601908152875160848701528751600080516020612d0583398151915297637ff36ab5978c97968b9695949093909260a490920191878101910280838360005b838110156115b95781810151838201526020016115a1565b50505050905001955050505050506000604051808303818588803b1580156115e057600080fd5b505af11580156115f4573d6000803e3d6000fd5b50505050506040513d6000823e601f3d908101601f19168201604052602081101561161e57600080fd5b810190808051600160201b81111561163557600080fd5b8201602081018481111561164857600080fd5b81518560208202830111600160201b8211171561166457600080fd5b505092919050505060018251038151811061167b57fe5b602002602001015191505061234e565b6001600160a01b0383166118cd576001600160a01b038416600080516020612cbf833981519152141561172c57600080516020612cbf8339815191526001600160a01b0316632e1a7d4d836040518263ffffffff1660e01b815260040180828152602001915050600060405180830381600087803b15801561170c57600080fd5b505af1158015611720573d6000803e3d6000fd5b50505050819050610e45565b6117546001600160a01b038516600080516020612d058339815191528463ffffffff612b0d16565b6040805160028082526060808301845292602083019080388339019050509050848160008151811061178257fe5b60200260200101906001600160a01b031690816001600160a01b031681525050600080516020612cbf833981519152816001815181106117be57fe5b6001600160a01b03909216602092830291909101820152604051600160e01b6318cbafe5028152600481018581526001602483018190523060648401819052600160fc1b600f026084850181905260a060448601908152875160a48701528751600080516020612d05833981519152976318cbafe5978c978b9695949093909260c490920191878101910280838360005b8381101561186757818101518382015260200161184f565b505050509050019650505050505050600060405180830381600087803b15801561189057600080fd5b505af11580156118a4573d6000803e3d6000fd5b505050506040513d6000823e601f3d908101601f19168201604052602081101561161e57600080fd5b6118f56001600160a01b038516600080516020612d058339815191528463ffffffff612b0d16565b6001600160a01b038416600080516020612cbf8339815191521461216c576001600160a01b038316600080516020612cbf833981519152146120565760408051600160e01b63e6a439050281526001600160a01b038681166004830152851660248201529051600091735c69bee701ef814a2b6a3edd4b1652cb9cc5aa6f9163e6a4390591604480820192602092909190829003018186803b15801561199a57600080fd5b505afa1580156119ae573d6000803e3d6000fd5b505050506040513d60208110156119c457600080fd5b505160408051600280825260608083018452939450909160208301908038833901905050905085816000815181106119f857fe5b60200260200101906001600160a01b031690816001600160a01b0316815250508481600181518110611a2657fe5b6001600160a01b039283166020918202929092010152600090831615611b7a5760408051600160e01b63d06ca61f0281526004810187815260248201928352845160448301528451600080516020612d058339815191529363d06ca61f938a938893909291606401906020808601910280838360005b83811015611ab4578181015183820152602001611a9c565b50505050905001935050505060006040518083038186803b158015611ad857600080fd5b505afa158015611aec573d6000803e3d6000fd5b505050506040513d6000823e601f3d908101601f191682016040526020811015611b1557600080fd5b810190808051600160201b811115611b2c57600080fd5b82016020810184811115611b3f57600080fd5b81518560208202830111600160201b82111715611b5b57600080fd5b5050929190505050600181518110611b6f57fe5b602002602001015190505b604080516003808252608082019092526060916020820183803883390190505090508781600081518110611baa57fe5b60200260200101906001600160a01b031690816001600160a01b031681525050600080516020612cbf83398151915281600181518110611be657fe5b60200260200101906001600160a01b031690816001600160a01b0316815250508681600281518110611c1457fe5b6001600160a01b0390921660209283029190910182015260408051600160e01b63d06ca61f0281526004810189815260248201928352845160448301528451600094600080516020612d058339815191529463d06ca61f948d948994909360649092019185810191028083838c5b83811015611c9a578181015183820152602001611c82565b50505050905001935050505060006040518083038186803b158015611cbe57600080fd5b505afa158015611cd2573d6000803e3d6000fd5b505050506040513d6000823e601f3d908101601f191682016040526020811015611cfb57600080fd5b810190808051600160201b811115611d1257600080fd5b82016020810184811115611d2557600080fd5b81518560208202830111600160201b82111715611d4157600080fd5b5050929190505050600281518110611d5557fe5b60200260200101519050808310611edb57600080516020612d058339815191526001600160a01b03166338ed17398860018730600160fc1b600f026040518663ffffffff1660e01b81526004018086815260200185815260200180602001846001600160a01b03166001600160a01b03168152602001838152602001828103825285818151815260200191508051906020019060200280838360005b83811015611e09578181015183820152602001611df1565b505050509050019650505050505050600060405180830381600087803b158015611e3257600080fd5b505af1158015611e46573d6000803e3d6000fd5b505050506040513d6000823e601f3d908101601f191682016040526020811015611e6f57600080fd5b810190808051600160201b811115611e8657600080fd5b82016020810184811115611e9957600080fd5b81518560208202830111600160201b82111715611eb557600080fd5b5050929190505050600185510381518110611ecc57fe5b6020026020010151955061204c565b600080516020612d058339815191526001600160a01b03166338ed17398860018530600160fc1b600f026040518663ffffffff1660e01b81526004018086815260200185815260200180602001846001600160a01b03166001600160a01b03168152602001838152602001828103825285818151815260200191508051906020019060200280838360005b83811015611f7e578181015183820152602001611f66565b505050509050019650505050505050600060405180830381600087803b158015611fa757600080fd5b505af1158015611fbb573d6000803e3d6000fd5b505050506040513d6000823e601f3d908101601f191682016040526020811015611fe457600080fd5b810190808051600160201b811115611ffb57600080fd5b8201602081018481111561200e57600080fd5b81518560208202830111600160201b8211171561202a57600080fd5b505092919050505060018351038151811061204157fe5b602002602001015195505b5050505050612167565b6040805160028082526060808301845292602083019080388339019050509050848160008151811061208457fe5b60200260200101906001600160a01b031690816001600160a01b031681525050600080516020612cbf833981519152816001815181106120c057fe5b6001600160a01b0392909216602092830291909101820152604051600160e01b6338ed1739028152600481018581526001602483018190523060648401819052600160fc1b600f026084850181905260a060448601908152875160a48701528751600080516020612d05833981519152976338ed1739978c978b9695949093909260c49092019187810191028083836000831561186757818101518382015260200161184f565b61234e565b6040805160028082526060808301845292602083019080388339019050509050600080516020612cbf833981519152816000815181106121a857fe5b60200260200101906001600160a01b031690816001600160a01b03168152505083816001815181106121d657fe5b6001600160a01b03909216602092830291909101820152604051600160e01b6338ed1739028152600481018581526001602483018190523060648401819052600160fc1b600f026084850181905260a060448601908152875160a48701528751600080516020612d05833981519152976338ed1739978c978b9695949093909260c490920191878101910280838360005b8381101561227f578181015183820152602001612267565b505050509050019650505050505050600060405180830381600087803b1580156122a857600080fd5b505af11580156122bc573d6000803e3d6000fd5b505050506040513d6000823e601f3d908101601f1916820160405260208110156122e557600080fd5b810190808051600160201b8111156122fc57600080fd5b8201602081018481111561230f57600080fd5b81518560208202830111600160201b8211171561232b57600080fd5b505092919050505060018251038151811061234257fe5b60200260200101519150505b60008111610e455760408051600160e51b62461bcd02815260206004820152601560248201527f4572726f72205377617070696e6720546f6b656e730000000000000000000000604482015290519081900360640190fd5b6000610e4583836040518060400160405280601a81526020017f536166654d6174683a206469766973696f6e206279207a65726f000000000000815250612bf9565b60006124126001600160a01b038616600080516020612d058339815191528563ffffffff612b0d16565b61243a6001600160a01b038516600080516020612d058339815191528463ffffffff612b0d16565b60408051600160e81b62e8e3370281526001600160a01b03878116600483015286166024820152604481018590526064810184905260016084820181905260a48201523060c4820152600160fc1b600f0260e4820152905160009182918291600080516020612d058339815191529163e8e33700916101048082019260609290919082900301818787803b1580156124d157600080fd5b505af11580156124e5573d6000803e3d6000fd5b505050506040513d60608110156124fb57600080fd5b508051602082015160409092015190945090925090506000612523878563ffffffff610e0316565b1115612554576125548961253d888663ffffffff610e0316565b6001600160a01b038b16919063ffffffff610e4c16565b6000612566868463ffffffff610e0316565b11156125975761259789612580878563ffffffff610e0316565b6001600160a01b038a16919063ffffffff610e4c16565b98975050505050505050565b6000818484111561263557604051600160e51b62461bcd0281526004018080602001828103825283818151815260200191508051906020019080838360005b838110156125fa5781810151838201526020016125e2565b50505050905090810190601f1680156126275780820380516001836020036101000a031916815260200191505b509250505060405180910390fd5b505050900390565b6000813f7fc5d2460186f7233c927e7db2dcc703c0e500b653ca82273b7bfad8045d85a4708181148015906113ea575050151592915050565b60408051600160e01b63e6a439050281526001600160a01b0385811660048301528316602482015290516000918291735c69bee701ef814a2b6a3edd4b1652cb9cc5aa6f9163e6a43905916044808301926020929190829003018186803b1580156126e057600080fd5b505afa1580156126f4573d6000803e3d6000fd5b505050506040513d602081101561270a57600080fd5b5051905060006001600160a01b038216156128c7576040805160028082526060808301845292602083019080388339019050509050868160008151811061274d57fe5b60200260200101906001600160a01b031690816001600160a01b031681525050848160018151811061277b57fe5b6001600160a01b0390921660209283029190910182015260408051600160e01b63d06ca61f0281526004810189815260248201928352845160448301528451600080516020612d058339815191529463d06ca61f948c948894939192606490910191858201910280838360005b838110156128005781810151838201526020016127e8565b50505050905001935050505060006040518083038186803b15801561282457600080fd5b505afa158015612838573d6000803e3d6000fd5b505050506040513d6000823e601f3d908101601f19168201604052602081101561286157600080fd5b810190808051600160201b81111561287857600080fd5b8201602081018481111561288b57600080fd5b81518560208202830111600160201b821117156128a757600080fd5b50509291905050506001815181106128bb57fe5b60200260200101519150505b60006001600160a01b038716600080516020612cbf8339815191521480159061290757506001600160a01b038516600080516020612cbf83398151915214155b15612af25760408051600380825260808201909252606091602082018380388339019050509050878160008151811061293c57fe5b60200260200101906001600160a01b031690816001600160a01b031681525050600080516020612cbf8339815191528160018151811061297857fe5b60200260200101906001600160a01b031690816001600160a01b03168152505085816002815181106129a657fe5b6001600160a01b0390921660209283029190910182015260408051600160e01b63d06ca61f028152600481018a815260248201928352845160448301528451600080516020612d058339815191529463d06ca61f948d948894939192606490910191858201910280838360005b83811015612a2b578181015183820152602001612a13565b50505050905001935050505060006040518083038186803b158015612a4f57600080fd5b505afa158015612a63573d6000803e3d6000fd5b505050506040513d6000823e601f3d908101601f191682016040526020811015612a8c57600080fd5b810190808051600160201b811115612aa357600080fd5b82016020810184811115612ab657600080fd5b81518560208202830111600160201b82111715612ad257600080fd5b5050929190505050600281518110612ae657fe5b60200260200101519150505b808210612b0357509150610e459050565b9250610e45915050565b60408051600160e11b636eb1769f0281523060048201526001600160a01b0384811660248301529151600092612ba19285929188169163dd62ed3e91604480820192602092909190829003018186803b158015612b6957600080fd5b505afa158015612b7d573d6000803e3d6000fd5b505050506040513d6020811015612b9357600080fd5b50519063ffffffff612c6116565b604080516001600160a01b038616602482015260448082018490528251808303909101815260649091019091526020810180516001600160e01b0316600160e01b63095ea7b302179052909150610b86908590611007565b60008183612c4b57604051600160e51b62461bcd0281526020600482018181528351602484015283519092839260449091019190850190808383600083156125fa5781810151838201526020016125e2565b506000838581612c5757fe5b0495945050505050565b600082820183811015610e455760408051600160e51b62461bcd02815260206004820152601b60248201527f536166654d6174683a206164646974696f6e206f766572666c6f770000000000604482015290519081900360640190fdfe000000000000000000000000c02aaa39b223fe8d0a0e5c4f27ead9083c756cc24f776e61626c653a206e6577206f776e657220697320746865207a65726f20616464726573730000000000000000000000007a250d5630b4cf539739df2c5dacb4c659f2488d536166654d6174683a206d756c7469706c69636174696f6e206f766572666c6f774f776e61626c653a2063616c6c6572206973206e6f7420746865206f776e65725361666545524332303a204552433230206f7065726174696f6e20646964206e6f742073756363656564a165627a7a7230582092475caec1748b98326ca3996010d76c8f40ec7a9814cacae02d3a0256d31d680029",
  "source": "/**\r\n *Submitted for verification at Etherscan.io on 2020-10-12\r\n*/\r\n\r\n// \r\n// \r\n// \r\n// \r\n// \r\n// \r\n// Copyright (C) 2020 zapper, nodar, suhail, seb, sumit, apoorv\r\n\r\n// This program is free software: you can redistribute it and/or modify\r\n// it under the terms of the GNU Affero General Public License as published by\r\n// the Free Software Foundation, either version 2 of the License, or\r\n// (at your option) any later version.\r\n//\r\n// This program is distributed in the hope that it will be useful,\r\n// but WITHOUT ANY WARRANTY; without even the implied warranty of\r\n// MERCHANTABILITY or FITNESS FOR A PARTICULAR PURPOSE.  See the\r\n// GNU Affero General Public License for more details.\r\n//\r\n\r\n///@author Zapper\r\n///@notice This contract adds liquidity to Uniswap V2 pools using ETH or any ERC20 Token.\r\n// SPDX-License-Identifier: GPLv2\r\n\r\npragma solidity 0.5.7;\r\n\r\n/**\r\n * @dev Interface of the ERC20 standard as defined in the EIP. Does not include\r\n * the optional functions; to access them see {ERC20Detailed}.\r\n */\r\ninterface IERC20 {\r\n    /**\r\n     * @dev Returns the amount of tokens in existence.\r\n     */\r\n    function totalSupply() external view returns (uint256);\r\n\r\n    /**\r\n     * @dev Returns the amount of tokens owned by `account`.\r\n     */\r\n    function balanceOf(address account) external view returns (uint256);\r\n\r\n    /**\r\n     * @dev Moves `amount` tokens from the caller's account to `recipient`.\r\n     *\r\n     * Returns a boolean value indicating whether the operation succeeded.\r\n     *\r\n     * Emits a {Transfer} event.\r\n     */\r\n    function transfer(address recipient, uint256 amount)\r\n        external\r\n        returns (bool);\r\n\r\n    /**\r\n     * @dev Returns the remaining number of tokens that `spender` will be\r\n     * allowed to spend on behalf of `owner` through {transferFrom}. This is\r\n     * zero by default.\r\n     *\r\n     * This value changes when {approve} or {transferFrom} are called.\r\n     */\r\n    function allowance(address owner, address spender)\r\n        external\r\n        view\r\n        returns (uint256);\r\n\r\n    /**\r\n     * @dev Sets `amount` as the allowance of `spender` over the caller's tokens.\r\n     *\r\n     * Returns a boolean value indicating whether the operation succeeded.\r\n     *\r\n     * IMPORTANT: Beware that changing an allowance with this method brings the risk\r\n     * that someone may use both the old and the new allowance by unfortunate\r\n     * transaction ordering. One possible solution to mitigate this race\r\n     * condition is to first reduce the spender's allowance to 0 and set the\r\n     * desired value afterwards:\r\n     * https://github.com/ethereum/EIPs/issues/20#issuecomment-263524729\r\n     *\r\n     * Emits an {Approval} event.\r\n     */\r\n    function approve(address spender, uint256 amount) external returns (bool);\r\n\r\n    /**\r\n     * @dev Moves `amount` tokens from `sender` to `recipient` using the\r\n     * allowance mechanism. `amount` is then deducted from the caller's\r\n     * allowance.\r\n     *\r\n     * Returns a boolean value indicating whether the operation succeeded.\r\n     *\r\n     * Emits a {Transfer} event.\r\n     */\r\n    function transferFrom(\r\n        address sender,\r\n        address recipient,\r\n        uint256 amount\r\n    ) external returns (bool);\r\n\r\n    /**\r\n     * @dev Emitted when `value` tokens are moved from one account (`from`) to\r\n     * another (`to`).\r\n     *\r\n     * Note that `value` may be zero.\r\n     */\r\n    event Transfer(address indexed from, address indexed to, uint256 value);\r\n\r\n    /**\r\n     * @dev Emitted when the allowance of a `spender` for an `owner` is set by\r\n     * a call to {approve}. `value` is the new allowance.\r\n     */\r\n    event Approval(\r\n        address indexed owner,\r\n        address indexed spender,\r\n        uint256 value\r\n    );\r\n}\r\n\r\n/**\r\n * @dev Wrappers over Solidity's arithmetic operations with added overflow\r\n * checks.\r\n *\r\n * Arithmetic operations in Solidity wrap on overflow. This can easily result\r\n * in bugs, because programmers usually assume that an overflow raises an\r\n * error, which is the standard behavior in high level programming languages.\r\n * `SafeMath` restores this intuition by reverting the transaction when an\r\n * operation overflows.\r\n *\r\n * Using this library instead of the unchecked operations eliminates an entire\r\n * class of bugs, so it's recommended to use it always.\r\n */\r\nlibrary SafeMath {\r\n    /**\r\n     * @dev Returns the addition of two unsigned integers, reverting on\r\n     * overflow.\r\n     *\r\n     * Counterpart to Solidity's `+` operator.\r\n     *\r\n     * Requirements:\r\n     * - Addition cannot overflow.\r\n     */\r\n    function add(uint256 a, uint256 b) internal pure returns (uint256) {\r\n        uint256 c = a + b;\r\n        require(c >= a, \"SafeMath: addition overflow\");\r\n\r\n        return c;\r\n    }\r\n\r\n    /**\r\n     * @dev Returns the subtraction of two unsigned integers, reverting on\r\n     * overflow (when the result is negative).\r\n     *\r\n     * Counterpart to Solidity's `-` operator.\r\n     *\r\n     * Requirements:\r\n     * - Subtraction cannot overflow.\r\n     */\r\n    function sub(uint256 a, uint256 b) internal pure returns (uint256) {\r\n        return sub(a, b, \"SafeMath: subtraction overflow\");\r\n    }\r\n\r\n    /**\r\n     * @dev Returns the subtraction of two unsigned integers, reverting with custom message on\r\n     * overflow (when the result is negative).\r\n     *\r\n     * Counterpart to Solidity's `-` operator.\r\n     *\r\n     * Requirements:\r\n     * - Subtraction cannot overflow.\r\n     *\r\n     * _Available since v2.4.0._\r\n     */\r\n    function sub(\r\n        uint256 a,\r\n        uint256 b,\r\n        string memory errorMessage\r\n    ) internal pure returns (uint256) {\r\n        require(b <= a, errorMessage);\r\n        uint256 c = a - b;\r\n\r\n        return c;\r\n    }\r\n\r\n    /**\r\n     * @dev Returns the multiplication of two unsigned integers, reverting on\r\n     * overflow.\r\n     *\r\n     * Counterpart to Solidity's `*` operator.\r\n     *\r\n     * Requirements:\r\n     * - Multiplication cannot overflow.\r\n     */\r\n    function mul(uint256 a, uint256 b) internal pure returns (uint256) {\r\n        // Gas optimization: this is cheaper than requiring 'a' not being zero, but the\r\n        // benefit is lost if 'b' is also tested.\r\n        // See: https://github.com/OpenZeppelin/openzeppelin-contracts/pull/522\r\n        if (a == 0) {\r\n            return 0;\r\n        }\r\n\r\n        uint256 c = a * b;\r\n        require(c / a == b, \"SafeMath: multiplication overflow\");\r\n\r\n        return c;\r\n    }\r\n\r\n    /**\r\n     * @dev Returns the integer division of two unsigned integers. Reverts on\r\n     * division by zero. The result is rounded towards zero.\r\n     *\r\n     * Counterpart to Solidity's `/` operator. Note: this function uses a\r\n     * `revert` opcode (which leaves remaining gas untouched) while Solidity\r\n     * uses an invalid opcode to revert (consuming all remaining gas).\r\n     *\r\n     * Requirements:\r\n     * - The divisor cannot be zero.\r\n     */\r\n    function div(uint256 a, uint256 b) internal pure returns (uint256) {\r\n        return div(a, b, \"SafeMath: division by zero\");\r\n    }\r\n\r\n    /**\r\n     * @dev Returns the integer division of two unsigned integers. Reverts with custom message on\r\n     * division by zero. The result is rounded towards zero.\r\n     *\r\n     * Counterpart to Solidity's `/` operator. Note: this function uses a\r\n     * `revert` opcode (which leaves remaining gas untouched) while Solidity\r\n     * uses an invalid opcode to revert (consuming all remaining gas).\r\n     *\r\n     * Requirements:\r\n     * - The divisor cannot be zero.\r\n     *\r\n     * _Available since v2.4.0._\r\n     */\r\n    function div(\r\n        uint256 a,\r\n        uint256 b,\r\n        string memory errorMessage\r\n    ) internal pure returns (uint256) {\r\n        // Solidity only automatically asserts when dividing by 0\r\n        require(b > 0, errorMessage);\r\n        uint256 c = a / b;\r\n        // assert(a == b * c + a % b); // There is no case in which this doesn't hold\r\n\r\n        return c;\r\n    }\r\n\r\n    /**\r\n     * @dev Returns the remainder of dividing two unsigned integers. (unsigned integer modulo),\r\n     * Reverts when dividing by zero.\r\n     *\r\n     * Counterpart to Solidity's `%` operator. This function uses a `revert`\r\n     * opcode (which leaves remaining gas untouched) while Solidity uses an\r\n     * invalid opcode to revert (consuming all remaining gas).\r\n     *\r\n     * Requirements:\r\n     * - The divisor cannot be zero.\r\n     */\r\n    function mod(uint256 a, uint256 b) internal pure returns (uint256) {\r\n        return mod(a, b, \"SafeMath: modulo by zero\");\r\n    }\r\n\r\n    /**\r\n     * @dev Returns the remainder of dividing two unsigned integers. (unsigned integer modulo),\r\n     * Reverts with custom message when dividing by zero.\r\n     *\r\n     * Counterpart to Solidity's `%` operator. This function uses a `revert`\r\n     * opcode (which leaves remaining gas untouched) while Solidity uses an\r\n     * invalid opcode to revert (consuming all remaining gas).\r\n     *\r\n     * Requirements:\r\n     * - The divisor cannot be zero.\r\n     *\r\n     * _Available since v2.4.0._\r\n     */\r\n    function mod(\r\n        uint256 a,\r\n        uint256 b,\r\n        string memory errorMessage\r\n    ) internal pure returns (uint256) {\r\n        require(b != 0, errorMessage);\r\n        return a % b;\r\n    }\r\n}\r\n\r\n/**\r\n * @dev Collection of functions related to the address type\r\n */\r\nlibrary Address {\r\n    /**\r\n     * @dev Returns true if `account` is a contract.\r\n     *\r\n     * [IMPORTANT]\r\n     * ====\r\n     * It is unsafe to assume that an address for which this function returns\r\n     * false is an externally-owned account (EOA) and not a contract.\r\n     *\r\n     * Among others, `isContract` will return false for the following\r\n     * types of addresses:\r\n     *\r\n     *  - an externally-owned account\r\n     *  - a contract in construction\r\n     *  - an address where a contract will be created\r\n     *  - an address where a contract lived, but was destroyed\r\n     * ====\r\n     */\r\n    function isContract(address account) internal view returns (bool) {\r\n        // According to EIP-1052, 0x0 is the value returned for not-yet created accounts\r\n        // and 0xc5d2460186f7233c927e7db2dcc703c0e500b653ca82273b7bfad8045d85a470 is returned\r\n        // for accounts without code, i.e. `keccak256('')`\r\n        bytes32 codehash;\r\n\r\n\r\n            bytes32 accountHash\r\n         = 0xc5d2460186f7233c927e7db2dcc703c0e500b653ca82273b7bfad8045d85a470;\r\n        // solhint-disable-next-line no-inline-assembly\r\n        assembly {\r\n            codehash := extcodehash(account)\r\n        }\r\n        return (codehash != accountHash && codehash != 0x0);\r\n    }\r\n\r\n    /**\r\n     * @dev Converts an `address` into `address payable`. Note that this is\r\n     * simply a type cast: the actual underlying value is not changed.\r\n     *\r\n     * _Available since v2.4.0._\r\n     */\r\n    function toPayable(address account)\r\n        internal\r\n        pure\r\n        returns (address payable)\r\n    {\r\n        return address(uint160(account));\r\n    }\r\n\r\n    /**\r\n     * @dev Replacement for Solidity's `transfer`: sends `amount` wei to\r\n     * `recipient`, forwarding all available gas and reverting on errors.\r\n     *\r\n     * https://eips.ethereum.org/EIPS/eip-1884[EIP1884] increases the gas cost\r\n     * of certain opcodes, possibly making contracts go over the 2300 gas limit\r\n     * imposed by `transfer`, making them unable to receive funds via\r\n     * `transfer`. {sendValue} removes this limitation.\r\n     *\r\n     * https://diligence.consensys.net/posts/2019/09/stop-using-soliditys-transfer-now/[Learn more].\r\n     *\r\n     * IMPORTANT: because control is transferred to `recipient`, care must be\r\n     * taken to not create reentrancy vulnerabilities. Consider using\r\n     * {ReentrancyGuard} or the\r\n     * https://solidity.readthedocs.io/en/v0.5.11/security-considerations.html#use-the-checks-effects-interactions-pattern[checks-effects-interactions pattern].\r\n     *\r\n     * _Available since v2.4.0._\r\n     */\r\n    function sendValue(address payable recipient, uint256 amount) internal {\r\n        require(\r\n            address(this).balance >= amount,\r\n            \"Address: insufficient balance\"\r\n        );\r\n\r\n        // solhint-disable-next-line avoid-call-value\r\n        (bool success, ) = recipient.call.value(amount)(\"\");\r\n        require(\r\n            success,\r\n            \"Address: unable to send value, recipient may have reverted\"\r\n        );\r\n    }\r\n}\r\n\r\n/**\r\n * @title SafeERC20\r\n * @dev Wrappers around ERC20 operations that throw on failure (when the token\r\n * contract returns false). Tokens that return no value (and instead revert or\r\n * throw on failure) are also supported, non-reverting calls are assumed to be\r\n * successful.\r\n * To use this library you can add a `using SafeERC20 for ERC20;` statement to your contract,\r\n * which allows you to call the safe operations as `token.safeTransfer(...)`, etc.\r\n */\r\nlibrary SafeERC20 {\r\n    using SafeMath for uint256;\r\n    using Address for address;\r\n\r\n    function safeTransfer(\r\n        IERC20 token,\r\n        address to,\r\n        uint256 value\r\n    ) internal {\r\n        callOptionalReturn(\r\n            token,\r\n            abi.encodeWithSelector(token.transfer.selector, to, value)\r\n        );\r\n    }\r\n\r\n    function safeTransferFrom(\r\n        IERC20 token,\r\n        address from,\r\n        address to,\r\n        uint256 value\r\n    ) internal {\r\n        callOptionalReturn(\r\n            token,\r\n            abi.encodeWithSelector(token.transferFrom.selector, from, to, value)\r\n        );\r\n    }\r\n\r\n    function safeApprove(\r\n        IERC20 token,\r\n        address spender,\r\n        uint256 value\r\n    ) internal {\r\n        // safeApprove should only be called when setting an initial allowance,\r\n        // or when resetting it to zero. To increase and decrease it, use\r\n        // 'safeIncreaseAllowance' and 'safeDecreaseAllowance'\r\n        // solhint-disable-next-line max-line-length\r\n        require(\r\n            (value == 0) || (token.allowance(address(this), spender) == 0),\r\n            \"SafeERC20: approve from non-zero to non-zero allowance\"\r\n        );\r\n        callOptionalReturn(\r\n            token,\r\n            abi.encodeWithSelector(token.approve.selector, spender, value)\r\n        );\r\n    }\r\n\r\n    function safeIncreaseAllowance(\r\n        IERC20 token,\r\n        address spender,\r\n        uint256 value\r\n    ) internal {\r\n        uint256 newAllowance = token.allowance(address(this), spender).add(\r\n            value\r\n        );\r\n        callOptionalReturn(\r\n            token,\r\n            abi.encodeWithSelector(\r\n                token.approve.selector,\r\n                spender,\r\n                newAllowance\r\n            )\r\n        );\r\n    }\r\n\r\n    function safeDecreaseAllowance(\r\n        IERC20 token,\r\n        address spender,\r\n        uint256 value\r\n    ) internal {\r\n        uint256 newAllowance = token.allowance(address(this), spender).sub(\r\n            value,\r\n            \"SafeERC20: decreased allowance below zero\"\r\n        );\r\n        callOptionalReturn(\r\n            token,\r\n            abi.encodeWithSelector(\r\n                token.approve.selector,\r\n                spender,\r\n                newAllowance\r\n            )\r\n        );\r\n    }\r\n\r\n    /**\r\n     * @dev Imitates a Solidity high-level call (i.e. a regular function call to a contract), relaxing the requirement\r\n     * on the return value: the return value is optional (but if data is returned, it must not be false).\r\n     * @param token The token targeted by the call.\r\n     * @param data The call data (encoded using abi.encode or one of its variants).\r\n     */\r\n    function callOptionalReturn(IERC20 token, bytes memory data) private {\r\n        // We need to perform a low level call here, to bypass Solidity's return data size checking mechanism, since\r\n        // we're implementing it ourselves.\r\n\r\n        // A Solidity high level call has three parts:\r\n        //  1. The target address is checked to verify it contains contract code\r\n        //  2. The call itself is made, and success asserted\r\n        //  3. The return value is decoded, which in turn checks the size of the returned data.\r\n        // solhint-disable-next-line max-line-length\r\n        require(address(token).isContract(), \"SafeERC20: call to non-contract\");\r\n\r\n        // solhint-disable-next-line avoid-low-level-calls\r\n        (bool success, bytes memory returndata) = address(token).call(data);\r\n        require(success, \"SafeERC20: low-level call failed\");\r\n\r\n        if (returndata.length > 0) {\r\n            // Return data is optional\r\n            // solhint-disable-next-line max-line-length\r\n            require(\r\n                abi.decode(returndata, (bool)),\r\n                \"SafeERC20: ERC20 operation did not succeed\"\r\n            );\r\n        }\r\n    }\r\n}\r\n\r\n/**\r\n * @dev Contract module that helps prevent reentrant calls to a function.\r\n *\r\n * Inheriting from `ReentrancyGuard` will make the {nonReentrant} modifier\r\n * available, which can be applied to functions to make sure there are no nested\r\n * (reentrant) calls to them.\r\n *\r\n * Note that because there is a single `nonReentrant` guard, functions marked as\r\n * `nonReentrant` may not call one another. This can be worked around by making\r\n * those functions `private`, and then adding `external` `nonReentrant` entry\r\n * points to them.\r\n *\r\n * _Since v2.5.0:_ this module is now much more gas efficient, given net gas\r\n * metering changes introduced in the Istanbul hardfork.\r\n */\r\ncontract ReentrancyGuard {\r\n    bool private _notEntered;\r\n\r\n    constructor() internal {\r\n        // Storing an initial non-zero value makes deployment a bit more\r\n        // expensive, but in exchange the refund on every call to nonReentrant\r\n        // will be lower in amount. Since refunds are capped to a percetange of\r\n        // the total transaction's gas, it is best to keep them low in cases\r\n        // like this one, to increase the likelihood of the full refund coming\r\n        // into effect.\r\n        _notEntered = true;\r\n    }\r\n\r\n    /**\r\n     * @dev Prevents a contract from calling itself, directly or indirectly.\r\n     * Calling a `nonReentrant` function from another `nonReentrant`\r\n     * function is not supported. It is possible to prevent this from happening\r\n     * by making the `nonReentrant` function external, and make it call a\r\n     * `private` function that does the actual work.\r\n     */\r\n    modifier nonReentrant() {\r\n        // On the first call to nonReentrant, _notEntered will be true\r\n        require(_notEntered, \"ReentrancyGuard: reentrant call\");\r\n\r\n        // Any calls to nonReentrant after this point will fail\r\n        _notEntered = false;\r\n\r\n        _;\r\n\r\n        // By storing the original value once again, a refund is triggered (see\r\n        // https://eips.ethereum.org/EIPS/eip-2200)\r\n        _notEntered = true;\r\n    }\r\n}\r\n\r\n/*\r\n * @dev Provides information about the current execution context, including the\r\n * sender of the transaction and its data. While these are generally available\r\n * via msg.sender and msg.data, they should not be accessed in such a direct\r\n * manner, since when dealing with GSN meta-transactions the account sending and\r\n * paying for execution may not be the actual sender (as far as an application\r\n * is concerned).\r\n *\r\n * This contract is only required for intermediate, library-like contracts.\r\n */\r\ncontract Context {\r\n    // Empty internal constructor, to prevent people from mistakenly deploying\r\n    // an instance of this contract, which should be used via inheritance.\r\n    constructor() internal {}\r\n\r\n    // solhint-disable-previous-line no-empty-blocks\r\n\r\n    function _msgSender() internal view returns (address payable) {\r\n        return msg.sender;\r\n    }\r\n\r\n    function _msgData() internal view returns (bytes memory) {\r\n        this; // silence state mutability warning without generating bytecode - see https://github.com/ethereum/solidity/issues/2691\r\n        return msg.data;\r\n    }\r\n}\r\n\r\n/**\r\n * @dev Contract module which provides a basic access control mechanism, where\r\n * there is an account (an owner) that can be granted exclusive access to\r\n * specific functions.\r\n *\r\n * This module is used through inheritance. It will make available the modifier\r\n * `onlyOwner`, which can be applied to your functions to restrict their use to\r\n * the owner.\r\n */\r\ncontract Ownable is Context {\r\n    address payable public _owner;\r\n\r\n    event OwnershipTransferred(\r\n        address indexed previousOwner,\r\n        address indexed newOwner\r\n    );\r\n\r\n    /**\r\n     * @dev Initializes the contract setting the deployer as the initial owner.\r\n     */\r\n    constructor() internal {\r\n        address payable msgSender = _msgSender();\r\n        _owner = msgSender;\r\n        emit OwnershipTransferred(address(0), msgSender);\r\n    }\r\n\r\n    /**\r\n     * @dev Returns the address of the current owner.\r\n     */\r\n    function owner() public view returns (address) {\r\n        return _owner;\r\n    }\r\n\r\n    /**\r\n     * @dev Throws if called by any account other than the owner.\r\n     */\r\n    modifier onlyOwner() {\r\n        require(isOwner(), \"Ownable: caller is not the owner\");\r\n        _;\r\n    }\r\n\r\n    /**\r\n     * @dev Returns true if the caller is the current owner.\r\n     */\r\n    function isOwner() public view returns (bool) {\r\n        return _msgSender() == _owner;\r\n    }\r\n\r\n    /**\r\n     * @dev Leaves the contract without owner. It will not be possible to call\r\n     * `onlyOwner` functions anymore. Can only be called by the current owner.\r\n     *\r\n     * NOTE: Renouncing ownership will leave the contract without an owner,\r\n     * thereby removing any functionality that is only available to the owner.\r\n     */\r\n    function renounceOwnership() public onlyOwner {\r\n        emit OwnershipTransferred(_owner, address(0));\r\n        _owner = address(0);\r\n    }\r\n\r\n    /**\r\n     * @dev Transfers ownership of the contract to a new account (`newOwner`).\r\n     * Can only be called by the current owner.\r\n     */\r\n    function transferOwnership(address payable newOwner) public onlyOwner {\r\n        _transferOwnership(newOwner);\r\n    }\r\n\r\n    /**\r\n     * @dev Transfers ownership of the contract to a new account (`newOwner`).\r\n     */\r\n    function _transferOwnership(address payable newOwner) internal {\r\n        require(\r\n            newOwner != address(0),\r\n            \"Ownable: new owner is the zero address\"\r\n        );\r\n        emit OwnershipTransferred(_owner, newOwner);\r\n        _owner = newOwner;\r\n    }\r\n}\r\n\r\n// import \"@uniswap/lib/contracts/libraries/Babylonian.sol\";\r\nlibrary Babylonian {\r\n    function sqrt(uint256 y) internal pure returns (uint256 z) {\r\n        if (y > 3) {\r\n            z = y;\r\n            uint256 x = y / 2 + 1;\r\n            while (x < z) {\r\n                z = x;\r\n                x = (y / x + x) / 2;\r\n            }\r\n        } else if (y != 0) {\r\n            z = 1;\r\n        }\r\n        // else z = 0\r\n    }\r\n}\r\n\r\ninterface IWETH {\r\n    function deposit() external payable;\r\n\r\n    function transfer(address to, uint256 value) external returns (bool);\r\n\r\n    function withdraw(uint256) external;\r\n}\r\n\r\ninterface IUniswapV2Factory {\r\n    function getPair(address tokenA, address tokenB)\r\n        external\r\n        view\r\n        returns (address);\r\n}\r\n\r\ninterface IUniswapV2Router02 {\r\n    function factory() external pure returns (address);\r\n\r\n    function WETH() external pure returns (address);\r\n\r\n    function addLiquidity(\r\n        address tokenA,\r\n        address tokenB,\r\n        uint256 amountADesired,\r\n        uint256 amountBDesired,\r\n        uint256 amountAMin,\r\n        uint256 amountBMin,\r\n        address to,\r\n        uint256 deadline\r\n    )\r\n        external\r\n        returns (\r\n            uint256 amountA,\r\n            uint256 amountB,\r\n            uint256 liquidity\r\n        );\r\n\r\n    function addLiquidityETH(\r\n        address token,\r\n        uint256 amountTokenDesired,\r\n        uint256 amountTokenMin,\r\n        uint256 amountETHMin,\r\n        address to,\r\n        uint256 deadline\r\n    )\r\n        external\r\n        payable\r\n        returns (\r\n            uint256 amountToken,\r\n            uint256 amountETH,\r\n            uint256 liquidity\r\n        );\r\n\r\n    function removeLiquidity(\r\n        address tokenA,\r\n        address tokenB,\r\n        uint256 liquidity,\r\n        uint256 amountAMin,\r\n        uint256 amountBMin,\r\n        address to,\r\n        uint256 deadline\r\n    ) external returns (uint256 amountA, uint256 amountB);\r\n\r\n    function removeLiquidityETH(\r\n        address token,\r\n        uint256 liquidity,\r\n        uint256 amountTokenMin,\r\n        uint256 amountETHMin,\r\n        address to,\r\n        uint256 deadline\r\n    ) external returns (uint256 amountToken, uint256 amountETH);\r\n\r\n    function removeLiquidityWithPermit(\r\n        address tokenA,\r\n        address tokenB,\r\n        uint256 liquidity,\r\n        uint256 amountAMin,\r\n        uint256 amountBMin,\r\n        address to,\r\n        uint256 deadline,\r\n        bool approveMax,\r\n        uint8 v,\r\n        bytes32 r,\r\n        bytes32 s\r\n    ) external returns (uint256 amountA, uint256 amountB);\r\n\r\n    function removeLiquidityETHWithPermit(\r\n        address token,\r\n        uint256 liquidity,\r\n        uint256 amountTokenMin,\r\n        uint256 amountETHMin,\r\n        address to,\r\n        uint256 deadline,\r\n        bool approveMax,\r\n        uint8 v,\r\n        bytes32 r,\r\n        bytes32 s\r\n    ) external returns (uint256 amountToken, uint256 amountETH);\r\n\r\n    function swapExactTokensForTokens(\r\n        uint256 amountIn,\r\n        uint256 amountOutMin,\r\n        address[] calldata path,\r\n        address to,\r\n        uint256 deadline\r\n    ) external returns (uint256[] memory amounts);\r\n\r\n    function swapTokensForExactTokens(\r\n        uint256 amountOut,\r\n        uint256 amountInMax,\r\n        address[] calldata path,\r\n        address to,\r\n        uint256 deadline\r\n    ) external returns (uint256[] memory amounts);\r\n\r\n    function swapExactETHForTokens(\r\n        uint256 amountOutMin,\r\n        address[] calldata path,\r\n        address to,\r\n        uint256 deadline\r\n    ) external payable returns (uint256[] memory amounts);\r\n\r\n    function swapTokensForExactETH(\r\n        uint256 amountOut,\r\n        uint256 amountInMax,\r\n        address[] calldata path,\r\n        address to,\r\n        uint256 deadline\r\n    ) external returns (uint256[] memory amounts);\r\n\r\n    function swapExactTokensForETH(\r\n        uint256 amountIn,\r\n        uint256 amountOutMin,\r\n        address[] calldata path,\r\n        address to,\r\n        uint256 deadline\r\n    ) external returns (uint256[] memory amounts);\r\n\r\n    function swapETHForExactTokens(\r\n        uint256 amountOut,\r\n        address[] calldata path,\r\n        address to,\r\n        uint256 deadline\r\n    ) external payable returns (uint256[] memory amounts);\r\n\r\n    function removeLiquidityETHSupportingFeeOnTransferTokens(\r\n        address token,\r\n        uint256 liquidity,\r\n        uint256 amountTokenMin,\r\n        uint256 amountETHMin,\r\n        address to,\r\n        uint256 deadline\r\n    ) external returns (uint256 amountETH);\r\n\r\n    function removeLiquidityETHWithPermitSupportingFeeOnTransferTokens(\r\n        address token,\r\n        uint256 liquidity,\r\n        uint256 amountTokenMin,\r\n        uint256 amountETHMin,\r\n        address to,\r\n        uint256 deadline,\r\n        bool approveMax,\r\n        uint8 v,\r\n        bytes32 r,\r\n        bytes32 s\r\n    ) external returns (uint256 amountETH);\r\n\r\n    function swapExactTokensForTokensSupportingFeeOnTransferTokens(\r\n        uint256 amountIn,\r\n        uint256 amountOutMin,\r\n        address[] calldata path,\r\n        address to,\r\n        uint256 deadline\r\n    ) external;\r\n\r\n    function swapExactETHForTokensSupportingFeeOnTransferTokens(\r\n        uint256 amountOutMin,\r\n        address[] calldata path,\r\n        address to,\r\n        uint256 deadline\r\n    ) external payable;\r\n\r\n    function swapExactTokensForETHSupportingFeeOnTransferTokens(\r\n        uint256 amountIn,\r\n        uint256 amountOutMin,\r\n        address[] calldata path,\r\n        address to,\r\n        uint256 deadline\r\n    ) external;\r\n\r\n    function quote(\r\n        uint256 amountA,\r\n        uint256 reserveA,\r\n        uint256 reserveB\r\n    ) external pure returns (uint256 amountB);\r\n\r\n    function getAmountOut(\r\n        uint256 amountIn,\r\n        uint256 reserveIn,\r\n        uint256 reserveOut\r\n    ) external pure returns (uint256 amountOut);\r\n\r\n    function getAmountIn(\r\n        uint256 amountOut,\r\n        uint256 reserveIn,\r\n        uint256 reserveOut\r\n    ) external pure returns (uint256 amountIn);\r\n\r\n    function getAmountsOut(uint256 amountIn, address[] calldata path)\r\n        external\r\n        view\r\n        returns (uint256[] memory amounts);\r\n\r\n    function getAmountsIn(uint256 amountOut, address[] calldata path)\r\n        external\r\n        view\r\n        returns (uint256[] memory amounts);\r\n}\r\n\r\ninterface IUniswapV2Pair {\r\n    function token0() external pure returns (address);\r\n\r\n    function token1() external pure returns (address);\r\n\r\n    function getReserves()\r\n        external\r\n        view\r\n        returns (\r\n            uint112 _reserve0,\r\n            uint112 _reserve1,\r\n            uint32 _blockTimestampLast\r\n        );\r\n}\r\n\r\ncontract Parabellum_In_General_V2_4_1 is ReentrancyGuard, Ownable {\r\n    using SafeMath for uint256;\r\n    using Address for address;\r\n    using SafeERC20 for IERC20;\r\n\r\n    bool public stopped = false;\r\n    uint16 public goodwill;\r\n    address\r\n        private constant zgoodwillAddress = 0xE737b6AfEC2320f616297e59445b60a11e3eF75F;\r\n\r\n    IUniswapV2Router02 private constant uniswapRouter = IUniswapV2Router02(\r\n        0x7a250d5630B4cF539739dF2C5dAcb4c659F2488D\r\n    );\r\n\r\n    IUniswapV2Factory\r\n        private constant UniSwapV2FactoryAddress = IUniswapV2Factory(\r\n        0x5C69bEe701ef814a2B6a3EDD4B1652CB9cc5aA6f\r\n    );\r\n\r\n    address\r\n        private constant wethTokenAddress = 0xC02aaA39b223FE8D0A0e5C4F27eAD9083C756Cc2;\r\n\r\n    uint256\r\n        private constant deadline = 0xf000000000000000000000000000000000000000000000000000000000000000;\r\n\r\n    constructor(uint16 _goodwill) public {\r\n        goodwill = _goodwill;\r\n    }\r\n\r\n    // circuit breaker modifiers\r\n    modifier stopInEmergency {\r\n        if (stopped) {\r\n            revert(\"Temporarily Paused\");\r\n        } else {\r\n            _;\r\n        }\r\n    }\r\n\r\n    /**\r\n    @notice This function is used to invest in given Uniswap V2 pair through ETH/ERC20 Tokens\r\n    @param _FromTokenContractAddress The ERC20 token used for investment (address(0x00) if ether)\r\n    @param _ToUnipoolToken0 The Uniswap V2 pair token0 address\r\n    @param _ToUnipoolToken1 The Uniswap V2 pair token1 address\r\n    @param _amount The amount of fromToken to invest\r\n    @param _minPoolTokens Reverts if less tokens received than this\r\n    @return Amount of LP bought\r\n     */\r\n    function ZapIn(\r\n        address _toWhomToIssue,\r\n        address _FromTokenContractAddress,\r\n        address _ToUnipoolToken0,\r\n        address _ToUnipoolToken1,\r\n        uint256 _amount,\r\n        uint256 _minPoolTokens\r\n    ) public payable nonReentrant stopInEmergency returns (uint256) {\r\n        uint256 toInvest;\r\n        if (_FromTokenContractAddress == address(0)) {\r\n            require(msg.value > 0, \"Error: ETH not sent\");\r\n            toInvest = msg.value;\r\n        } else {\r\n            require(msg.value == 0, \"Error: ETH sent\");\r\n            require(_amount > 0, \"Error: Invalid ERC amount\");\r\n            IERC20(_FromTokenContractAddress).safeTransferFrom(\r\n                msg.sender,\r\n                address(this),\r\n                _amount\r\n            );\r\n            toInvest = _amount;\r\n        }\r\n\r\n        uint256 LPBought = _performZapIn(\r\n            _toWhomToIssue,\r\n            _FromTokenContractAddress,\r\n            _ToUnipoolToken0,\r\n            _ToUnipoolToken1,\r\n            toInvest\r\n        );\r\n        require(LPBought >= _minPoolTokens, \"ERR: High Slippage\");\r\n\r\n        //get pair address\r\n        address _ToUniPoolAddress = UniSwapV2FactoryAddress.getPair(\r\n            _ToUnipoolToken0,\r\n            _ToUnipoolToken1\r\n        );\r\n\r\n        //transfer goodwill\r\n        uint256 goodwillPortion = _transferGoodwill(\r\n            _ToUniPoolAddress,\r\n            LPBought\r\n        );\r\n\r\n        IERC20(_ToUniPoolAddress).safeTransfer(\r\n            _toWhomToIssue,\r\n            SafeMath.sub(LPBought, goodwillPortion)\r\n        );\r\n        return SafeMath.sub(LPBought, goodwillPortion);\r\n    }\r\n\r\n    function _performZapIn(\r\n        address _toWhomToIssue,\r\n        address _FromTokenContractAddress,\r\n        address _ToUnipoolToken0,\r\n        address _ToUnipoolToken1,\r\n        uint256 _amount\r\n    ) internal returns (uint256) {\r\n        address intermediate = _getIntermediate(\r\n            _FromTokenContractAddress,\r\n            _amount,\r\n            _ToUnipoolToken0,\r\n            _ToUnipoolToken1\r\n        );\r\n\r\n        // swap to intermediate\r\n        uint256 interAmt = _token2Token(\r\n            _FromTokenContractAddress,\r\n            intermediate,\r\n            _amount\r\n        );\r\n\r\n        // divide to swap in amounts\r\n        uint256 token0Bought;\r\n        uint256 token1Bought;\r\n\r\n        IUniswapV2Pair pair = IUniswapV2Pair(\r\n            UniSwapV2FactoryAddress.getPair(_ToUnipoolToken0, _ToUnipoolToken1)\r\n        );\r\n        (uint256 res0, uint256 res1, ) = pair.getReserves();\r\n\r\n        if (intermediate == _ToUnipoolToken0) {\r\n            uint256 amountToSwap = calculateSwapInAmount(res0, interAmt);\r\n            //if no reserve or a new pair is created\r\n            if (amountToSwap <= 0) amountToSwap = interAmt.div(2);\r\n            token1Bought = _token2Token(\r\n                intermediate,\r\n                _ToUnipoolToken1,\r\n                amountToSwap\r\n            );\r\n            token0Bought = interAmt.sub(amountToSwap);\r\n        } else {\r\n            uint256 amountToSwap = calculateSwapInAmount(res1, interAmt);\r\n            //if no reserve or a new pair is created\r\n            if (amountToSwap <= 0) amountToSwap = interAmt.div(2);\r\n            token0Bought = _token2Token(\r\n                intermediate,\r\n                _ToUnipoolToken0,\r\n                amountToSwap\r\n            );\r\n            token1Bought = interAmt.sub(amountToSwap);\r\n        }\r\n\r\n        return\r\n            _uniDeposit(\r\n                _toWhomToIssue,\r\n                _ToUnipoolToken0,\r\n                _ToUnipoolToken1,\r\n                token0Bought,\r\n                token1Bought\r\n            );\r\n    }\r\n\r\n    function _uniDeposit(\r\n        address _toWhomToIssue,\r\n        address _ToUnipoolToken0,\r\n        address _ToUnipoolToken1,\r\n        uint256 token0Bought,\r\n        uint256 token1Bought\r\n    ) internal returns (uint256) {\r\n        IERC20(_ToUnipoolToken0).safeIncreaseAllowance(\r\n            address(uniswapRouter),\r\n            token0Bought\r\n        );\r\n        IERC20(_ToUnipoolToken1).safeIncreaseAllowance(\r\n            address(uniswapRouter),\r\n            token1Bought\r\n        );\r\n\r\n        (uint256 amountA, uint256 amountB, uint256 LP) = uniswapRouter\r\n            .addLiquidity(\r\n            _ToUnipoolToken0,\r\n            _ToUnipoolToken1,\r\n            token0Bought,\r\n            token1Bought,\r\n            1,\r\n            1,\r\n            address(this),\r\n            deadline\r\n        );\r\n\r\n        //Returning Residue in token0, if any.\r\n        if (token0Bought.sub(amountA) > 0) {\r\n            IERC20(_ToUnipoolToken0).safeTransfer(\r\n                _toWhomToIssue,\r\n                token0Bought.sub(amountA)\r\n            );\r\n        }\r\n\r\n        //Returning Residue in token1, if any\r\n        if (token1Bought.sub(amountB) > 0) {\r\n            IERC20(_ToUnipoolToken1).safeTransfer(\r\n                _toWhomToIssue,\r\n                token1Bought.sub(amountB)\r\n            );\r\n        }\r\n\r\n        return LP;\r\n    }\r\n\r\n    function _getIntermediate(\r\n        address _FromTokenContractAddress,\r\n        uint256 _amount,\r\n        address _ToUnipoolToken0,\r\n        address _ToUnipoolToken1\r\n    ) internal view returns (address) {\r\n        // set from to weth for eth input\r\n        if (_FromTokenContractAddress == address(0)) {\r\n            _FromTokenContractAddress = wethTokenAddress;\r\n        }\r\n\r\n        if (_FromTokenContractAddress == _ToUnipoolToken0) {\r\n            return _ToUnipoolToken0;\r\n        } else if (_FromTokenContractAddress == _ToUnipoolToken1) {\r\n            return _ToUnipoolToken1;\r\n        } else {\r\n            IUniswapV2Pair pair = IUniswapV2Pair(\r\n                UniSwapV2FactoryAddress.getPair(\r\n                    _ToUnipoolToken0,\r\n                    _ToUnipoolToken1\r\n                )\r\n            );\r\n            (uint256 res0, uint256 res1, ) = pair.getReserves();\r\n\r\n            uint256 ratio;\r\n            bool isToken0Numerator;\r\n            if (res0 >= res1) {\r\n                ratio = res0 / res1;\r\n                isToken0Numerator = true;\r\n            } else {\r\n                ratio = res1 / res0;\r\n            }\r\n\r\n            //find outputs on swap\r\n            uint256 output0 = _calculateSwapOutput(\r\n                _FromTokenContractAddress,\r\n                _amount,\r\n                _ToUnipoolToken0\r\n            );\r\n            uint256 output1 = _calculateSwapOutput(\r\n                _FromTokenContractAddress,\r\n                _amount,\r\n                _ToUnipoolToken1\r\n            );\r\n\r\n            if (isToken0Numerator) {\r\n                if (output1 * ratio >= output0) return _ToUnipoolToken1;\r\n                else return _ToUnipoolToken0;\r\n            } else {\r\n                if (output0 * ratio >= output1) return _ToUnipoolToken0;\r\n                else return _ToUnipoolToken1;\r\n            }\r\n        }\r\n    }\r\n\r\n    function _calculateSwapOutput(\r\n        address _from,\r\n        uint256 _amt,\r\n        address _to\r\n    ) internal view returns (uint256) {\r\n        // check output via tokenA -> tokenB\r\n        address pairA = UniSwapV2FactoryAddress.getPair(_from, _to);\r\n\r\n        uint256 amtA;\r\n        if (pairA != address(0)) {\r\n            address[] memory pathA = new address[](2);\r\n            pathA[0] = _from;\r\n            pathA[1] = _to;\r\n\r\n            amtA = uniswapRouter.getAmountsOut(_amt, pathA)[1];\r\n        }\r\n\r\n        uint256 amtB;\r\n        // check output via tokenA -> weth -> tokenB\r\n        if ((_from != wethTokenAddress) && _to != wethTokenAddress) {\r\n            address[] memory pathB = new address[](3);\r\n            pathB[0] = _from;\r\n            pathB[1] = wethTokenAddress;\r\n            pathB[2] = _to;\r\n\r\n            amtB = uniswapRouter.getAmountsOut(_amt, pathB)[2];\r\n        }\r\n\r\n        if (amtA >= amtB) {\r\n            return amtA;\r\n        } else {\r\n            return amtB;\r\n        }\r\n    }\r\n\r\n    function calculateSwapInAmount(uint256 reserveIn, uint256 userIn)\r\n        public\r\n        pure\r\n        returns (uint256)\r\n    {\r\n        return\r\n            Babylonian\r\n                .sqrt(\r\n                reserveIn.mul(userIn.mul(3988000) + reserveIn.mul(3988009))\r\n            )\r\n                .sub(reserveIn.mul(1997)) / 1994;\r\n    }\r\n\r\n    /**\r\n    @notice This function is used to swap ETH/ERC20 <> ETH/ERC20\r\n    @param _FromTokenContractAddress The token address to swap from. (0x00 for ETH)\r\n    @param _ToTokenContractAddress The token address to swap to. (0x00 for ETH)\r\n    @param tokens2Trade The amount of tokens to swap\r\n    @return tokenBought The quantity of tokens bought\r\n    */\r\n    function _token2Token(\r\n        address _FromTokenContractAddress,\r\n        address _ToTokenContractAddress,\r\n        uint256 tokens2Trade\r\n    ) internal returns (uint256 tokenBought) {\r\n        if (_FromTokenContractAddress == _ToTokenContractAddress) {\r\n            return tokens2Trade;\r\n        }\r\n\r\n        if (_FromTokenContractAddress == address(0)) {\r\n            if (_ToTokenContractAddress == wethTokenAddress) {\r\n                IWETH(wethTokenAddress).deposit.value(tokens2Trade)();\r\n                return tokens2Trade;\r\n            }\r\n\r\n            address[] memory path = new address[](2);\r\n            path[0] = wethTokenAddress;\r\n            path[1] = _ToTokenContractAddress;\r\n            tokenBought = uniswapRouter.swapExactETHForTokens.value(\r\n                tokens2Trade\r\n            )(1, path, address(this), deadline)[path.length - 1];\r\n        } else if (_ToTokenContractAddress == address(0)) {\r\n            if (_FromTokenContractAddress == wethTokenAddress) {\r\n                IWETH(wethTokenAddress).withdraw(tokens2Trade);\r\n                return tokens2Trade;\r\n            }\r\n\r\n            IERC20(_FromTokenContractAddress).safeIncreaseAllowance(\r\n                address(uniswapRouter),\r\n                tokens2Trade\r\n            );\r\n\r\n            address[] memory path = new address[](2);\r\n            path[0] = _FromTokenContractAddress;\r\n            path[1] = wethTokenAddress;\r\n            tokenBought = uniswapRouter.swapExactTokensForETH(\r\n                tokens2Trade,\r\n                1,\r\n                path,\r\n                address(this),\r\n                deadline\r\n            )[path.length - 1];\r\n        } else {\r\n            IERC20(_FromTokenContractAddress).safeIncreaseAllowance(\r\n                address(uniswapRouter),\r\n                tokens2Trade\r\n            );\r\n\r\n            if (_FromTokenContractAddress != wethTokenAddress) {\r\n                if (_ToTokenContractAddress != wethTokenAddress) {\r\n                    // check output via tokenA -> tokenB\r\n                    address pairA = UniSwapV2FactoryAddress.getPair(\r\n                        _FromTokenContractAddress,\r\n                        _ToTokenContractAddress\r\n                    );\r\n                    address[] memory pathA = new address[](2);\r\n                    pathA[0] = _FromTokenContractAddress;\r\n                    pathA[1] = _ToTokenContractAddress;\r\n                    uint256 amtA;\r\n                    if (pairA != address(0)) {\r\n                        amtA = uniswapRouter.getAmountsOut(\r\n                            tokens2Trade,\r\n                            pathA\r\n                        )[1];\r\n                    }\r\n\r\n                    // check output via tokenA -> weth -> tokenB\r\n                    address[] memory pathB = new address[](3);\r\n                    pathB[0] = _FromTokenContractAddress;\r\n                    pathB[1] = wethTokenAddress;\r\n                    pathB[2] = _ToTokenContractAddress;\r\n\r\n                    uint256 amtB = uniswapRouter.getAmountsOut(\r\n                        tokens2Trade,\r\n                        pathB\r\n                    )[2];\r\n\r\n                    if (amtA >= amtB) {\r\n                        tokenBought = uniswapRouter.swapExactTokensForTokens(\r\n                            tokens2Trade,\r\n                            1,\r\n                            pathA,\r\n                            address(this),\r\n                            deadline\r\n                        )[pathA.length - 1];\r\n                    } else {\r\n                        tokenBought = uniswapRouter.swapExactTokensForTokens(\r\n                            tokens2Trade,\r\n                            1,\r\n                            pathB,\r\n                            address(this),\r\n                            deadline\r\n                        )[pathB.length - 1];\r\n                    }\r\n                } else {\r\n                    address[] memory path = new address[](2);\r\n                    path[0] = _FromTokenContractAddress;\r\n                    path[1] = wethTokenAddress;\r\n\r\n                    tokenBought = uniswapRouter.swapExactTokensForTokens(\r\n                        tokens2Trade,\r\n                        1,\r\n                        path,\r\n                        address(this),\r\n                        deadline\r\n                    )[path.length - 1];\r\n                }\r\n            } else {\r\n                address[] memory path = new address[](2);\r\n                path[0] = wethTokenAddress;\r\n                path[1] = _ToTokenContractAddress;\r\n                tokenBought = uniswapRouter.swapExactTokensForTokens(\r\n                    tokens2Trade,\r\n                    1,\r\n                    path,\r\n                    address(this),\r\n                    deadline\r\n                )[path.length - 1];\r\n            }\r\n        }\r\n        require(tokenBought > 0, \"Error Swapping Tokens\");\r\n    }\r\n\r\n    /**\r\n    @notice This function is used to calculate and transfer goodwill\r\n    @param _tokenContractAddress Token in which goodwill is deducted\r\n    @param tokens2Trade The total amount of tokens to be zapped in\r\n    @return The quantity of goodwill deducted\r\n     */\r\n    function _transferGoodwill(\r\n        address _tokenContractAddress,\r\n        uint256 tokens2Trade\r\n    ) internal returns (uint256 goodwillPortion) {\r\n        goodwillPortion = SafeMath.div(\r\n            SafeMath.mul(tokens2Trade, goodwill),\r\n            10000\r\n        );\r\n\r\n        if (goodwillPortion == 0) {\r\n            return 0;\r\n        }\r\n\r\n        IERC20(_tokenContractAddress).safeTransfer(\r\n            zgoodwillAddress,\r\n            goodwillPortion\r\n        );\r\n    }\r\n\r\n    function set_new_goodwill(uint16 _new_goodwill) public onlyOwner {\r\n        require(\r\n            _new_goodwill >= 0 && _new_goodwill < 10000,\r\n            \"GoodWill Value not allowed\"\r\n        );\r\n        goodwill = _new_goodwill;\r\n    }\r\n\r\n    function inCaseTokengetsStuck(IERC20 _TokenAddress) public onlyOwner {\r\n        uint256 qty = _TokenAddress.balanceOf(address(this));\r\n        _TokenAddress.safeTransfer(owner(), qty);\r\n    }\r\n\r\n    // - to Pause the contract\r\n    function toggleContractActive() public onlyOwner {\r\n        stopped = !stopped;\r\n    }\r\n\r\n    // - to withdraw any ETH balance sitting in the contract\r\n    function withdraw() public onlyOwner {\r\n        uint256 contractBalance = address(this).balance;\r\n        address payable _to = owner().toPayable();\r\n        _to.transfer(contractBalance);\r\n    }\r\n\r\n    function() external payable {\r\n        require(msg.sender != tx.origin, \"Do not send ETH directly\");\r\n    }\r\n}",
  "sourcePath": "C:/Users/jay.sanchez/ParabellumLiquidity/contracts/Parabellum_In_General_V2_4_1.sol",
  "compiler": {
    "name": "solc",
    "version": "0.5.7+commit.6da8b019.Emscripten.clang"
  },
  "schemaVersion": "3.3.3",
  "updatedAt": "2021-01-24T21:41:48.154Z",
  "devdoc": {
    "methods": {
      "ZapIn(address,address,address,address,uint256,uint256)": {
        "params": {
          "_FromTokenContractAddress": "The ERC20 token used for investment (address(0x00) if ether)\r",
          "_ToUnipoolToken0": "The Uniswap V2 pair token0 address\r",
          "_ToUnipoolToken1": "The Uniswap V2 pair token1 address\r",
          "_amount": "The amount of fromToken to invest\r",
          "_minPoolTokens": "Reverts if less tokens received than this\r"
        },
        "return": "Amount of LP bought\r"
      },
      "isOwner()": {
        "details": "Returns true if the caller is the current owner.\r"
      },
      "owner()": {
        "details": "Returns the address of the current owner.\r"
      },
      "renounceOwnership()": {
        "details": "Leaves the contract without owner. It will not be possible to call\r `onlyOwner` functions anymore. Can only be called by the current owner.\r      * NOTE: Renouncing ownership will leave the contract without an owner,\r thereby removing any functionality that is only available to the owner.\r"
      },
      "transferOwnership(address)": {
        "details": "Transfers ownership of the contract to a new account (`newOwner`).\r Can only be called by the current owner.\r"
      }
    }
  },
  "userdoc": {
    "methods": {
      "ZapIn(address,address,address,address,uint256,uint256)": {
        "notice": "This function is used to invest in given Uniswap V2 pair through ETH/ERC20 Tokens\r"
      }
    }
  }
}